{
  "_format": "hh-sol-artifact-1",
  "contractName": "TazArtwork",
  "sourceName": "contracts/TazArtwork.sol",
  "abi": [
    {
      "inputs": [
        {
          "internalType": "contract ISemaphore",
          "name": "semaContractAddr",
          "type": "address"
        }
      ],
      "stateMutability": "nonpayable",
      "type": "constructor"
    },
    {
      "anonymous": false,
      "inputs": [
        {
          "indexed": true,
          "internalType": "address",
          "name": "owner",
          "type": "address"
        },
        {
          "indexed": true,
          "internalType": "address",
          "name": "approved",
          "type": "address"
        },
        {
          "indexed": true,
          "internalType": "uint256",
          "name": "tokenId",
          "type": "uint256"
        }
      ],
      "name": "Approval",
      "type": "event"
    },
    {
      "anonymous": false,
      "inputs": [
        {
          "indexed": true,
          "internalType": "address",
          "name": "owner",
          "type": "address"
        },
        {
          "indexed": true,
          "internalType": "address",
          "name": "operator",
          "type": "address"
        },
        {
          "indexed": false,
          "internalType": "bool",
          "name": "approved",
          "type": "bool"
        }
      ],
      "name": "ApprovalForAll",
      "type": "event"
    },
    {
      "anonymous": false,
      "inputs": [
        {
          "indexed": false,
          "internalType": "uint256",
          "name": "tokenId",
          "type": "uint256"
        },
        {
          "indexed": false,
          "internalType": "string",
          "name": "uri",
          "type": "string"
        }
      ],
      "name": "NewToken",
      "type": "event"
    },
    {
      "anonymous": false,
      "inputs": [
        {
          "indexed": true,
          "internalType": "bytes32",
          "name": "role",
          "type": "bytes32"
        },
        {
          "indexed": true,
          "internalType": "bytes32",
          "name": "previousAdminRole",
          "type": "bytes32"
        },
        {
          "indexed": true,
          "internalType": "bytes32",
          "name": "newAdminRole",
          "type": "bytes32"
        }
      ],
      "name": "RoleAdminChanged",
      "type": "event"
    },
    {
      "anonymous": false,
      "inputs": [
        {
          "indexed": true,
          "internalType": "bytes32",
          "name": "role",
          "type": "bytes32"
        },
        {
          "indexed": true,
          "internalType": "address",
          "name": "account",
          "type": "address"
        },
        {
          "indexed": true,
          "internalType": "address",
          "name": "sender",
          "type": "address"
        }
      ],
      "name": "RoleGranted",
      "type": "event"
    },
    {
      "anonymous": false,
      "inputs": [
        {
          "indexed": true,
          "internalType": "bytes32",
          "name": "role",
          "type": "bytes32"
        },
        {
          "indexed": true,
          "internalType": "address",
          "name": "account",
          "type": "address"
        },
        {
          "indexed": true,
          "internalType": "address",
          "name": "sender",
          "type": "address"
        }
      ],
      "name": "RoleRevoked",
      "type": "event"
    },
    {
      "anonymous": false,
      "inputs": [
        {
          "indexed": true,
          "internalType": "address",
          "name": "from",
          "type": "address"
        },
        {
          "indexed": true,
          "internalType": "address",
          "name": "to",
          "type": "address"
        },
        {
          "indexed": true,
          "internalType": "uint256",
          "name": "tokenId",
          "type": "uint256"
        }
      ],
      "name": "Transfer",
      "type": "event"
    },
    {
      "anonymous": false,
      "inputs": [
        {
          "indexed": false,
          "internalType": "uint256",
          "name": "tokenId",
          "type": "uint256"
        },
        {
          "indexed": false,
          "internalType": "address",
          "name": "reviewer",
          "type": "address"
        }
      ],
      "name": "ViolationAdded",
      "type": "event"
    },
    {
      "anonymous": false,
      "inputs": [
        {
          "indexed": false,
          "internalType": "uint256",
          "name": "tokenId",
          "type": "uint256"
        }
      ],
      "name": "VoteAdded",
      "type": "event"
    },
    {
      "inputs": [],
      "name": "DEFAULT_ADMIN_ROLE",
      "outputs": [
        {
          "internalType": "bytes32",
          "name": "",
          "type": "bytes32"
        }
      ],
      "stateMutability": "view",
      "type": "function"
    },
    {
      "inputs": [],
      "name": "REVIEWER_ROLE",
      "outputs": [
        {
          "internalType": "bytes32",
          "name": "",
          "type": "bytes32"
        }
      ],
      "stateMutability": "view",
      "type": "function"
    },
    {
      "inputs": [],
      "name": "START_STOPPER_ROLE",
      "outputs": [
        {
          "internalType": "bytes32",
          "name": "",
          "type": "bytes32"
        }
      ],
      "stateMutability": "view",
      "type": "function"
    },
    {
      "inputs": [],
      "name": "TAZ_ADMIN_ROLE",
      "outputs": [
        {
          "internalType": "bytes32",
          "name": "",
          "type": "bytes32"
        }
      ],
      "stateMutability": "view",
      "type": "function"
    },
    {
      "inputs": [
        {
          "internalType": "address[]",
          "name": "admins",
          "type": "address[]"
        }
      ],
      "name": "addAdmins",
      "outputs": [],
      "stateMutability": "nonpayable",
      "type": "function"
    },
    {
      "inputs": [
        {
          "internalType": "address[]",
          "name": "reviewers",
          "type": "address[]"
        }
      ],
      "name": "addReviewers",
      "outputs": [],
      "stateMutability": "nonpayable",
      "type": "function"
    },
    {
      "inputs": [
        {
          "internalType": "address[]",
          "name": "startStoppers",
          "type": "address[]"
        }
      ],
      "name": "addStartStoppers",
      "outputs": [],
      "stateMutability": "nonpayable",
      "type": "function"
    },
    {
      "inputs": [
        {
          "internalType": "uint256",
          "name": "tokenId",
          "type": "uint256"
        }
      ],
      "name": "addViolation",
      "outputs": [],
      "stateMutability": "nonpayable",
      "type": "function"
    },
    {
      "inputs": [
        {
          "internalType": "address",
          "name": "to",
          "type": "address"
        },
        {
          "internalType": "uint256",
          "name": "tokenId",
          "type": "uint256"
        }
      ],
      "name": "approve",
      "outputs": [],
      "stateMutability": "nonpayable",
      "type": "function"
    },
    {
      "inputs": [
        {
          "internalType": "address",
          "name": "owner",
          "type": "address"
        }
      ],
      "name": "balanceOf",
      "outputs": [
        {
          "internalType": "uint256",
          "name": "",
          "type": "uint256"
        }
      ],
      "stateMutability": "view",
      "type": "function"
    },
    {
      "inputs": [
        {
          "internalType": "uint256",
          "name": "tokenId",
          "type": "uint256"
        }
      ],
      "name": "getApproved",
      "outputs": [
        {
          "internalType": "address",
          "name": "",
          "type": "address"
        }
      ],
      "stateMutability": "view",
      "type": "function"
    },
    {
      "inputs": [
        {
          "internalType": "bytes32",
          "name": "role",
          "type": "bytes32"
        }
      ],
      "name": "getRoleAdmin",
      "outputs": [
        {
          "internalType": "bytes32",
          "name": "",
          "type": "bytes32"
        }
      ],
      "stateMutability": "view",
      "type": "function"
    },
    {
      "inputs": [
        {
          "internalType": "bytes32",
          "name": "role",
          "type": "bytes32"
        },
        {
          "internalType": "address",
          "name": "account",
          "type": "address"
        }
      ],
      "name": "grantRole",
      "outputs": [],
      "stateMutability": "nonpayable",
      "type": "function"
    },
    {
      "inputs": [
        {
          "internalType": "bytes32",
          "name": "role",
          "type": "bytes32"
        },
        {
          "internalType": "address",
          "name": "account",
          "type": "address"
        }
      ],
      "name": "hasRole",
      "outputs": [
        {
          "internalType": "bool",
          "name": "",
          "type": "bool"
        }
      ],
      "stateMutability": "view",
      "type": "function"
    },
    {
      "inputs": [
        {
          "internalType": "address",
          "name": "owner",
          "type": "address"
        },
        {
          "internalType": "address",
          "name": "operator",
          "type": "address"
        }
      ],
      "name": "isApprovedForAll",
      "outputs": [
        {
          "internalType": "bool",
          "name": "",
          "type": "bool"
        }
      ],
      "stateMutability": "view",
      "type": "function"
    },
    {
      "inputs": [],
      "name": "name",
      "outputs": [
        {
          "internalType": "string",
          "name": "",
          "type": "string"
        }
      ],
      "stateMutability": "view",
      "type": "function"
    },
    {
      "inputs": [
        {
          "internalType": "uint256",
          "name": "tokenId",
          "type": "uint256"
        }
      ],
      "name": "ownerOf",
      "outputs": [
        {
          "internalType": "address",
          "name": "",
          "type": "address"
        }
      ],
      "stateMutability": "view",
      "type": "function"
    },
    {
      "inputs": [
        {
          "internalType": "address[]",
          "name": "admins",
          "type": "address[]"
        }
      ],
      "name": "removeAdmins",
      "outputs": [],
      "stateMutability": "nonpayable",
      "type": "function"
    },
    {
      "inputs": [
        {
          "internalType": "address[]",
          "name": "reviewers",
          "type": "address[]"
        }
      ],
      "name": "removeReviewers",
      "outputs": [],
      "stateMutability": "nonpayable",
      "type": "function"
    },
    {
      "inputs": [
        {
          "internalType": "address[]",
          "name": "startStoppers",
          "type": "address[]"
        }
      ],
      "name": "removeStartStoppers",
      "outputs": [],
      "stateMutability": "nonpayable",
      "type": "function"
    },
    {
      "inputs": [
        {
          "internalType": "bytes32",
          "name": "role",
          "type": "bytes32"
        },
        {
          "internalType": "address",
          "name": "account",
          "type": "address"
        }
      ],
      "name": "renounceRole",
      "outputs": [],
      "stateMutability": "nonpayable",
      "type": "function"
    },
    {
      "inputs": [
        {
          "internalType": "bytes32",
          "name": "role",
          "type": "bytes32"
        },
        {
          "internalType": "address",
          "name": "account",
          "type": "address"
        }
      ],
      "name": "revokeRole",
      "outputs": [],
      "stateMutability": "nonpayable",
      "type": "function"
    },
    {
      "inputs": [
        {
          "internalType": "address",
          "name": "to",
          "type": "address"
        },
        {
          "internalType": "string",
          "name": "uri",
          "type": "string"
        }
      ],
      "name": "safeMint",
      "outputs": [
        {
          "internalType": "uint256",
          "name": "",
          "type": "uint256"
        }
      ],
      "stateMutability": "nonpayable",
      "type": "function"
    },
    {
      "inputs": [
        {
          "internalType": "address",
          "name": "from",
          "type": "address"
        },
        {
          "internalType": "address",
          "name": "to",
          "type": "address"
        },
        {
          "internalType": "uint256",
          "name": "tokenId",
          "type": "uint256"
        }
      ],
      "name": "safeTransferFrom",
      "outputs": [],
      "stateMutability": "nonpayable",
      "type": "function"
    },
    {
      "inputs": [
        {
          "internalType": "address",
          "name": "from",
          "type": "address"
        },
        {
          "internalType": "address",
          "name": "to",
          "type": "address"
        },
        {
          "internalType": "uint256",
          "name": "tokenId",
          "type": "uint256"
        },
        {
          "internalType": "bytes",
          "name": "_data",
          "type": "bytes"
        }
      ],
      "name": "safeTransferFrom",
      "outputs": [],
      "stateMutability": "nonpayable",
      "type": "function"
    },
    {
      "inputs": [],
      "name": "semaContract",
      "outputs": [
        {
          "internalType": "contract ISemaphore",
          "name": "",
          "type": "address"
        }
      ],
      "stateMutability": "view",
      "type": "function"
    },
    {
      "inputs": [
        {
          "internalType": "address",
          "name": "operator",
          "type": "address"
        },
        {
          "internalType": "bool",
          "name": "approved",
          "type": "bool"
        }
      ],
      "name": "setApprovalForAll",
      "outputs": [],
      "stateMutability": "nonpayable",
      "type": "function"
    },
    {
      "inputs": [],
      "name": "startMinting",
      "outputs": [],
      "stateMutability": "nonpayable",
      "type": "function"
    },
    {
      "inputs": [],
      "name": "startVoting",
      "outputs": [],
      "stateMutability": "nonpayable",
      "type": "function"
    },
    {
      "inputs": [],
      "name": "stopMinting",
      "outputs": [],
      "stateMutability": "nonpayable",
      "type": "function"
    },
    {
      "inputs": [],
      "name": "stopVoting",
      "outputs": [],
      "stateMutability": "nonpayable",
      "type": "function"
    },
    {
      "inputs": [
        {
          "internalType": "bytes4",
          "name": "interfaceId",
          "type": "bytes4"
        }
      ],
      "name": "supportsInterface",
      "outputs": [
        {
          "internalType": "bool",
          "name": "",
          "type": "bool"
        }
      ],
      "stateMutability": "view",
      "type": "function"
    },
    {
      "inputs": [],
      "name": "symbol",
      "outputs": [
        {
          "internalType": "string",
          "name": "",
          "type": "string"
        }
      ],
      "stateMutability": "view",
      "type": "function"
    },
    {
      "inputs": [
        {
          "internalType": "uint256",
          "name": "tokenId",
          "type": "uint256"
        }
      ],
      "name": "tokenURI",
      "outputs": [
        {
          "internalType": "string",
          "name": "",
          "type": "string"
        }
      ],
      "stateMutability": "view",
      "type": "function"
    },
    {
      "inputs": [
        {
          "internalType": "address",
          "name": "from",
          "type": "address"
        },
        {
          "internalType": "address",
          "name": "to",
          "type": "address"
        },
        {
          "internalType": "uint256",
          "name": "tokenId",
          "type": "uint256"
        }
      ],
      "name": "transferFrom",
      "outputs": [],
      "stateMutability": "nonpayable",
      "type": "function"
    },
    {
      "inputs": [
        {
          "internalType": "uint256",
          "name": "tokenId",
          "type": "uint256"
        },
        {
          "internalType": "uint256",
          "name": "groupId",
          "type": "uint256"
        },
        {
          "internalType": "uint256",
          "name": "merkleTreeRoot",
          "type": "uint256"
        },
        {
          "internalType": "bytes32",
          "name": "signal",
          "type": "bytes32"
        },
        {
          "internalType": "uint256",
          "name": "nullifierHash",
          "type": "uint256"
        },
        {
          "internalType": "uint256[8]",
          "name": "proof",
          "type": "uint256[8]"
        }
      ],
      "name": "vote",
      "outputs": [],
      "stateMutability": "nonpayable",
      "type": "function"
    }
  ],
  "bytecode": "0x60806040523480156200001157600080fd5b5060405162004c4138038062004c4183398181016040528101906200003791906200053a565b6040518060400160405280600a81526020017f54617a417274776f726b000000000000000000000000000000000000000000008152506040518060400160405280600381526020017f54415a00000000000000000000000000000000000000000000000000000000008152508160009080519060200190620000bb92919062000473565b508060019080519060200190620000d492919062000473565b50505080600860006101000a81548173ffffffffffffffffffffffffffffffffffffffff021916908373ffffffffffffffffffffffffffffffffffffffff1602179055506200014a7f4636e38b5d73cef5ec0bdf8ec3e0565138a2bfe53888f9e988b51165659d842e806200027460201b60201c565b6200019c7fc10c77be35aff266144ed64c26a1fa104bae2f284ae99ac4a34203454704a1857f4636e38b5d73cef5ec0bdf8ec3e0565138a2bfe53888f9e988b51165659d842e6200027460201b60201c565b620001ee7fb9fb535eeef00914f0e629be8b6c1550a75e7adca17b4a272f7798bb710f25057f4636e38b5d73cef5ec0bdf8ec3e0565138a2bfe53888f9e988b51165659d842e6200027460201b60201c565b620002207f4636e38b5d73cef5ec0bdf8ec3e0565138a2bfe53888f9e988b51165659d842e33620002d860201b60201c565b6001600a60006101000a81548160ff0219169083151502179055506000600a60016101000a81548160ff0219169083151502179055506200026d6009620003ca60201b620016fd1760201c565b506200062d565b60006200028783620003e060201b60201c565b90508160076000858152602001908152602001600020600101819055508181847fbd79b86ffe0ab8e8776151514217cd7cacd52c909f66475c3af44e129f0b00ff60405160405180910390a4505050565b620002ea82826200040060201b60201c565b620003c65760016007600084815260200190815260200160002060000160008373ffffffffffffffffffffffffffffffffffffffff1673ffffffffffffffffffffffffffffffffffffffff16815260200190815260200160002060006101000a81548160ff0219169083151502179055506200036b6200046b60201b60201c565b73ffffffffffffffffffffffffffffffffffffffff168173ffffffffffffffffffffffffffffffffffffffff16837f2f8788117e7eff1d82e926ec794901d17c78024a50270940304540a733656f0d60405160405180910390a45b5050565b6001816000016000828254019250508190555050565b600060076000838152602001908152602001600020600101549050919050565b60006007600084815260200190815260200160002060000160008373ffffffffffffffffffffffffffffffffffffffff1673ffffffffffffffffffffffffffffffffffffffff16815260200190815260200160002060009054906101000a900460ff16905092915050565b600033905090565b8280546200048190620005ae565b90600052602060002090601f016020900481019282620004a55760008555620004f1565b82601f10620004c057805160ff1916838001178555620004f1565b82800160010185558215620004f1579182015b82811115620004f0578251825591602001919060010190620004d3565b5b50905062000500919062000504565b5090565b5b808211156200051f57600081600090555060010162000505565b5090565b600081519050620005348162000613565b92915050565b6000602082840312156200054d57600080fd5b60006200055d8482850162000523565b91505092915050565b600062000573826200058e565b9050919050565b6000620005878262000566565b9050919050565b600073ffffffffffffffffffffffffffffffffffffffff82169050919050565b60006002820490506001821680620005c757607f821691505b60208210811415620005de57620005dd620005e4565b5b50919050565b7f4e487b7100000000000000000000000000000000000000000000000000000000600052602260045260246000fd5b6200061e816200057a565b81146200062a57600080fd5b50565b614604806200063d6000396000f3fe608060405234801561001057600080fd5b506004361061021c5760003560e01c8063785b55f811610125578063acc3f1ed116100ad578063d204c45e1161007c578063d204c45e146105e9578063d547741f14610619578063d6b91e9f14610635578063e985e9c514610651578063fab2f86b146106815761021c565b8063acc3f1ed14610563578063b88d4fde14610581578063c61e84da1461059d578063c87b56dd146105b95761021c565b80639a65ea26116100f45780639a65ea26146104e75780639c3ad74a146104f15780639c54df641461050d578063a217fddf14610529578063a22cb465146105475761021c565b8063785b55f81461045d5780638a8deed71461047b57806391d148541461049957806395d89b41146104c95761021c565b806336568abe116101a857806342842e0e1161017757806342842e0e146103a9578063490ed5d3146103c55780636352211e146103e15780636db926661461041157806370a082311461042d5761021c565b806336568abe14610349578063377e11e0146103655780633b129a56146103815780633e3e0b121461039f5761021c565b806317147064116101ef57806317147064146102bb5780631ec6b60a146102d757806323b872dd146102e1578063248a9ca3146102fd5780632f2ff15d1461032d5761021c565b806301ffc9a71461022157806306fdde0314610251578063081812fc1461026f578063095ea7b31461029f575b600080fd5b61023b60048036038101906102369190613196565b61068b565b6040516102489190613761565b60405180910390f35b61025961069d565b60405161026691906137b2565b60405180910390f35b610289600480360381019061028491906131e8565b61072f565b60405161029691906136fa565b60405180910390f35b6102b960048036038101906102b491906130b0565b6107b4565b005b6102d560048036038101906102d091906130ec565b6108cc565b005b6102df61099a565b005b6102fb60048036038101906102f69190612f56565b6109ea565b005b61031760048036038101906103129190613131565b610a4a565b604051610324919061377c565b60405180910390f35b6103476004803603810190610342919061315a565b610a6a565b005b610363600480360381019061035e919061315a565b610a93565b005b61037f600480360381019061037a91906130ec565b610b16565b005b610389610be4565b604051610396919061377c565b60405180910390f35b6103a7610c08565b005b6103c360048036038101906103be9190612f56565b610c58565b005b6103df60048036038101906103da91906130ec565b610c78565b005b6103fb60048036038101906103f691906131e8565b610d46565b60405161040891906136fa565b60405180910390f35b61042b600480360381019061042691906131e8565b610df8565b005b61044760048036038101906104429190612ef1565b610e67565b6040516104549190613a54565b60405180910390f35b610465610f1f565b604051610472919061377c565b60405180910390f35b610483610f43565b6040516104909190613797565b60405180910390f35b6104b360048036038101906104ae919061315a565b610f69565b6040516104c09190613761565b60405180910390f35b6104d1610fd4565b6040516104de91906137b2565b60405180910390f35b6104ef611066565b005b61050b600480360381019061050691906130ec565b6110b6565b005b610527600480360381019061052291906130ec565b611184565b005b610531611252565b60405161053e919061377c565b60405180910390f35b610561600480360381019061055c9190613020565b611259565b005b61056b61126f565b604051610578919061377c565b60405180910390f35b61059b60048036038101906105969190612fa5565b611293565b005b6105b760048036038101906105b29190613211565b6112f5565b005b6105d360048036038101906105ce91906131e8565b61141d565b6040516105e091906137b2565b60405180910390f35b61060360048036038101906105fe919061305c565b61142f565b6040516106109190613a54565b60405180910390f35b610633600480360381019061062e919061315a565b611522565b005b61064f600480360381019061064a91906130ec565b61154b565b005b61066b60048036038101906106669190612f1a565b611619565b6040516106789190613761565b60405180910390f35b6106896116ad565b005b600061069682611713565b9050919050565b6060600080546106ac90613e17565b80601f01602080910402602001604051908101604052809291908181526020018280546106d890613e17565b80156107255780601f106106fa57610100808354040283529160200191610725565b820191906000526020600020905b81548152906001019060200180831161070857829003601f168201915b5050505050905090565b600061073a8261178d565b610779576040517f08c379a000000000000000000000000000000000000000000000000000000000815260040161077090613994565b60405180910390fd5b6004600083815260200190815260200160002060009054906101000a900473ffffffffffffffffffffffffffffffffffffffff169050919050565b60006107bf82610d46565b90508073ffffffffffffffffffffffffffffffffffffffff168373ffffffffffffffffffffffffffffffffffffffff161415610830576040517f08c379a0000000000000000000000000000000000000000000000000000000008152600401610827906139f4565b60405180910390fd5b8073ffffffffffffffffffffffffffffffffffffffff1661084f6117f9565b73ffffffffffffffffffffffffffffffffffffffff16148061087e575061087d816108786117f9565b611619565b5b6108bd576040517f08c379a00000000000000000000000000000000000000000000000000000000081526004016108b4906138d4565b60405180910390fd5b6108c78383611801565b505050565b7f4636e38b5d73cef5ec0bdf8ec3e0565138a2bfe53888f9e988b51165659d842e6108fe816108f96117f9565b6118ba565b60005b83839050811015610994576109837fc10c77be35aff266144ed64c26a1fa104bae2f284ae99ac4a34203454704a185858584818110610969577f4e487b7100000000000000000000000000000000000000000000000000000000600052603260045260246000fd5b905060200201602081019061097e9190612ef1565b610a6a565b8061098d90613e7a565b9050610901565b50505050565b7fb9fb535eeef00914f0e629be8b6c1550a75e7adca17b4a272f7798bb710f25056109cc816109c76117f9565b6118ba565b6001600a60016101000a81548160ff02191690831515021790555050565b6109fb6109f56117f9565b82611957565b610a3a576040517f08c379a0000000000000000000000000000000000000000000000000000000008152600401610a3190613a14565b60405180910390fd5b610a45838383611a35565b505050565b600060076000838152602001908152602001600020600101549050919050565b610a7382610a4a565b610a8481610a7f6117f9565b6118ba565b610a8e8383611c91565b505050565b610a9b6117f9565b73ffffffffffffffffffffffffffffffffffffffff168173ffffffffffffffffffffffffffffffffffffffff1614610b08576040517f08c379a0000000000000000000000000000000000000000000000000000000008152600401610aff90613a34565b60405180910390fd5b610b128282611d72565b5050565b7f4636e38b5d73cef5ec0bdf8ec3e0565138a2bfe53888f9e988b51165659d842e610b4881610b436117f9565b6118ba565b60005b83839050811015610bde57610bcd7f4636e38b5d73cef5ec0bdf8ec3e0565138a2bfe53888f9e988b51165659d842e858584818110610bb3577f4e487b7100000000000000000000000000000000000000000000000000000000600052603260045260246000fd5b9050602002016020810190610bc89190612ef1565b611522565b80610bd790613e7a565b9050610b4b565b50505050565b7fc10c77be35aff266144ed64c26a1fa104bae2f284ae99ac4a34203454704a18581565b7fb9fb535eeef00914f0e629be8b6c1550a75e7adca17b4a272f7798bb710f2505610c3a81610c356117f9565b6118ba565b6000600a60006101000a81548160ff02191690831515021790555050565b610c7383838360405180602001604052806000815250611293565b505050565b7f4636e38b5d73cef5ec0bdf8ec3e0565138a2bfe53888f9e988b51165659d842e610caa81610ca56117f9565b6118ba565b60005b83839050811015610d4057610d2f7fb9fb535eeef00914f0e629be8b6c1550a75e7adca17b4a272f7798bb710f2505858584818110610d15577f4e487b7100000000000000000000000000000000000000000000000000000000600052603260045260246000fd5b9050602002016020810190610d2a9190612ef1565b611522565b80610d3990613e7a565b9050610cad565b50505050565b6000806002600084815260200190815260200160002060009054906101000a900473ffffffffffffffffffffffffffffffffffffffff169050600073ffffffffffffffffffffffffffffffffffffffff168173ffffffffffffffffffffffffffffffffffffffff161415610def576040517f08c379a0000000000000000000000000000000000000000000000000000000008152600401610de690613914565b60405180910390fd5b80915050919050565b7fc10c77be35aff266144ed64c26a1fa104bae2f284ae99ac4a34203454704a185610e2a81610e256117f9565b6118ba565b7fb8c6b548b208fa5670169d9ffdd92678964b6298204949dc37fc1a882f8ae28b8233604051610e5b929190613a6f565b60405180910390a15050565b60008073ffffffffffffffffffffffffffffffffffffffff168273ffffffffffffffffffffffffffffffffffffffff161415610ed8576040517f08c379a0000000000000000000000000000000000000000000000000000000008152600401610ecf906138f4565b60405180910390fd5b600360008373ffffffffffffffffffffffffffffffffffffffff1673ffffffffffffffffffffffffffffffffffffffff168152602001908152602001600020549050919050565b7f4636e38b5d73cef5ec0bdf8ec3e0565138a2bfe53888f9e988b51165659d842e81565b600860009054906101000a900473ffffffffffffffffffffffffffffffffffffffff1681565b60006007600084815260200190815260200160002060000160008373ffffffffffffffffffffffffffffffffffffffff1673ffffffffffffffffffffffffffffffffffffffff16815260200190815260200160002060009054906101000a900460ff16905092915050565b606060018054610fe390613e17565b80601f016020809104026020016040519081016040528092919081815260200182805461100f90613e17565b801561105c5780601f106110315761010080835404028352916020019161105c565b820191906000526020600020905b81548152906001019060200180831161103f57829003601f168201915b5050505050905090565b7fb9fb535eeef00914f0e629be8b6c1550a75e7adca17b4a272f7798bb710f2505611098816110936117f9565b6118ba565b6001600a60006101000a81548160ff02191690831515021790555050565b7f4636e38b5d73cef5ec0bdf8ec3e0565138a2bfe53888f9e988b51165659d842e6110e8816110e36117f9565b6118ba565b60005b8383905081101561117e5761116d7fb9fb535eeef00914f0e629be8b6c1550a75e7adca17b4a272f7798bb710f2505858584818110611153577f4e487b7100000000000000000000000000000000000000000000000000000000600052603260045260246000fd5b90506020020160208101906111689190612ef1565b610a6a565b8061117790613e7a565b90506110eb565b50505050565b7f4636e38b5d73cef5ec0bdf8ec3e0565138a2bfe53888f9e988b51165659d842e6111b6816111b16117f9565b6118ba565b60005b8383905081101561124c5761123b7f4636e38b5d73cef5ec0bdf8ec3e0565138a2bfe53888f9e988b51165659d842e858584818110611221577f4e487b7100000000000000000000000000000000000000000000000000000000600052603260045260246000fd5b90506020020160208101906112369190612ef1565b610a6a565b8061124590613e7a565b90506111b9565b50505050565b6000801b81565b61126b6112646117f9565b8383611e54565b5050565b7fb9fb535eeef00914f0e629be8b6c1550a75e7adca17b4a272f7798bb710f250581565b6112a461129e6117f9565b83611957565b6112e3576040517f08c379a00000000000000000000000000000000000000000000000000000000081526004016112da90613a14565b60405180910390fd5b6112ef84848484611fc1565b50505050565b600a60019054906101000a900460ff16611344576040517f08c379a000000000000000000000000000000000000000000000000000000000815260040161133b90613874565b60405180910390fd5b600860009054906101000a900473ffffffffffffffffffffffffffffffffffffffff1673ffffffffffffffffffffffffffffffffffffffff16638b69310a868686866201c19d876040518763ffffffff1660e01b81526004016113ac96959493929190613ac8565b600060405180830381600087803b1580156113c657600080fd5b505af11580156113da573d6000803e3d6000fd5b505050507fca4f4e617a82c74ac41214e7eeb397d2d16ca7807cc366995e9e52dc2b7a444d8660405161140d9190613a54565b60405180910390a1505050505050565b60606114288261201d565b9050919050565b60007f4636e38b5d73cef5ec0bdf8ec3e0565138a2bfe53888f9e988b51165659d842e6114638161145e6117f9565b6118ba565b600061146f600961216f565b9050600a60009054906101000a900460ff166114c0576040517f08c379a00000000000000000000000000000000000000000000000000000000081526004016114b790613894565b60405180910390fd5b6114ca60096116fd565b6114d4858261217d565b6114de818561219b565b7fca8605e5b2854022d4ef7e920a48b0c49ca69a8453970d922c3dd8b93057fa67818560405161150f929190613a98565b60405180910390a1809250505092915050565b61152b82610a4a565b61153c816115376117f9565b6118ba565b6115468383611d72565b505050565b7f4636e38b5d73cef5ec0bdf8ec3e0565138a2bfe53888f9e988b51165659d842e61157d816115786117f9565b6118ba565b60005b83839050811015611613576116027fc10c77be35aff266144ed64c26a1fa104bae2f284ae99ac4a34203454704a1858585848181106115e8577f4e487b7100000000000000000000000000000000000000000000000000000000600052603260045260246000fd5b90506020020160208101906115fd9190612ef1565b611522565b8061160c90613e7a565b9050611580565b50505050565b6000600560008473ffffffffffffffffffffffffffffffffffffffff1673ffffffffffffffffffffffffffffffffffffffff16815260200190815260200160002060008373ffffffffffffffffffffffffffffffffffffffff1673ffffffffffffffffffffffffffffffffffffffff16815260200190815260200160002060009054906101000a900460ff16905092915050565b7fb9fb535eeef00914f0e629be8b6c1550a75e7adca17b4a272f7798bb710f25056116df816116da6117f9565b6118ba565b6000600a60016101000a81548160ff02191690831515021790555050565b6001816000016000828254019250508190555050565b60007f7965db0b000000000000000000000000000000000000000000000000000000007bffffffffffffffffffffffffffffffffffffffffffffffffffffffff1916827bffffffffffffffffffffffffffffffffffffffffffffffffffffffff1916148061178657506117858261220f565b5b9050919050565b60008073ffffffffffffffffffffffffffffffffffffffff166002600084815260200190815260200160002060009054906101000a900473ffffffffffffffffffffffffffffffffffffffff1673ffffffffffffffffffffffffffffffffffffffff1614159050919050565b600033905090565b816004600083815260200190815260200160002060006101000a81548173ffffffffffffffffffffffffffffffffffffffff021916908373ffffffffffffffffffffffffffffffffffffffff160217905550808273ffffffffffffffffffffffffffffffffffffffff1661187483610d46565b73ffffffffffffffffffffffffffffffffffffffff167f8c5be1e5ebec7d5bd14f71427d1e84f3dd0314c0f7b2291e5b200ac8c7c3b92560405160405180910390a45050565b6118c48282610f69565b611953576118e98173ffffffffffffffffffffffffffffffffffffffff1660146122f1565b6118f78360001c60206122f1565b6040516020016119089291906136c0565b6040516020818303038152906040526040517f08c379a000000000000000000000000000000000000000000000000000000000815260040161194a91906137b2565b60405180910390fd5b5050565b60006119628261178d565b6119a1576040517f08c379a0000000000000000000000000000000000000000000000000000000008152600401611998906138b4565b60405180910390fd5b60006119ac83610d46565b90508073ffffffffffffffffffffffffffffffffffffffff168473ffffffffffffffffffffffffffffffffffffffff161480611a1b57508373ffffffffffffffffffffffffffffffffffffffff16611a038461072f565b73ffffffffffffffffffffffffffffffffffffffff16145b80611a2c5750611a2b8185611619565b5b91505092915050565b8273ffffffffffffffffffffffffffffffffffffffff16611a5582610d46565b73ffffffffffffffffffffffffffffffffffffffff1614611aab576040517f08c379a0000000000000000000000000000000000000000000000000000000008152600401611aa2906139b4565b60405180910390fd5b600073ffffffffffffffffffffffffffffffffffffffff168273ffffffffffffffffffffffffffffffffffffffff161415611b1b576040517f08c379a0000000000000000000000000000000000000000000000000000000008152600401611b1290613834565b60405180910390fd5b611b268383836125eb565b611b31600082611801565b6001600360008573ffffffffffffffffffffffffffffffffffffffff1673ffffffffffffffffffffffffffffffffffffffff1681526020019081526020016000206000828254611b819190613cd5565b925050819055506001600360008473ffffffffffffffffffffffffffffffffffffffff1673ffffffffffffffffffffffffffffffffffffffff1681526020019081526020016000206000828254611bd89190613bf4565b92505081905550816002600083815260200190815260200160002060006101000a81548173ffffffffffffffffffffffffffffffffffffffff021916908373ffffffffffffffffffffffffffffffffffffffff160217905550808273ffffffffffffffffffffffffffffffffffffffff168473ffffffffffffffffffffffffffffffffffffffff167fddf252ad1be2c89b69c2b068fc378daa952ba7f163c4a11628f55a4df523b3ef60405160405180910390a4505050565b611c9b8282610f69565b611d6e5760016007600084815260200190815260200160002060000160008373ffffffffffffffffffffffffffffffffffffffff1673ffffffffffffffffffffffffffffffffffffffff16815260200190815260200160002060006101000a81548160ff021916908315150217905550611d136117f9565b73ffffffffffffffffffffffffffffffffffffffff168173ffffffffffffffffffffffffffffffffffffffff16837f2f8788117e7eff1d82e926ec794901d17c78024a50270940304540a733656f0d60405160405180910390a45b5050565b611d7c8282610f69565b15611e505760006007600084815260200190815260200160002060000160008373ffffffffffffffffffffffffffffffffffffffff1673ffffffffffffffffffffffffffffffffffffffff16815260200190815260200160002060006101000a81548160ff021916908315150217905550611df56117f9565b73ffffffffffffffffffffffffffffffffffffffff168173ffffffffffffffffffffffffffffffffffffffff16837ff6391f5c32d9c69d2a47ea670b442974b53935d1edc7fd64eb21e047a839171b60405160405180910390a45b5050565b8173ffffffffffffffffffffffffffffffffffffffff168373ffffffffffffffffffffffffffffffffffffffff161415611ec3576040517f08c379a0000000000000000000000000000000000000000000000000000000008152600401611eba90613854565b60405180910390fd5b80600560008573ffffffffffffffffffffffffffffffffffffffff1673ffffffffffffffffffffffffffffffffffffffff16815260200190815260200160002060008473ffffffffffffffffffffffffffffffffffffffff1673ffffffffffffffffffffffffffffffffffffffff16815260200190815260200160002060006101000a81548160ff0219169083151502179055508173ffffffffffffffffffffffffffffffffffffffff168373ffffffffffffffffffffffffffffffffffffffff167f17307eab39ab6107e8899845ad3d59bd9653f200f220920489ca2b5937696c3183604051611fb49190613761565b60405180910390a3505050565b611fcc848484611a35565b611fd8848484846125f0565b612017576040517f08c379a000000000000000000000000000000000000000000000000000000000815260040161200e906137f4565b60405180910390fd5b50505050565b60606120288261178d565b612067576040517f08c379a000000000000000000000000000000000000000000000000000000000815260040161205e90613974565b60405180910390fd5b600060066000848152602001908152602001600020805461208790613e17565b80601f01602080910402602001604051908101604052809291908181526020018280546120b390613e17565b80156121005780601f106120d557610100808354040283529160200191612100565b820191906000526020600020905b8154815290600101906020018083116120e357829003601f168201915b505050505090506000612111612787565b905060008151141561212757819250505061216a565b60008251111561215c57808260405160200161214492919061369c565b6040516020818303038152906040529250505061216a565b6121658461279e565b925050505b919050565b600081600001549050919050565b612197828260405180602001604052806000815250612845565b5050565b6121a48261178d565b6121e3576040517f08c379a00000000000000000000000000000000000000000000000000000000081526004016121da90613934565b60405180910390fd5b8060066000848152602001908152602001600020908051906020019061220a929190612c98565b505050565b60007f80ac58cd000000000000000000000000000000000000000000000000000000007bffffffffffffffffffffffffffffffffffffffffffffffffffffffff1916827bffffffffffffffffffffffffffffffffffffffffffffffffffffffff191614806122da57507f5b5e139f000000000000000000000000000000000000000000000000000000007bffffffffffffffffffffffffffffffffffffffffffffffffffffffff1916827bffffffffffffffffffffffffffffffffffffffffffffffffffffffff1916145b806122ea57506122e9826128a0565b5b9050919050565b6060600060028360026123049190613c7b565b61230e9190613bf4565b67ffffffffffffffff81111561234d577f4e487b7100000000000000000000000000000000000000000000000000000000600052604160045260246000fd5b6040519080825280601f01601f19166020018201604052801561237f5781602001600182028036833780820191505090505b5090507f3000000000000000000000000000000000000000000000000000000000000000816000815181106123dd577f4e487b7100000000000000000000000000000000000000000000000000000000600052603260045260246000fd5b60200101907effffffffffffffffffffffffffffffffffffffffffffffffffffffffffffff1916908160001a9053507f780000000000000000000000000000000000000000000000000000000000000081600181518110612467577f4e487b7100000000000000000000000000000000000000000000000000000000600052603260045260246000fd5b60200101907effffffffffffffffffffffffffffffffffffffffffffffffffffffffffffff1916908160001a905350600060018460026124a79190613c7b565b6124b19190613bf4565b90505b600181111561259d577f3031323334353637383961626364656600000000000000000000000000000000600f861660108110612519577f4e487b7100000000000000000000000000000000000000000000000000000000600052603260045260246000fd5b1a60f81b828281518110612556577f4e487b7100000000000000000000000000000000000000000000000000000000600052603260045260246000fd5b60200101907effffffffffffffffffffffffffffffffffffffffffffffffffffffffffffff1916908160001a905350600485901c94508061259690613ded565b90506124b4565b50600084146125e1576040517f08c379a00000000000000000000000000000000000000000000000000000000081526004016125d8906137d4565b60405180910390fd5b8091505092915050565b505050565b60006126118473ffffffffffffffffffffffffffffffffffffffff1661290a565b1561277a578373ffffffffffffffffffffffffffffffffffffffff1663150b7a0261263a6117f9565b8786866040518563ffffffff1660e01b815260040161265c9493929190613715565b602060405180830381600087803b15801561267657600080fd5b505af19250505080156126a757506040513d601f19601f820116820180604052508101906126a491906131bf565b60015b61272a573d80600081146126d7576040519150601f19603f3d011682016040523d82523d6000602084013e6126dc565b606091505b50600081511415612722576040517f08c379a0000000000000000000000000000000000000000000000000000000008152600401612719906137f4565b60405180910390fd5b805181602001fd5b63150b7a0260e01b7bffffffffffffffffffffffffffffffffffffffffffffffffffffffff1916817bffffffffffffffffffffffffffffffffffffffffffffffffffffffff19161491505061277f565b600190505b949350505050565b606060405180602001604052806000815250905090565b60606127a98261178d565b6127e8576040517f08c379a00000000000000000000000000000000000000000000000000000000081526004016127df906139d4565b60405180910390fd5b60006127f2612787565b90506000815111612812576040518060200160405280600081525061283d565b8061281c8461291d565b60405160200161282d92919061369c565b6040516020818303038152906040525b915050919050565b61284f8383612aca565b61285c60008484846125f0565b61289b576040517f08c379a0000000000000000000000000000000000000000000000000000000008152600401612892906137f4565b60405180910390fd5b505050565b60007f01ffc9a7000000000000000000000000000000000000000000000000000000007bffffffffffffffffffffffffffffffffffffffffffffffffffffffff1916827bffffffffffffffffffffffffffffffffffffffffffffffffffffffff1916149050919050565b600080823b905060008111915050919050565b60606000821415612965576040518060400160405280600181526020017f30000000000000000000000000000000000000000000000000000000000000008152509050612ac5565b600082905060005b6000821461299757808061298090613e7a565b915050600a826129909190613c4a565b915061296d565b60008167ffffffffffffffff8111156129d9577f4e487b7100000000000000000000000000000000000000000000000000000000600052604160045260246000fd5b6040519080825280601f01601f191660200182016040528015612a0b5781602001600182028036833780820191505090505b5090505b60008514612abe57600182612a249190613cd5565b9150600a85612a339190613ec3565b6030612a3f9190613bf4565b60f81b818381518110612a7b577f4e487b7100000000000000000000000000000000000000000000000000000000600052603260045260246000fd5b60200101907effffffffffffffffffffffffffffffffffffffffffffffffffffffffffffff1916908160001a905350600a85612ab79190613c4a565b9450612a0f565b8093505050505b919050565b600073ffffffffffffffffffffffffffffffffffffffff168273ffffffffffffffffffffffffffffffffffffffff161415612b3a576040517f08c379a0000000000000000000000000000000000000000000000000000000008152600401612b3190613954565b60405180910390fd5b612b438161178d565b15612b83576040517f08c379a0000000000000000000000000000000000000000000000000000000008152600401612b7a90613814565b60405180910390fd5b612b8f600083836125eb565b6001600360008473ffffffffffffffffffffffffffffffffffffffff1673ffffffffffffffffffffffffffffffffffffffff1681526020019081526020016000206000828254612bdf9190613bf4565b92505081905550816002600083815260200190815260200160002060006101000a81548173ffffffffffffffffffffffffffffffffffffffff021916908373ffffffffffffffffffffffffffffffffffffffff160217905550808273ffffffffffffffffffffffffffffffffffffffff16600073ffffffffffffffffffffffffffffffffffffffff167fddf252ad1be2c89b69c2b068fc378daa952ba7f163c4a11628f55a4df523b3ef60405160405180910390a45050565b828054612ca490613e17565b90600052602060002090601f016020900481019282612cc65760008555612d0d565b82601f10612cdf57805160ff1916838001178555612d0d565b82800160010185558215612d0d579182015b82811115612d0c578251825591602001919060010190612cf1565b5b509050612d1a9190612d1e565b5090565b5b80821115612d37576000816000905550600101612d1f565b5090565b6000612d4e612d4984613b4f565b613b2a565b905082815260208101848484011115612d6657600080fd5b612d71848285613dab565b509392505050565b6000612d8c612d8784613b80565b613b2a565b905082815260208101848484011115612da457600080fd5b612daf848285613dab565b509392505050565b600081359050612dc68161455b565b92915050565b60008083601f840112612dde57600080fd5b8235905067ffffffffffffffff811115612df757600080fd5b602083019150836020820283011115612e0f57600080fd5b9250929050565b600081905082602060080282011115612e2e57600080fd5b92915050565b600081359050612e4381614572565b92915050565b600081359050612e5881614589565b92915050565b600081359050612e6d816145a0565b92915050565b600081519050612e82816145a0565b92915050565b600082601f830112612e9957600080fd5b8135612ea9848260208601612d3b565b91505092915050565b600082601f830112612ec357600080fd5b8135612ed3848260208601612d79565b91505092915050565b600081359050612eeb816145b7565b92915050565b600060208284031215612f0357600080fd5b6000612f1184828501612db7565b91505092915050565b60008060408385031215612f2d57600080fd5b6000612f3b85828601612db7565b9250506020612f4c85828601612db7565b9150509250929050565b600080600060608486031215612f6b57600080fd5b6000612f7986828701612db7565b9350506020612f8a86828701612db7565b9250506040612f9b86828701612edc565b9150509250925092565b60008060008060808587031215612fbb57600080fd5b6000612fc987828801612db7565b9450506020612fda87828801612db7565b9350506040612feb87828801612edc565b925050606085013567ffffffffffffffff81111561300857600080fd5b61301487828801612e88565b91505092959194509250565b6000806040838503121561303357600080fd5b600061304185828601612db7565b925050602061305285828601612e34565b9150509250929050565b6000806040838503121561306f57600080fd5b600061307d85828601612db7565b925050602083013567ffffffffffffffff81111561309a57600080fd5b6130a685828601612eb2565b9150509250929050565b600080604083850312156130c357600080fd5b60006130d185828601612db7565b92505060206130e285828601612edc565b9150509250929050565b600080602083850312156130ff57600080fd5b600083013567ffffffffffffffff81111561311957600080fd5b61312585828601612dcc565b92509250509250929050565b60006020828403121561314357600080fd5b600061315184828501612e49565b91505092915050565b6000806040838503121561316d57600080fd5b600061317b85828601612e49565b925050602061318c85828601612db7565b9150509250929050565b6000602082840312156131a857600080fd5b60006131b684828501612e5e565b91505092915050565b6000602082840312156131d157600080fd5b60006131df84828501612e73565b91505092915050565b6000602082840312156131fa57600080fd5b600061320884828501612edc565b91505092915050565b6000806000806000806101a0878903121561322b57600080fd5b600061323989828a01612edc565b965050602061324a89828a01612edc565b955050604061325b89828a01612edc565b945050606061326c89828a01612e49565b935050608061327d89828a01612edc565b92505060a061328e89828a01612e16565b9150509295509295509295565b6132a481613d09565b82525050565b6132b76101008383613dab565b5050565b6132c481613d1b565b82525050565b6132d381613d27565b82525050565b60006132e482613bb1565b6132ee8185613bc7565b93506132fe818560208601613dba565b61330781613fb0565b840191505092915050565b61331b81613d87565b82525050565b600061332c82613bbc565b6133368185613bd8565b9350613346818560208601613dba565b61334f81613fb0565b840191505092915050565b600061336582613bbc565b61336f8185613be9565b935061337f818560208601613dba565b80840191505092915050565b6000613398602083613bd8565b91506133a382613fc1565b602082019050919050565b60006133bb603283613bd8565b91506133c682613fea565b604082019050919050565b60006133de601c83613bd8565b91506133e982614039565b602082019050919050565b6000613401602483613bd8565b915061340c82614062565b604082019050919050565b6000613424601983613bd8565b915061342f826140b1565b602082019050919050565b6000613447601183613bd8565b9150613452826140da565b602082019050919050565b600061346a601283613bd8565b915061347582614103565b602082019050919050565b600061348d602c83613bd8565b91506134988261412c565b604082019050919050565b60006134b0603883613bd8565b91506134bb8261417b565b604082019050919050565b60006134d3602a83613bd8565b91506134de826141ca565b604082019050919050565b60006134f6602983613bd8565b915061350182614219565b604082019050919050565b6000613519602e83613bd8565b915061352482614268565b604082019050919050565b600061353c602083613bd8565b9150613547826142b7565b602082019050919050565b600061355f603183613bd8565b915061356a826142e0565b604082019050919050565b6000613582602c83613bd8565b915061358d8261432f565b604082019050919050565b60006135a5602983613bd8565b91506135b08261437e565b604082019050919050565b60006135c8602f83613bd8565b91506135d3826143cd565b604082019050919050565b60006135eb602183613bd8565b91506135f68261441c565b604082019050919050565b600061360e603183613bd8565b91506136198261446b565b604082019050919050565b6000613631601783613be9565b915061363c826144ba565b601782019050919050565b6000613654601183613be9565b915061365f826144e3565b601182019050919050565b6000613677602f83613bd8565b91506136828261450c565b604082019050919050565b61369681613d7d565b82525050565b60006136a8828561335a565b91506136b4828461335a565b91508190509392505050565b60006136cb82613624565b91506136d7828561335a565b91506136e282613647565b91506136ee828461335a565b91508190509392505050565b600060208201905061370f600083018461329b565b92915050565b600060808201905061372a600083018761329b565b613737602083018661329b565b613744604083018561368d565b818103606083015261375681846132d9565b905095945050505050565b600060208201905061377660008301846132bb565b92915050565b600060208201905061379160008301846132ca565b92915050565b60006020820190506137ac6000830184613312565b92915050565b600060208201905081810360008301526137cc8184613321565b905092915050565b600060208201905081810360008301526137ed8161338b565b9050919050565b6000602082019050818103600083015261380d816133ae565b9050919050565b6000602082019050818103600083015261382d816133d1565b9050919050565b6000602082019050818103600083015261384d816133f4565b9050919050565b6000602082019050818103600083015261386d81613417565b9050919050565b6000602082019050818103600083015261388d8161343a565b9050919050565b600060208201905081810360008301526138ad8161345d565b9050919050565b600060208201905081810360008301526138cd81613480565b9050919050565b600060208201905081810360008301526138ed816134a3565b9050919050565b6000602082019050818103600083015261390d816134c6565b9050919050565b6000602082019050818103600083015261392d816134e9565b9050919050565b6000602082019050818103600083015261394d8161350c565b9050919050565b6000602082019050818103600083015261396d8161352f565b9050919050565b6000602082019050818103600083015261398d81613552565b9050919050565b600060208201905081810360008301526139ad81613575565b9050919050565b600060208201905081810360008301526139cd81613598565b9050919050565b600060208201905081810360008301526139ed816135bb565b9050919050565b60006020820190508181036000830152613a0d816135de565b9050919050565b60006020820190508181036000830152613a2d81613601565b9050919050565b60006020820190508181036000830152613a4d8161366a565b9050919050565b6000602082019050613a69600083018461368d565b92915050565b6000604082019050613a84600083018561368d565b613a91602083018461329b565b9392505050565b6000604082019050613aad600083018561368d565b8181036020830152613abf8184613321565b90509392505050565b60006101a082019050613ade600083018961368d565b613aeb602083018861368d565b613af860408301876132ca565b613b05606083018661368d565b613b12608083018561368d565b613b1f60a08301846132aa565b979650505050505050565b6000613b34613b45565b9050613b408282613e49565b919050565b6000604051905090565b600067ffffffffffffffff821115613b6a57613b69613f81565b5b613b7382613fb0565b9050602081019050919050565b600067ffffffffffffffff821115613b9b57613b9a613f81565b5b613ba482613fb0565b9050602081019050919050565b600081519050919050565b600081519050919050565b600082825260208201905092915050565b600082825260208201905092915050565b600081905092915050565b6000613bff82613d7d565b9150613c0a83613d7d565b9250827fffffffffffffffffffffffffffffffffffffffffffffffffffffffffffffffff03821115613c3f57613c3e613ef4565b5b828201905092915050565b6000613c5582613d7d565b9150613c6083613d7d565b925082613c7057613c6f613f23565b5b828204905092915050565b6000613c8682613d7d565b9150613c9183613d7d565b9250817fffffffffffffffffffffffffffffffffffffffffffffffffffffffffffffffff0483118215151615613cca57613cc9613ef4565b5b828202905092915050565b6000613ce082613d7d565b9150613ceb83613d7d565b925082821015613cfe57613cfd613ef4565b5b828203905092915050565b6000613d1482613d5d565b9050919050565b60008115159050919050565b6000819050919050565b60007fffffffff0000000000000000000000000000000000000000000000000000000082169050919050565b600073ffffffffffffffffffffffffffffffffffffffff82169050919050565b6000819050919050565b6000613d9282613d99565b9050919050565b6000613da482613d5d565b9050919050565b82818337600083830152505050565b60005b83811015613dd8578082015181840152602081019050613dbd565b83811115613de7576000848401525b50505050565b6000613df882613d7d565b91506000821415613e0c57613e0b613ef4565b5b600182039050919050565b60006002820490506001821680613e2f57607f821691505b60208210811415613e4357613e42613f52565b5b50919050565b613e5282613fb0565b810181811067ffffffffffffffff82111715613e7157613e70613f81565b5b80604052505050565b6000613e8582613d7d565b91507fffffffffffffffffffffffffffffffffffffffffffffffffffffffffffffffff821415613eb857613eb7613ef4565b5b600182019050919050565b6000613ece82613d7d565b9150613ed983613d7d565b925082613ee957613ee8613f23565b5b828206905092915050565b7f4e487b7100000000000000000000000000000000000000000000000000000000600052601160045260246000fd5b7f4e487b7100000000000000000000000000000000000000000000000000000000600052601260045260246000fd5b7f4e487b7100000000000000000000000000000000000000000000000000000000600052602260045260246000fd5b7f4e487b7100000000000000000000000000000000000000000000000000000000600052604160045260246000fd5b6000601f19601f8301169050919050565b7f537472696e67733a20686578206c656e67746820696e73756666696369656e74600082015250565b7f4552433732313a207472616e7366657220746f206e6f6e20455243373231526560008201527f63656976657220696d706c656d656e7465720000000000000000000000000000602082015250565b7f4552433732313a20746f6b656e20616c7265616479206d696e74656400000000600082015250565b7f4552433732313a207472616e7366657220746f20746865207a65726f2061646460008201527f7265737300000000000000000000000000000000000000000000000000000000602082015250565b7f4552433732313a20617070726f766520746f2063616c6c657200000000000000600082015250565b7f566f74696e67206e6f7420616374697665000000000000000000000000000000600082015250565b7f4d696e74696e67206e6f74206163746976650000000000000000000000000000600082015250565b7f4552433732313a206f70657261746f7220717565727920666f72206e6f6e657860008201527f697374656e7420746f6b656e0000000000000000000000000000000000000000602082015250565b7f4552433732313a20617070726f76652063616c6c6572206973206e6f74206f7760008201527f6e6572206e6f7220617070726f76656420666f7220616c6c0000000000000000602082015250565b7f4552433732313a2062616c616e636520717565727920666f7220746865207a6560008201527f726f206164647265737300000000000000000000000000000000000000000000602082015250565b7f4552433732313a206f776e657220717565727920666f72206e6f6e657869737460008201527f656e7420746f6b656e0000000000000000000000000000000000000000000000602082015250565b7f45524337323155524953746f726167653a2055524920736574206f66206e6f6e60008201527f6578697374656e7420746f6b656e000000000000000000000000000000000000602082015250565b7f4552433732313a206d696e7420746f20746865207a65726f2061646472657373600082015250565b7f45524337323155524953746f726167653a2055524920717565727920666f722060008201527f6e6f6e6578697374656e7420746f6b656e000000000000000000000000000000602082015250565b7f4552433732313a20617070726f76656420717565727920666f72206e6f6e657860008201527f697374656e7420746f6b656e0000000000000000000000000000000000000000602082015250565b7f4552433732313a207472616e73666572206f6620746f6b656e2074686174206960008201527f73206e6f74206f776e0000000000000000000000000000000000000000000000602082015250565b7f4552433732314d657461646174613a2055524920717565727920666f72206e6f60008201527f6e6578697374656e7420746f6b656e0000000000000000000000000000000000602082015250565b7f4552433732313a20617070726f76616c20746f2063757272656e74206f776e6560008201527f7200000000000000000000000000000000000000000000000000000000000000602082015250565b7f4552433732313a207472616e736665722063616c6c6572206973206e6f74206f60008201527f776e6572206e6f7220617070726f766564000000000000000000000000000000602082015250565b7f416363657373436f6e74726f6c3a206163636f756e7420000000000000000000600082015250565b7f206973206d697373696e6720726f6c6520000000000000000000000000000000600082015250565b7f416363657373436f6e74726f6c3a2063616e206f6e6c792072656e6f756e636560008201527f20726f6c657320666f722073656c660000000000000000000000000000000000602082015250565b61456481613d09565b811461456f57600080fd5b50565b61457b81613d1b565b811461458657600080fd5b50565b61459281613d27565b811461459d57600080fd5b50565b6145a981613d31565b81146145b457600080fd5b50565b6145c081613d7d565b81146145cb57600080fd5b5056fea264697066735822122083add32c2246efa2e656c8130a6588476abedebb1f88f44769e2f52abc6b4c9664736f6c63430008040033",
  "linkReferences": {},
  "deployedLinkReferences": {}
}