{
    "_format": "hh-sol-artifact-1",
    "contractName": "TazArtwork",
    "sourceName": "contracts/TazArtwork.sol",
    "abi": [
        {
            "inputs": [
                {
                    "internalType": "contract ISemaphore",
                    "name": "semaContractAddr",
                    "type": "address"
                }
            ],
            "stateMutability": "nonpayable",
            "type": "constructor"
        },
        {
            "anonymous": false,
            "inputs": [
                {
                    "indexed": true,
                    "internalType": "address",
                    "name": "owner",
                    "type": "address"
                },
                {
                    "indexed": true,
                    "internalType": "address",
                    "name": "approved",
                    "type": "address"
                },
                {
                    "indexed": true,
                    "internalType": "uint256",
                    "name": "tokenId",
                    "type": "uint256"
                }
            ],
            "name": "Approval",
            "type": "event"
        },
        {
            "anonymous": false,
            "inputs": [
                {
                    "indexed": true,
                    "internalType": "address",
                    "name": "owner",
                    "type": "address"
                },
                {
                    "indexed": true,
                    "internalType": "address",
                    "name": "operator",
                    "type": "address"
                },
                {
                    "indexed": false,
                    "internalType": "bool",
                    "name": "approved",
                    "type": "bool"
                }
            ],
            "name": "ApprovalForAll",
            "type": "event"
        },
        {
            "anonymous": false,
            "inputs": [
                {
                    "indexed": false,
                    "internalType": "uint256",
                    "name": "tokenId",
                    "type": "uint256"
                },
                {
                    "indexed": false,
                    "internalType": "string",
                    "name": "uri",
                    "type": "string"
                },
                {
                    "indexed": false,
                    "internalType": "string",
                    "name": "imageId",
                    "type": "string"
                }
            ],
            "name": "NewToken",
            "type": "event"
        },
        {
            "anonymous": false,
            "inputs": [
                {
                    "indexed": true,
                    "internalType": "bytes32",
                    "name": "role",
                    "type": "bytes32"
                },
                {
                    "indexed": true,
                    "internalType": "bytes32",
                    "name": "previousAdminRole",
                    "type": "bytes32"
                },
                {
                    "indexed": true,
                    "internalType": "bytes32",
                    "name": "newAdminRole",
                    "type": "bytes32"
                }
            ],
            "name": "RoleAdminChanged",
            "type": "event"
        },
        {
            "anonymous": false,
            "inputs": [
                {
                    "indexed": true,
                    "internalType": "bytes32",
                    "name": "role",
                    "type": "bytes32"
                },
                {
                    "indexed": true,
                    "internalType": "address",
                    "name": "account",
                    "type": "address"
                },
                {
                    "indexed": true,
                    "internalType": "address",
                    "name": "sender",
                    "type": "address"
                }
            ],
            "name": "RoleGranted",
            "type": "event"
        },
        {
            "anonymous": false,
            "inputs": [
                {
                    "indexed": true,
                    "internalType": "bytes32",
                    "name": "role",
                    "type": "bytes32"
                },
                {
                    "indexed": true,
                    "internalType": "address",
                    "name": "account",
                    "type": "address"
                },
                {
                    "indexed": true,
                    "internalType": "address",
                    "name": "sender",
                    "type": "address"
                }
            ],
            "name": "RoleRevoked",
            "type": "event"
        },
        {
            "anonymous": false,
            "inputs": [
                {
                    "indexed": true,
                    "internalType": "address",
                    "name": "from",
                    "type": "address"
                },
                {
                    "indexed": true,
                    "internalType": "address",
                    "name": "to",
                    "type": "address"
                },
                {
                    "indexed": true,
                    "internalType": "uint256",
                    "name": "tokenId",
                    "type": "uint256"
                }
            ],
            "name": "Transfer",
            "type": "event"
        },
        {
            "anonymous": false,
            "inputs": [
                {
                    "indexed": false,
                    "internalType": "uint256",
                    "name": "tokenId",
                    "type": "uint256"
                },
                {
                    "indexed": false,
                    "internalType": "address",
                    "name": "reviewer",
                    "type": "address"
                }
            ],
            "name": "ViolationAdded",
            "type": "event"
        },
        {
            "anonymous": false,
            "inputs": [
                {
                    "indexed": false,
                    "internalType": "uint256",
                    "name": "tokenId",
                    "type": "uint256"
                }
            ],
            "name": "VoteAdded",
            "type": "event"
        },
        {
            "inputs": [],
            "name": "DEFAULT_ADMIN_ROLE",
            "outputs": [
                {
                    "internalType": "bytes32",
                    "name": "",
                    "type": "bytes32"
                }
            ],
            "stateMutability": "view",
            "type": "function"
        },
        {
            "inputs": [],
            "name": "REVIEWER_ROLE",
            "outputs": [
                {
                    "internalType": "bytes32",
                    "name": "",
                    "type": "bytes32"
                }
            ],
            "stateMutability": "view",
            "type": "function"
        },
        {
            "inputs": [],
            "name": "START_STOPPER_ROLE",
            "outputs": [
                {
                    "internalType": "bytes32",
                    "name": "",
                    "type": "bytes32"
                }
            ],
            "stateMutability": "view",
            "type": "function"
        },
        {
            "inputs": [],
            "name": "TAZ_ADMIN_ROLE",
            "outputs": [
                {
                    "internalType": "bytes32",
                    "name": "",
                    "type": "bytes32"
                }
            ],
            "stateMutability": "view",
            "type": "function"
        },
        {
            "inputs": [
                {
                    "internalType": "address[]",
                    "name": "admins",
                    "type": "address[]"
                }
            ],
            "name": "addAdmins",
            "outputs": [],
            "stateMutability": "nonpayable",
            "type": "function"
        },
        {
            "inputs": [
                {
                    "internalType": "address[]",
                    "name": "reviewers",
                    "type": "address[]"
                }
            ],
            "name": "addReviewers",
            "outputs": [],
            "stateMutability": "nonpayable",
            "type": "function"
        },
        {
            "inputs": [
                {
                    "internalType": "address[]",
                    "name": "startStoppers",
                    "type": "address[]"
                }
            ],
            "name": "addStartStoppers",
            "outputs": [],
            "stateMutability": "nonpayable",
            "type": "function"
        },
        {
            "inputs": [
                {
                    "internalType": "uint256",
                    "name": "tokenId",
                    "type": "uint256"
                }
            ],
            "name": "addViolation",
            "outputs": [],
            "stateMutability": "nonpayable",
            "type": "function"
        },
        {
            "inputs": [
                {
                    "internalType": "address",
                    "name": "to",
                    "type": "address"
                },
                {
                    "internalType": "uint256",
                    "name": "tokenId",
                    "type": "uint256"
                }
            ],
            "name": "approve",
            "outputs": [],
            "stateMutability": "nonpayable",
            "type": "function"
        },
        {
            "inputs": [
                {
                    "internalType": "address",
                    "name": "owner",
                    "type": "address"
                }
            ],
            "name": "balanceOf",
            "outputs": [
                {
                    "internalType": "uint256",
                    "name": "",
                    "type": "uint256"
                }
            ],
            "stateMutability": "view",
            "type": "function"
        },
        {
            "inputs": [
                {
                    "internalType": "uint256",
                    "name": "tokenId",
                    "type": "uint256"
                }
            ],
            "name": "getApproved",
            "outputs": [
                {
                    "internalType": "address",
                    "name": "",
                    "type": "address"
                }
            ],
            "stateMutability": "view",
            "type": "function"
        },
        {
            "inputs": [
                {
                    "internalType": "bytes32",
                    "name": "role",
                    "type": "bytes32"
                }
            ],
            "name": "getRoleAdmin",
            "outputs": [
                {
                    "internalType": "bytes32",
                    "name": "",
                    "type": "bytes32"
                }
            ],
            "stateMutability": "view",
            "type": "function"
        },
        {
            "inputs": [
                {
                    "internalType": "bytes32",
                    "name": "role",
                    "type": "bytes32"
                },
                {
                    "internalType": "address",
                    "name": "account",
                    "type": "address"
                }
            ],
            "name": "grantRole",
            "outputs": [],
            "stateMutability": "nonpayable",
            "type": "function"
        },
        {
            "inputs": [
                {
                    "internalType": "bytes32",
                    "name": "role",
                    "type": "bytes32"
                },
                {
                    "internalType": "address",
                    "name": "account",
                    "type": "address"
                }
            ],
            "name": "hasRole",
            "outputs": [
                {
                    "internalType": "bool",
                    "name": "",
                    "type": "bool"
                }
            ],
            "stateMutability": "view",
            "type": "function"
        },
        {
            "inputs": [
                {
                    "internalType": "address",
                    "name": "owner",
                    "type": "address"
                },
                {
                    "internalType": "address",
                    "name": "operator",
                    "type": "address"
                }
            ],
            "name": "isApprovedForAll",
            "outputs": [
                {
                    "internalType": "bool",
                    "name": "",
                    "type": "bool"
                }
            ],
            "stateMutability": "view",
            "type": "function"
        },
        {
            "inputs": [],
            "name": "name",
            "outputs": [
                {
                    "internalType": "string",
                    "name": "",
                    "type": "string"
                }
            ],
            "stateMutability": "view",
            "type": "function"
        },
        {
            "inputs": [
                {
                    "internalType": "uint256",
                    "name": "tokenId",
                    "type": "uint256"
                }
            ],
            "name": "ownerOf",
            "outputs": [
                {
                    "internalType": "address",
                    "name": "",
                    "type": "address"
                }
            ],
            "stateMutability": "view",
            "type": "function"
        },
        {
            "inputs": [
                {
                    "internalType": "address[]",
                    "name": "admins",
                    "type": "address[]"
                }
            ],
            "name": "removeAdmins",
            "outputs": [],
            "stateMutability": "nonpayable",
            "type": "function"
        },
        {
            "inputs": [
                {
                    "internalType": "address[]",
                    "name": "reviewers",
                    "type": "address[]"
                }
            ],
            "name": "removeReviewers",
            "outputs": [],
            "stateMutability": "nonpayable",
            "type": "function"
        },
        {
            "inputs": [
                {
                    "internalType": "address[]",
                    "name": "startStoppers",
                    "type": "address[]"
                }
            ],
            "name": "removeStartStoppers",
            "outputs": [],
            "stateMutability": "nonpayable",
            "type": "function"
        },
        {
            "inputs": [
                {
                    "internalType": "bytes32",
                    "name": "role",
                    "type": "bytes32"
                },
                {
                    "internalType": "address",
                    "name": "account",
                    "type": "address"
                }
            ],
            "name": "renounceRole",
            "outputs": [],
            "stateMutability": "nonpayable",
            "type": "function"
        },
        {
            "inputs": [
                {
                    "internalType": "bytes32",
                    "name": "role",
                    "type": "bytes32"
                },
                {
                    "internalType": "address",
                    "name": "account",
                    "type": "address"
                }
            ],
            "name": "revokeRole",
            "outputs": [],
            "stateMutability": "nonpayable",
            "type": "function"
        },
        {
            "inputs": [
                {
                    "internalType": "address",
                    "name": "to",
                    "type": "address"
                },
                {
                    "internalType": "string",
                    "name": "uri",
                    "type": "string"
                },
                {
                    "internalType": "string",
                    "name": "imageId",
                    "type": "string"
                }
            ],
            "name": "safeMint",
            "outputs": [
                {
                    "internalType": "uint256",
                    "name": "",
                    "type": "uint256"
                }
            ],
            "stateMutability": "nonpayable",
            "type": "function"
        },
        {
            "inputs": [
                {
                    "internalType": "address",
                    "name": "from",
                    "type": "address"
                },
                {
                    "internalType": "address",
                    "name": "to",
                    "type": "address"
                },
                {
                    "internalType": "uint256",
                    "name": "tokenId",
                    "type": "uint256"
                }
            ],
            "name": "safeTransferFrom",
            "outputs": [],
            "stateMutability": "nonpayable",
            "type": "function"
        },
        {
            "inputs": [
                {
                    "internalType": "address",
                    "name": "from",
                    "type": "address"
                },
                {
                    "internalType": "address",
                    "name": "to",
                    "type": "address"
                },
                {
                    "internalType": "uint256",
                    "name": "tokenId",
                    "type": "uint256"
                },
                {
                    "internalType": "bytes",
                    "name": "_data",
                    "type": "bytes"
                }
            ],
            "name": "safeTransferFrom",
            "outputs": [],
            "stateMutability": "nonpayable",
            "type": "function"
        },
        {
            "inputs": [],
            "name": "semaContract",
            "outputs": [
                {
                    "internalType": "contract ISemaphore",
                    "name": "",
                    "type": "address"
                }
            ],
            "stateMutability": "view",
            "type": "function"
        },
        {
            "inputs": [
                {
                    "internalType": "address",
                    "name": "operator",
                    "type": "address"
                },
                {
                    "internalType": "bool",
                    "name": "approved",
                    "type": "bool"
                }
            ],
            "name": "setApprovalForAll",
            "outputs": [],
            "stateMutability": "nonpayable",
            "type": "function"
        },
        {
            "inputs": [],
            "name": "startMinting",
            "outputs": [],
            "stateMutability": "nonpayable",
            "type": "function"
        },
        {
            "inputs": [],
            "name": "startVoting",
            "outputs": [],
            "stateMutability": "nonpayable",
            "type": "function"
        },
        {
            "inputs": [],
            "name": "stopMinting",
            "outputs": [],
            "stateMutability": "nonpayable",
            "type": "function"
        },
        {
            "inputs": [],
            "name": "stopVoting",
            "outputs": [],
            "stateMutability": "nonpayable",
            "type": "function"
        },
        {
            "inputs": [
                {
                    "internalType": "bytes4",
                    "name": "interfaceId",
                    "type": "bytes4"
                }
            ],
            "name": "supportsInterface",
            "outputs": [
                {
                    "internalType": "bool",
                    "name": "",
                    "type": "bool"
                }
            ],
            "stateMutability": "view",
            "type": "function"
        },
        {
            "inputs": [],
            "name": "symbol",
            "outputs": [
                {
                    "internalType": "string",
                    "name": "",
                    "type": "string"
                }
            ],
            "stateMutability": "view",
            "type": "function"
        },
        {
            "inputs": [
                {
                    "internalType": "uint256",
                    "name": "tokenId",
                    "type": "uint256"
                }
            ],
            "name": "tokenURI",
            "outputs": [
                {
                    "internalType": "string",
                    "name": "",
                    "type": "string"
                }
            ],
            "stateMutability": "view",
            "type": "function"
        },
        {
            "inputs": [
                {
                    "internalType": "address",
                    "name": "from",
                    "type": "address"
                },
                {
                    "internalType": "address",
                    "name": "to",
                    "type": "address"
                },
                {
                    "internalType": "uint256",
                    "name": "tokenId",
                    "type": "uint256"
                }
            ],
            "name": "transferFrom",
            "outputs": [],
            "stateMutability": "nonpayable",
            "type": "function"
        },
        {
            "inputs": [
                {
                    "internalType": "uint256",
                    "name": "tokenId",
                    "type": "uint256"
                },
                {
                    "internalType": "uint256",
                    "name": "groupId",
                    "type": "uint256"
                },
                {
                    "internalType": "uint256",
                    "name": "merkleTreeRoot",
                    "type": "uint256"
                },
                {
                    "internalType": "bytes32",
                    "name": "signal",
                    "type": "bytes32"
                },
                {
                    "internalType": "uint256",
                    "name": "nullifierHash",
                    "type": "uint256"
                },
                {
                    "internalType": "uint256[8]",
                    "name": "proof",
                    "type": "uint256[8]"
                }
            ],
            "name": "vote",
            "outputs": [],
            "stateMutability": "nonpayable",
            "type": "function"
        }
    ],
    "bytecode": "0x60806040523480156200001157600080fd5b5060405162004c8438038062004c8483398181016040528101906200003791906200053a565b6040518060400160405280600a81526020017f54617a417274776f726b000000000000000000000000000000000000000000008152506040518060400160405280600381526020017f54415a00000000000000000000000000000000000000000000000000000000008152508160009080519060200190620000bb92919062000473565b508060019080519060200190620000d492919062000473565b50505080600860006101000a81548173ffffffffffffffffffffffffffffffffffffffff021916908373ffffffffffffffffffffffffffffffffffffffff1602179055506200014a7f4636e38b5d73cef5ec0bdf8ec3e0565138a2bfe53888f9e988b51165659d842e806200027460201b60201c565b6200019c7fc10c77be35aff266144ed64c26a1fa104bae2f284ae99ac4a34203454704a1857f4636e38b5d73cef5ec0bdf8ec3e0565138a2bfe53888f9e988b51165659d842e6200027460201b60201c565b620001ee7fb9fb535eeef00914f0e629be8b6c1550a75e7adca17b4a272f7798bb710f25057f4636e38b5d73cef5ec0bdf8ec3e0565138a2bfe53888f9e988b51165659d842e6200027460201b60201c565b620002207f4636e38b5d73cef5ec0bdf8ec3e0565138a2bfe53888f9e988b51165659d842e33620002d860201b60201c565b6001600a60006101000a81548160ff0219169083151502179055506000600a60016101000a81548160ff0219169083151502179055506200026d6009620003ca60201b620017001760201c565b506200062d565b60006200028783620003e060201b60201c565b90508160076000858152602001908152602001600020600101819055508181847fbd79b86ffe0ab8e8776151514217cd7cacd52c909f66475c3af44e129f0b00ff60405160405180910390a4505050565b620002ea82826200040060201b60201c565b620003c65760016007600084815260200190815260200160002060000160008373ffffffffffffffffffffffffffffffffffffffff1673ffffffffffffffffffffffffffffffffffffffff16815260200190815260200160002060006101000a81548160ff0219169083151502179055506200036b6200046b60201b60201c565b73ffffffffffffffffffffffffffffffffffffffff168173ffffffffffffffffffffffffffffffffffffffff16837f2f8788117e7eff1d82e926ec794901d17c78024a50270940304540a733656f0d60405160405180910390a45b5050565b6001816000016000828254019250508190555050565b600060076000838152602001908152602001600020600101549050919050565b60006007600084815260200190815260200160002060000160008373ffffffffffffffffffffffffffffffffffffffff1673ffffffffffffffffffffffffffffffffffffffff16815260200190815260200160002060009054906101000a900460ff16905092915050565b600033905090565b8280546200048190620005ae565b90600052602060002090601f016020900481019282620004a55760008555620004f1565b82601f10620004c057805160ff1916838001178555620004f1565b82800160010185558215620004f1579182015b82811115620004f0578251825591602001919060010190620004d3565b5b50905062000500919062000504565b5090565b5b808211156200051f57600081600090555060010162000505565b5090565b600081519050620005348162000613565b92915050565b6000602082840312156200054d57600080fd5b60006200055d8482850162000523565b91505092915050565b600062000573826200058e565b9050919050565b6000620005878262000566565b9050919050565b600073ffffffffffffffffffffffffffffffffffffffff82169050919050565b60006002820490506001821680620005c757607f821691505b60208210811415620005de57620005dd620005e4565b5b50919050565b7f4e487b7100000000000000000000000000000000000000000000000000000000600052602260045260246000fd5b6200061e816200057a565b81146200062a57600080fd5b50565b614647806200063d6000396000f3fe608060405234801561001057600080fd5b506004361061021c5760003560e01c8063785b55f811610125578063acc3f1ed116100ad578063d547741f1161007c578063d547741f146105e9578063d6b91e9f14610605578063e985e9c514610621578063eca81d4214610651578063fab2f86b146106815761021c565b8063acc3f1ed14610563578063b88d4fde14610581578063c61e84da1461059d578063c87b56dd146105b95761021c565b80639a65ea26116100f45780639a65ea26146104e75780639c3ad74a146104f15780639c54df641461050d578063a217fddf14610529578063a22cb465146105475761021c565b8063785b55f81461045d5780638a8deed71461047b57806391d148541461049957806395d89b41146104c95761021c565b806336568abe116101a857806342842e0e1161017757806342842e0e146103a9578063490ed5d3146103c55780636352211e146103e15780636db926661461041157806370a082311461042d5761021c565b806336568abe14610349578063377e11e0146103655780633b129a56146103815780633e3e0b121461039f5761021c565b806317147064116101ef57806317147064146102bb5780631ec6b60a146102d757806323b872dd146102e1578063248a9ca3146102fd5780632f2ff15d1461032d5761021c565b806301ffc9a71461022157806306fdde0314610251578063081812fc1461026f578063095ea7b31461029f575b600080fd5b61023b600480360381019061023691906131c4565b61068b565b604051610248919061378f565b60405180910390f35b61025961069d565b60405161026691906137e0565b60405180910390f35b61028960048036038101906102849190613216565b61072f565b6040516102969190613728565b60405180910390f35b6102b960048036038101906102b491906130de565b6107b4565b005b6102d560048036038101906102d0919061311a565b6108cc565b005b6102df61099a565b005b6102fb60048036038101906102f69190612f59565b6109ea565b005b6103176004803603810190610312919061315f565b610a4a565b60405161032491906137aa565b60405180910390f35b61034760048036038101906103429190613188565b610a6a565b005b610363600480360381019061035e9190613188565b610a93565b005b61037f600480360381019061037a919061311a565b610b16565b005b610389610be4565b60405161039691906137aa565b60405180910390f35b6103a7610c08565b005b6103c360048036038101906103be9190612f59565b610c58565b005b6103df60048036038101906103da919061311a565b610c78565b005b6103fb60048036038101906103f69190613216565b610d46565b6040516104089190613728565b60405180910390f35b61042b60048036038101906104269190613216565b610df8565b005b61044760048036038101906104429190612ef4565b610e67565b6040516104549190613a82565b60405180910390f35b610465610f1f565b60405161047291906137aa565b60405180910390f35b610483610f43565b60405161049091906137c5565b60405180910390f35b6104b360048036038101906104ae9190613188565b610f69565b6040516104c0919061378f565b60405180910390f35b6104d1610fd4565b6040516104de91906137e0565b60405180910390f35b6104ef611066565b005b61050b6004803603810190610506919061311a565b6110b6565b005b6105276004803603810190610522919061311a565b611184565b005b610531611252565b60405161053e91906137aa565b60405180910390f35b610561600480360381019061055c9190613023565b611259565b005b61056b61126f565b60405161057891906137aa565b60405180910390f35b61059b60048036038101906105969190612fa8565b611293565b005b6105b760048036038101906105b2919061323f565b6112f5565b005b6105d360048036038101906105ce9190613216565b61141d565b6040516105e091906137e0565b60405180910390f35b61060360048036038101906105fe9190613188565b61142f565b005b61061f600480360381019061061a919061311a565b611458565b005b61063b60048036038101906106369190612f1d565b611526565b604051610648919061378f565b60405180910390f35b61066b6004803603810190610666919061305f565b6115ba565b6040516106789190613a82565b60405180910390f35b6106896116b0565b005b600061069682611716565b9050919050565b6060600080546106ac90613e5a565b80601f01602080910402602001604051908101604052809291908181526020018280546106d890613e5a565b80156107255780601f106106fa57610100808354040283529160200191610725565b820191906000526020600020905b81548152906001019060200180831161070857829003601f168201915b5050505050905090565b600061073a82611790565b610779576040517f08c379a0000000000000000000000000000000000000000000000000000000008152600401610770906139c2565b60405180910390fd5b6004600083815260200190815260200160002060009054906101000a900473ffffffffffffffffffffffffffffffffffffffff169050919050565b60006107bf82610d46565b90508073ffffffffffffffffffffffffffffffffffffffff168373ffffffffffffffffffffffffffffffffffffffff161415610830576040517f08c379a000000000000000000000000000000000000000000000000000000000815260040161082790613a22565b60405180910390fd5b8073ffffffffffffffffffffffffffffffffffffffff1661084f6117fc565b73ffffffffffffffffffffffffffffffffffffffff16148061087e575061087d816108786117fc565b611526565b5b6108bd576040517f08c379a00000000000000000000000000000000000000000000000000000000081526004016108b490613902565b60405180910390fd5b6108c78383611804565b505050565b7f4636e38b5d73cef5ec0bdf8ec3e0565138a2bfe53888f9e988b51165659d842e6108fe816108f96117fc565b6118bd565b60005b83839050811015610994576109837fc10c77be35aff266144ed64c26a1fa104bae2f284ae99ac4a34203454704a185858584818110610969577f4e487b7100000000000000000000000000000000000000000000000000000000600052603260045260246000fd5b905060200201602081019061097e9190612ef4565b610a6a565b8061098d90613ebd565b9050610901565b50505050565b7fb9fb535eeef00914f0e629be8b6c1550a75e7adca17b4a272f7798bb710f25056109cc816109c76117fc565b6118bd565b6001600a60016101000a81548160ff02191690831515021790555050565b6109fb6109f56117fc565b8261195a565b610a3a576040517f08c379a0000000000000000000000000000000000000000000000000000000008152600401610a3190613a42565b60405180910390fd5b610a45838383611a38565b505050565b600060076000838152602001908152602001600020600101549050919050565b610a7382610a4a565b610a8481610a7f6117fc565b6118bd565b610a8e8383611c94565b505050565b610a9b6117fc565b73ffffffffffffffffffffffffffffffffffffffff168173ffffffffffffffffffffffffffffffffffffffff1614610b08576040517f08c379a0000000000000000000000000000000000000000000000000000000008152600401610aff90613a62565b60405180910390fd5b610b128282611d75565b5050565b7f4636e38b5d73cef5ec0bdf8ec3e0565138a2bfe53888f9e988b51165659d842e610b4881610b436117fc565b6118bd565b60005b83839050811015610bde57610bcd7f4636e38b5d73cef5ec0bdf8ec3e0565138a2bfe53888f9e988b51165659d842e858584818110610bb3577f4e487b7100000000000000000000000000000000000000000000000000000000600052603260045260246000fd5b9050602002016020810190610bc89190612ef4565b61142f565b80610bd790613ebd565b9050610b4b565b50505050565b7fc10c77be35aff266144ed64c26a1fa104bae2f284ae99ac4a34203454704a18581565b7fb9fb535eeef00914f0e629be8b6c1550a75e7adca17b4a272f7798bb710f2505610c3a81610c356117fc565b6118bd565b6000600a60006101000a81548160ff02191690831515021790555050565b610c7383838360405180602001604052806000815250611293565b505050565b7f4636e38b5d73cef5ec0bdf8ec3e0565138a2bfe53888f9e988b51165659d842e610caa81610ca56117fc565b6118bd565b60005b83839050811015610d4057610d2f7fb9fb535eeef00914f0e629be8b6c1550a75e7adca17b4a272f7798bb710f2505858584818110610d15577f4e487b7100000000000000000000000000000000000000000000000000000000600052603260045260246000fd5b9050602002016020810190610d2a9190612ef4565b61142f565b80610d3990613ebd565b9050610cad565b50505050565b6000806002600084815260200190815260200160002060009054906101000a900473ffffffffffffffffffffffffffffffffffffffff169050600073ffffffffffffffffffffffffffffffffffffffff168173ffffffffffffffffffffffffffffffffffffffff161415610def576040517f08c379a0000000000000000000000000000000000000000000000000000000008152600401610de690613942565b60405180910390fd5b80915050919050565b7fc10c77be35aff266144ed64c26a1fa104bae2f284ae99ac4a34203454704a185610e2a81610e256117fc565b6118bd565b7fb8c6b548b208fa5670169d9ffdd92678964b6298204949dc37fc1a882f8ae28b8233604051610e5b929190613a9d565b60405180910390a15050565b60008073ffffffffffffffffffffffffffffffffffffffff168273ffffffffffffffffffffffffffffffffffffffff161415610ed8576040517f08c379a0000000000000000000000000000000000000000000000000000000008152600401610ecf90613922565b60405180910390fd5b600360008373ffffffffffffffffffffffffffffffffffffffff1673ffffffffffffffffffffffffffffffffffffffff168152602001908152602001600020549050919050565b7f4636e38b5d73cef5ec0bdf8ec3e0565138a2bfe53888f9e988b51165659d842e81565b600860009054906101000a900473ffffffffffffffffffffffffffffffffffffffff1681565b60006007600084815260200190815260200160002060000160008373ffffffffffffffffffffffffffffffffffffffff1673ffffffffffffffffffffffffffffffffffffffff16815260200190815260200160002060009054906101000a900460ff16905092915050565b606060018054610fe390613e5a565b80601f016020809104026020016040519081016040528092919081815260200182805461100f90613e5a565b801561105c5780601f106110315761010080835404028352916020019161105c565b820191906000526020600020905b81548152906001019060200180831161103f57829003601f168201915b5050505050905090565b7fb9fb535eeef00914f0e629be8b6c1550a75e7adca17b4a272f7798bb710f2505611098816110936117fc565b6118bd565b6001600a60006101000a81548160ff02191690831515021790555050565b7f4636e38b5d73cef5ec0bdf8ec3e0565138a2bfe53888f9e988b51165659d842e6110e8816110e36117fc565b6118bd565b60005b8383905081101561117e5761116d7fb9fb535eeef00914f0e629be8b6c1550a75e7adca17b4a272f7798bb710f2505858584818110611153577f4e487b7100000000000000000000000000000000000000000000000000000000600052603260045260246000fd5b90506020020160208101906111689190612ef4565b610a6a565b8061117790613ebd565b90506110eb565b50505050565b7f4636e38b5d73cef5ec0bdf8ec3e0565138a2bfe53888f9e988b51165659d842e6111b6816111b16117fc565b6118bd565b60005b8383905081101561124c5761123b7f4636e38b5d73cef5ec0bdf8ec3e0565138a2bfe53888f9e988b51165659d842e858584818110611221577f4e487b7100000000000000000000000000000000000000000000000000000000600052603260045260246000fd5b90506020020160208101906112369190612ef4565b610a6a565b8061124590613ebd565b90506111b9565b50505050565b6000801b81565b61126b6112646117fc565b8383611e57565b5050565b7fb9fb535eeef00914f0e629be8b6c1550a75e7adca17b4a272f7798bb710f250581565b6112a461129e6117fc565b8361195a565b6112e3576040517f08c379a00000000000000000000000000000000000000000000000000000000081526004016112da90613a42565b60405180910390fd5b6112ef84848484611fc4565b50505050565b600a60019054906101000a900460ff16611344576040517f08c379a000000000000000000000000000000000000000000000000000000000815260040161133b906138a2565b60405180910390fd5b600860009054906101000a900473ffffffffffffffffffffffffffffffffffffffff1673ffffffffffffffffffffffffffffffffffffffff16638b69310a868686866201c19d876040518763ffffffff1660e01b81526004016113ac96959493929190613b0b565b600060405180830381600087803b1580156113c657600080fd5b505af11580156113da573d6000803e3d6000fd5b505050507fca4f4e617a82c74ac41214e7eeb397d2d16ca7807cc366995e9e52dc2b7a444d8660405161140d9190613a82565b60405180910390a1505050505050565b606061142882612020565b9050919050565b61143882610a4a565b611449816114446117fc565b6118bd565b6114538383611d75565b505050565b7f4636e38b5d73cef5ec0bdf8ec3e0565138a2bfe53888f9e988b51165659d842e61148a816114856117fc565b6118bd565b60005b838390508110156115205761150f7fc10c77be35aff266144ed64c26a1fa104bae2f284ae99ac4a34203454704a1858585848181106114f5577f4e487b7100000000000000000000000000000000000000000000000000000000600052603260045260246000fd5b905060200201602081019061150a9190612ef4565b61142f565b8061151990613ebd565b905061148d565b50505050565b6000600560008473ffffffffffffffffffffffffffffffffffffffff1673ffffffffffffffffffffffffffffffffffffffff16815260200190815260200160002060008373ffffffffffffffffffffffffffffffffffffffff1673ffffffffffffffffffffffffffffffffffffffff16815260200190815260200160002060009054906101000a900460ff16905092915050565b60007f4636e38b5d73cef5ec0bdf8ec3e0565138a2bfe53888f9e988b51165659d842e6115ee816115e96117fc565b6118bd565b60006115fa6009612172565b9050600a60009054906101000a900460ff1661164b576040517f08c379a0000000000000000000000000000000000000000000000000000000008152600401611642906138c2565b60405180910390fd5b6116556009611700565b61165f8682612180565b611669818661219e565b7fdc877ba4c5e3803661105673b262f4e47432432a6f3d91a0d0b0ac95bcf8a50781868660405161169c93929190613ac6565b60405180910390a180925050509392505050565b7fb9fb535eeef00914f0e629be8b6c1550a75e7adca17b4a272f7798bb710f25056116e2816116dd6117fc565b6118bd565b6000600a60016101000a81548160ff02191690831515021790555050565b6001816000016000828254019250508190555050565b60007f7965db0b000000000000000000000000000000000000000000000000000000007bffffffffffffffffffffffffffffffffffffffffffffffffffffffff1916827bffffffffffffffffffffffffffffffffffffffffffffffffffffffff19161480611789575061178882612212565b5b9050919050565b60008073ffffffffffffffffffffffffffffffffffffffff166002600084815260200190815260200160002060009054906101000a900473ffffffffffffffffffffffffffffffffffffffff1673ffffffffffffffffffffffffffffffffffffffff1614159050919050565b600033905090565b816004600083815260200190815260200160002060006101000a81548173ffffffffffffffffffffffffffffffffffffffff021916908373ffffffffffffffffffffffffffffffffffffffff160217905550808273ffffffffffffffffffffffffffffffffffffffff1661187783610d46565b73ffffffffffffffffffffffffffffffffffffffff167f8c5be1e5ebec7d5bd14f71427d1e84f3dd0314c0f7b2291e5b200ac8c7c3b92560405160405180910390a45050565b6118c78282610f69565b611956576118ec8173ffffffffffffffffffffffffffffffffffffffff1660146122f4565b6118fa8360001c60206122f4565b60405160200161190b9291906136ee565b6040516020818303038152906040526040517f08c379a000000000000000000000000000000000000000000000000000000000815260040161194d91906137e0565b60405180910390fd5b5050565b600061196582611790565b6119a4576040517f08c379a000000000000000000000000000000000000000000000000000000000815260040161199b906138e2565b60405180910390fd5b60006119af83610d46565b90508073ffffffffffffffffffffffffffffffffffffffff168473ffffffffffffffffffffffffffffffffffffffff161480611a1e57508373ffffffffffffffffffffffffffffffffffffffff16611a068461072f565b73ffffffffffffffffffffffffffffffffffffffff16145b80611a2f5750611a2e8185611526565b5b91505092915050565b8273ffffffffffffffffffffffffffffffffffffffff16611a5882610d46565b73ffffffffffffffffffffffffffffffffffffffff1614611aae576040517f08c379a0000000000000000000000000000000000000000000000000000000008152600401611aa5906139e2565b60405180910390fd5b600073ffffffffffffffffffffffffffffffffffffffff168273ffffffffffffffffffffffffffffffffffffffff161415611b1e576040517f08c379a0000000000000000000000000000000000000000000000000000000008152600401611b1590613862565b60405180910390fd5b611b298383836125ee565b611b34600082611804565b6001600360008573ffffffffffffffffffffffffffffffffffffffff1673ffffffffffffffffffffffffffffffffffffffff1681526020019081526020016000206000828254611b849190613d18565b925050819055506001600360008473ffffffffffffffffffffffffffffffffffffffff1673ffffffffffffffffffffffffffffffffffffffff1681526020019081526020016000206000828254611bdb9190613c37565b92505081905550816002600083815260200190815260200160002060006101000a81548173ffffffffffffffffffffffffffffffffffffffff021916908373ffffffffffffffffffffffffffffffffffffffff160217905550808273ffffffffffffffffffffffffffffffffffffffff168473ffffffffffffffffffffffffffffffffffffffff167fddf252ad1be2c89b69c2b068fc378daa952ba7f163c4a11628f55a4df523b3ef60405160405180910390a4505050565b611c9e8282610f69565b611d715760016007600084815260200190815260200160002060000160008373ffffffffffffffffffffffffffffffffffffffff1673ffffffffffffffffffffffffffffffffffffffff16815260200190815260200160002060006101000a81548160ff021916908315150217905550611d166117fc565b73ffffffffffffffffffffffffffffffffffffffff168173ffffffffffffffffffffffffffffffffffffffff16837f2f8788117e7eff1d82e926ec794901d17c78024a50270940304540a733656f0d60405160405180910390a45b5050565b611d7f8282610f69565b15611e535760006007600084815260200190815260200160002060000160008373ffffffffffffffffffffffffffffffffffffffff1673ffffffffffffffffffffffffffffffffffffffff16815260200190815260200160002060006101000a81548160ff021916908315150217905550611df86117fc565b73ffffffffffffffffffffffffffffffffffffffff168173ffffffffffffffffffffffffffffffffffffffff16837ff6391f5c32d9c69d2a47ea670b442974b53935d1edc7fd64eb21e047a839171b60405160405180910390a45b5050565b8173ffffffffffffffffffffffffffffffffffffffff168373ffffffffffffffffffffffffffffffffffffffff161415611ec6576040517f08c379a0000000000000000000000000000000000000000000000000000000008152600401611ebd90613882565b60405180910390fd5b80600560008573ffffffffffffffffffffffffffffffffffffffff1673ffffffffffffffffffffffffffffffffffffffff16815260200190815260200160002060008473ffffffffffffffffffffffffffffffffffffffff1673ffffffffffffffffffffffffffffffffffffffff16815260200190815260200160002060006101000a81548160ff0219169083151502179055508173ffffffffffffffffffffffffffffffffffffffff168373ffffffffffffffffffffffffffffffffffffffff167f17307eab39ab6107e8899845ad3d59bd9653f200f220920489ca2b5937696c3183604051611fb7919061378f565b60405180910390a3505050565b611fcf848484611a38565b611fdb848484846125f3565b61201a576040517f08c379a000000000000000000000000000000000000000000000000000000000815260040161201190613822565b60405180910390fd5b50505050565b606061202b82611790565b61206a576040517f08c379a0000000000000000000000000000000000000000000000000000000008152600401612061906139a2565b60405180910390fd5b600060066000848152602001908152602001600020805461208a90613e5a565b80601f01602080910402602001604051908101604052809291908181526020018280546120b690613e5a565b80156121035780601f106120d857610100808354040283529160200191612103565b820191906000526020600020905b8154815290600101906020018083116120e657829003601f168201915b50505050509050600061211461278a565b905060008151141561212a57819250505061216d565b60008251111561215f5780826040516020016121479291906136ca565b6040516020818303038152906040529250505061216d565b612168846127a1565b925050505b919050565b600081600001549050919050565b61219a828260405180602001604052806000815250612848565b5050565b6121a782611790565b6121e6576040517f08c379a00000000000000000000000000000000000000000000000000000000081526004016121dd90613962565b60405180910390fd5b8060066000848152602001908152602001600020908051906020019061220d929190612c9b565b505050565b60007f80ac58cd000000000000000000000000000000000000000000000000000000007bffffffffffffffffffffffffffffffffffffffffffffffffffffffff1916827bffffffffffffffffffffffffffffffffffffffffffffffffffffffff191614806122dd57507f5b5e139f000000000000000000000000000000000000000000000000000000007bffffffffffffffffffffffffffffffffffffffffffffffffffffffff1916827bffffffffffffffffffffffffffffffffffffffffffffffffffffffff1916145b806122ed57506122ec826128a3565b5b9050919050565b6060600060028360026123079190613cbe565b6123119190613c37565b67ffffffffffffffff811115612350577f4e487b7100000000000000000000000000000000000000000000000000000000600052604160045260246000fd5b6040519080825280601f01601f1916602001820160405280156123825781602001600182028036833780820191505090505b5090507f3000000000000000000000000000000000000000000000000000000000000000816000815181106123e0577f4e487b7100000000000000000000000000000000000000000000000000000000600052603260045260246000fd5b60200101907effffffffffffffffffffffffffffffffffffffffffffffffffffffffffffff1916908160001a9053507f78000000000000000000000000000000000000000000000000000000000000008160018151811061246a577f4e487b7100000000000000000000000000000000000000000000000000000000600052603260045260246000fd5b60200101907effffffffffffffffffffffffffffffffffffffffffffffffffffffffffffff1916908160001a905350600060018460026124aa9190613cbe565b6124b49190613c37565b90505b60018111156125a0577f3031323334353637383961626364656600000000000000000000000000000000600f86166010811061251c577f4e487b7100000000000000000000000000000000000000000000000000000000600052603260045260246000fd5b1a60f81b828281518110612559577f4e487b7100000000000000000000000000000000000000000000000000000000600052603260045260246000fd5b60200101907effffffffffffffffffffffffffffffffffffffffffffffffffffffffffffff1916908160001a905350600485901c94508061259990613e30565b90506124b7565b50600084146125e4576040517f08c379a00000000000000000000000000000000000000000000000000000000081526004016125db90613802565b60405180910390fd5b8091505092915050565b505050565b60006126148473ffffffffffffffffffffffffffffffffffffffff1661290d565b1561277d578373ffffffffffffffffffffffffffffffffffffffff1663150b7a0261263d6117fc565b8786866040518563ffffffff1660e01b815260040161265f9493929190613743565b602060405180830381600087803b15801561267957600080fd5b505af19250505080156126aa57506040513d601f19601f820116820180604052508101906126a791906131ed565b60015b61272d573d80600081146126da576040519150601f19603f3d011682016040523d82523d6000602084013e6126df565b606091505b50600081511415612725576040517f08c379a000000000000000000000000000000000000000000000000000000000815260040161271c90613822565b60405180910390fd5b805181602001fd5b63150b7a0260e01b7bffffffffffffffffffffffffffffffffffffffffffffffffffffffff1916817bffffffffffffffffffffffffffffffffffffffffffffffffffffffff191614915050612782565b600190505b949350505050565b606060405180602001604052806000815250905090565b60606127ac82611790565b6127eb576040517f08c379a00000000000000000000000000000000000000000000000000000000081526004016127e290613a02565b60405180910390fd5b60006127f561278a565b905060008151116128155760405180602001604052806000815250612840565b8061281f84612920565b6040516020016128309291906136ca565b6040516020818303038152906040525b915050919050565b6128528383612acd565b61285f60008484846125f3565b61289e576040517f08c379a000000000000000000000000000000000000000000000000000000000815260040161289590613822565b60405180910390fd5b505050565b60007f01ffc9a7000000000000000000000000000000000000000000000000000000007bffffffffffffffffffffffffffffffffffffffffffffffffffffffff1916827bffffffffffffffffffffffffffffffffffffffffffffffffffffffff1916149050919050565b600080823b905060008111915050919050565b60606000821415612968576040518060400160405280600181526020017f30000000000000000000000000000000000000000000000000000000000000008152509050612ac8565b600082905060005b6000821461299a57808061298390613ebd565b915050600a826129939190613c8d565b9150612970565b60008167ffffffffffffffff8111156129dc577f4e487b7100000000000000000000000000000000000000000000000000000000600052604160045260246000fd5b6040519080825280601f01601f191660200182016040528015612a0e5781602001600182028036833780820191505090505b5090505b60008514612ac157600182612a279190613d18565b9150600a85612a369190613f06565b6030612a429190613c37565b60f81b818381518110612a7e577f4e487b7100000000000000000000000000000000000000000000000000000000600052603260045260246000fd5b60200101907effffffffffffffffffffffffffffffffffffffffffffffffffffffffffffff1916908160001a905350600a85612aba9190613c8d565b9450612a12565b8093505050505b919050565b600073ffffffffffffffffffffffffffffffffffffffff168273ffffffffffffffffffffffffffffffffffffffff161415612b3d576040517f08c379a0000000000000000000000000000000000000000000000000000000008152600401612b3490613982565b60405180910390fd5b612b4681611790565b15612b86576040517f08c379a0000000000000000000000000000000000000000000000000000000008152600401612b7d90613842565b60405180910390fd5b612b92600083836125ee565b6001600360008473ffffffffffffffffffffffffffffffffffffffff1673ffffffffffffffffffffffffffffffffffffffff1681526020019081526020016000206000828254612be29190613c37565b92505081905550816002600083815260200190815260200160002060006101000a81548173ffffffffffffffffffffffffffffffffffffffff021916908373ffffffffffffffffffffffffffffffffffffffff160217905550808273ffffffffffffffffffffffffffffffffffffffff16600073ffffffffffffffffffffffffffffffffffffffff167fddf252ad1be2c89b69c2b068fc378daa952ba7f163c4a11628f55a4df523b3ef60405160405180910390a45050565b828054612ca790613e5a565b90600052602060002090601f016020900481019282612cc95760008555612d10565b82601f10612ce257805160ff1916838001178555612d10565b82800160010185558215612d10579182015b82811115612d0f578251825591602001919060010190612cf4565b5b509050612d1d9190612d21565b5090565b5b80821115612d3a576000816000905550600101612d22565b5090565b6000612d51612d4c84613b92565b613b6d565b905082815260208101848484011115612d6957600080fd5b612d74848285613dee565b509392505050565b6000612d8f612d8a84613bc3565b613b6d565b905082815260208101848484011115612da757600080fd5b612db2848285613dee565b509392505050565b600081359050612dc98161459e565b92915050565b60008083601f840112612de157600080fd5b8235905067ffffffffffffffff811115612dfa57600080fd5b602083019150836020820283011115612e1257600080fd5b9250929050565b600081905082602060080282011115612e3157600080fd5b92915050565b600081359050612e46816145b5565b92915050565b600081359050612e5b816145cc565b92915050565b600081359050612e70816145e3565b92915050565b600081519050612e85816145e3565b92915050565b600082601f830112612e9c57600080fd5b8135612eac848260208601612d3e565b91505092915050565b600082601f830112612ec657600080fd5b8135612ed6848260208601612d7c565b91505092915050565b600081359050612eee816145fa565b92915050565b600060208284031215612f0657600080fd5b6000612f1484828501612dba565b91505092915050565b60008060408385031215612f3057600080fd5b6000612f3e85828601612dba565b9250506020612f4f85828601612dba565b9150509250929050565b600080600060608486031215612f6e57600080fd5b6000612f7c86828701612dba565b9350506020612f8d86828701612dba565b9250506040612f9e86828701612edf565b9150509250925092565b60008060008060808587031215612fbe57600080fd5b6000612fcc87828801612dba565b9450506020612fdd87828801612dba565b9350506040612fee87828801612edf565b925050606085013567ffffffffffffffff81111561300b57600080fd5b61301787828801612e8b565b91505092959194509250565b6000806040838503121561303657600080fd5b600061304485828601612dba565b925050602061305585828601612e37565b9150509250929050565b60008060006060848603121561307457600080fd5b600061308286828701612dba565b935050602084013567ffffffffffffffff81111561309f57600080fd5b6130ab86828701612eb5565b925050604084013567ffffffffffffffff8111156130c857600080fd5b6130d486828701612eb5565b9150509250925092565b600080604083850312156130f157600080fd5b60006130ff85828601612dba565b925050602061311085828601612edf565b9150509250929050565b6000806020838503121561312d57600080fd5b600083013567ffffffffffffffff81111561314757600080fd5b61315385828601612dcf565b92509250509250929050565b60006020828403121561317157600080fd5b600061317f84828501612e4c565b91505092915050565b6000806040838503121561319b57600080fd5b60006131a985828601612e4c565b92505060206131ba85828601612dba565b9150509250929050565b6000602082840312156131d657600080fd5b60006131e484828501612e61565b91505092915050565b6000602082840312156131ff57600080fd5b600061320d84828501612e76565b91505092915050565b60006020828403121561322857600080fd5b600061323684828501612edf565b91505092915050565b6000806000806000806101a0878903121561325957600080fd5b600061326789828a01612edf565b965050602061327889828a01612edf565b955050604061328989828a01612edf565b945050606061329a89828a01612e4c565b93505060806132ab89828a01612edf565b92505060a06132bc89828a01612e19565b9150509295509295509295565b6132d281613d4c565b82525050565b6132e56101008383613dee565b5050565b6132f281613d5e565b82525050565b61330181613d6a565b82525050565b600061331282613bf4565b61331c8185613c0a565b935061332c818560208601613dfd565b61333581613ff3565b840191505092915050565b61334981613dca565b82525050565b600061335a82613bff565b6133648185613c1b565b9350613374818560208601613dfd565b61337d81613ff3565b840191505092915050565b600061339382613bff565b61339d8185613c2c565b93506133ad818560208601613dfd565b80840191505092915050565b60006133c6602083613c1b565b91506133d182614004565b602082019050919050565b60006133e9603283613c1b565b91506133f48261402d565b604082019050919050565b600061340c601c83613c1b565b91506134178261407c565b602082019050919050565b600061342f602483613c1b565b915061343a826140a5565b604082019050919050565b6000613452601983613c1b565b915061345d826140f4565b602082019050919050565b6000613475601183613c1b565b91506134808261411d565b602082019050919050565b6000613498601283613c1b565b91506134a382614146565b602082019050919050565b60006134bb602c83613c1b565b91506134c68261416f565b604082019050919050565b60006134de603883613c1b565b91506134e9826141be565b604082019050919050565b6000613501602a83613c1b565b915061350c8261420d565b604082019050919050565b6000613524602983613c1b565b915061352f8261425c565b604082019050919050565b6000613547602e83613c1b565b9150613552826142ab565b604082019050919050565b600061356a602083613c1b565b9150613575826142fa565b602082019050919050565b600061358d603183613c1b565b915061359882614323565b604082019050919050565b60006135b0602c83613c1b565b91506135bb82614372565b604082019050919050565b60006135d3602983613c1b565b91506135de826143c1565b604082019050919050565b60006135f6602f83613c1b565b915061360182614410565b604082019050919050565b6000613619602183613c1b565b91506136248261445f565b604082019050919050565b600061363c603183613c1b565b9150613647826144ae565b604082019050919050565b600061365f601783613c2c565b915061366a826144fd565b601782019050919050565b6000613682601183613c2c565b915061368d82614526565b601182019050919050565b60006136a5602f83613c1b565b91506136b08261454f565b604082019050919050565b6136c481613dc0565b82525050565b60006136d68285613388565b91506136e28284613388565b91508190509392505050565b60006136f982613652565b91506137058285613388565b915061371082613675565b915061371c8284613388565b91508190509392505050565b600060208201905061373d60008301846132c9565b92915050565b600060808201905061375860008301876132c9565b61376560208301866132c9565b61377260408301856136bb565b81810360608301526137848184613307565b905095945050505050565b60006020820190506137a460008301846132e9565b92915050565b60006020820190506137bf60008301846132f8565b92915050565b60006020820190506137da6000830184613340565b92915050565b600060208201905081810360008301526137fa818461334f565b905092915050565b6000602082019050818103600083015261381b816133b9565b9050919050565b6000602082019050818103600083015261383b816133dc565b9050919050565b6000602082019050818103600083015261385b816133ff565b9050919050565b6000602082019050818103600083015261387b81613422565b9050919050565b6000602082019050818103600083015261389b81613445565b9050919050565b600060208201905081810360008301526138bb81613468565b9050919050565b600060208201905081810360008301526138db8161348b565b9050919050565b600060208201905081810360008301526138fb816134ae565b9050919050565b6000602082019050818103600083015261391b816134d1565b9050919050565b6000602082019050818103600083015261393b816134f4565b9050919050565b6000602082019050818103600083015261395b81613517565b9050919050565b6000602082019050818103600083015261397b8161353a565b9050919050565b6000602082019050818103600083015261399b8161355d565b9050919050565b600060208201905081810360008301526139bb81613580565b9050919050565b600060208201905081810360008301526139db816135a3565b9050919050565b600060208201905081810360008301526139fb816135c6565b9050919050565b60006020820190508181036000830152613a1b816135e9565b9050919050565b60006020820190508181036000830152613a3b8161360c565b9050919050565b60006020820190508181036000830152613a5b8161362f565b9050919050565b60006020820190508181036000830152613a7b81613698565b9050919050565b6000602082019050613a9760008301846136bb565b92915050565b6000604082019050613ab260008301856136bb565b613abf60208301846132c9565b9392505050565b6000606082019050613adb60008301866136bb565b8181036020830152613aed818561334f565b90508181036040830152613b01818461334f565b9050949350505050565b60006101a082019050613b2160008301896136bb565b613b2e60208301886136bb565b613b3b60408301876132f8565b613b4860608301866136bb565b613b5560808301856136bb565b613b6260a08301846132d8565b979650505050505050565b6000613b77613b88565b9050613b838282613e8c565b919050565b6000604051905090565b600067ffffffffffffffff821115613bad57613bac613fc4565b5b613bb682613ff3565b9050602081019050919050565b600067ffffffffffffffff821115613bde57613bdd613fc4565b5b613be782613ff3565b9050602081019050919050565b600081519050919050565b600081519050919050565b600082825260208201905092915050565b600082825260208201905092915050565b600081905092915050565b6000613c4282613dc0565b9150613c4d83613dc0565b9250827fffffffffffffffffffffffffffffffffffffffffffffffffffffffffffffffff03821115613c8257613c81613f37565b5b828201905092915050565b6000613c9882613dc0565b9150613ca383613dc0565b925082613cb357613cb2613f66565b5b828204905092915050565b6000613cc982613dc0565b9150613cd483613dc0565b9250817fffffffffffffffffffffffffffffffffffffffffffffffffffffffffffffffff0483118215151615613d0d57613d0c613f37565b5b828202905092915050565b6000613d2382613dc0565b9150613d2e83613dc0565b925082821015613d4157613d40613f37565b5b828203905092915050565b6000613d5782613da0565b9050919050565b60008115159050919050565b6000819050919050565b60007fffffffff0000000000000000000000000000000000000000000000000000000082169050919050565b600073ffffffffffffffffffffffffffffffffffffffff82169050919050565b6000819050919050565b6000613dd582613ddc565b9050919050565b6000613de782613da0565b9050919050565b82818337600083830152505050565b60005b83811015613e1b578082015181840152602081019050613e00565b83811115613e2a576000848401525b50505050565b6000613e3b82613dc0565b91506000821415613e4f57613e4e613f37565b5b600182039050919050565b60006002820490506001821680613e7257607f821691505b60208210811415613e8657613e85613f95565b5b50919050565b613e9582613ff3565b810181811067ffffffffffffffff82111715613eb457613eb3613fc4565b5b80604052505050565b6000613ec882613dc0565b91507fffffffffffffffffffffffffffffffffffffffffffffffffffffffffffffffff821415613efb57613efa613f37565b5b600182019050919050565b6000613f1182613dc0565b9150613f1c83613dc0565b925082613f2c57613f2b613f66565b5b828206905092915050565b7f4e487b7100000000000000000000000000000000000000000000000000000000600052601160045260246000fd5b7f4e487b7100000000000000000000000000000000000000000000000000000000600052601260045260246000fd5b7f4e487b7100000000000000000000000000000000000000000000000000000000600052602260045260246000fd5b7f4e487b7100000000000000000000000000000000000000000000000000000000600052604160045260246000fd5b6000601f19601f8301169050919050565b7f537472696e67733a20686578206c656e67746820696e73756666696369656e74600082015250565b7f4552433732313a207472616e7366657220746f206e6f6e20455243373231526560008201527f63656976657220696d706c656d656e7465720000000000000000000000000000602082015250565b7f4552433732313a20746f6b656e20616c7265616479206d696e74656400000000600082015250565b7f4552433732313a207472616e7366657220746f20746865207a65726f2061646460008201527f7265737300000000000000000000000000000000000000000000000000000000602082015250565b7f4552433732313a20617070726f766520746f2063616c6c657200000000000000600082015250565b7f566f74696e67206e6f7420616374697665000000000000000000000000000000600082015250565b7f4d696e74696e67206e6f74206163746976650000000000000000000000000000600082015250565b7f4552433732313a206f70657261746f7220717565727920666f72206e6f6e657860008201527f697374656e7420746f6b656e0000000000000000000000000000000000000000602082015250565b7f4552433732313a20617070726f76652063616c6c6572206973206e6f74206f7760008201527f6e6572206e6f7220617070726f76656420666f7220616c6c0000000000000000602082015250565b7f4552433732313a2062616c616e636520717565727920666f7220746865207a6560008201527f726f206164647265737300000000000000000000000000000000000000000000602082015250565b7f4552433732313a206f776e657220717565727920666f72206e6f6e657869737460008201527f656e7420746f6b656e0000000000000000000000000000000000000000000000602082015250565b7f45524337323155524953746f726167653a2055524920736574206f66206e6f6e60008201527f6578697374656e7420746f6b656e000000000000000000000000000000000000602082015250565b7f4552433732313a206d696e7420746f20746865207a65726f2061646472657373600082015250565b7f45524337323155524953746f726167653a2055524920717565727920666f722060008201527f6e6f6e6578697374656e7420746f6b656e000000000000000000000000000000602082015250565b7f4552433732313a20617070726f76656420717565727920666f72206e6f6e657860008201527f697374656e7420746f6b656e0000000000000000000000000000000000000000602082015250565b7f4552433732313a207472616e73666572206f6620746f6b656e2074686174206960008201527f73206e6f74206f776e0000000000000000000000000000000000000000000000602082015250565b7f4552433732314d657461646174613a2055524920717565727920666f72206e6f60008201527f6e6578697374656e7420746f6b656e0000000000000000000000000000000000602082015250565b7f4552433732313a20617070726f76616c20746f2063757272656e74206f776e6560008201527f7200000000000000000000000000000000000000000000000000000000000000602082015250565b7f4552433732313a207472616e736665722063616c6c6572206973206e6f74206f60008201527f776e6572206e6f7220617070726f766564000000000000000000000000000000602082015250565b7f416363657373436f6e74726f6c3a206163636f756e7420000000000000000000600082015250565b7f206973206d697373696e6720726f6c6520000000000000000000000000000000600082015250565b7f416363657373436f6e74726f6c3a2063616e206f6e6c792072656e6f756e636560008201527f20726f6c657320666f722073656c660000000000000000000000000000000000602082015250565b6145a781613d4c565b81146145b257600080fd5b50565b6145be81613d5e565b81146145c957600080fd5b50565b6145d581613d6a565b81146145e057600080fd5b50565b6145ec81613d74565b81146145f757600080fd5b50565b61460381613dc0565b811461460e57600080fd5b5056fea2646970667358221220b91057afcbc92e9ca968eda554b6255f9cd562a44ea0d8120540d45452d027c364736f6c63430008040033",
    "linkReferences": {},
    "deployedLinkReferences": {}
}