{
  "_format": "hh-sol-artifact-1",
  "contractName": "TazToken",
  "sourceName": "contracts/TazToken.sol",
  "abi": [
    {
      "inputs": [
        {
          "internalType": "contract ISemaphore",
          "name": "semaContractAddr",
          "type": "address"
        }
      ],
      "stateMutability": "nonpayable",
      "type": "constructor"
    },
    {
      "anonymous": false,
      "inputs": [
        {
          "indexed": true,
          "internalType": "address",
          "name": "owner",
          "type": "address"
        },
        {
          "indexed": true,
          "internalType": "address",
          "name": "approved",
          "type": "address"
        },
        {
          "indexed": true,
          "internalType": "uint256",
          "name": "tokenId",
          "type": "uint256"
        }
      ],
      "name": "Approval",
      "type": "event"
    },
    {
      "anonymous": false,
      "inputs": [
        {
          "indexed": true,
          "internalType": "address",
          "name": "owner",
          "type": "address"
        },
        {
          "indexed": true,
          "internalType": "address",
          "name": "operator",
          "type": "address"
        },
        {
          "indexed": false,
          "internalType": "bool",
          "name": "approved",
          "type": "bool"
        }
      ],
      "name": "ApprovalForAll",
      "type": "event"
    },
    {
      "anonymous": false,
      "inputs": [
        {
          "indexed": false,
          "internalType": "uint256",
          "name": "tokenId",
          "type": "uint256"
        },
        {
          "indexed": false,
          "internalType": "string",
          "name": "uri",
          "type": "string"
        }
      ],
      "name": "NewToken",
      "type": "event"
    },
    {
      "anonymous": false,
      "inputs": [
        {
          "indexed": true,
          "internalType": "bytes32",
          "name": "role",
          "type": "bytes32"
        },
        {
          "indexed": true,
          "internalType": "bytes32",
          "name": "previousAdminRole",
          "type": "bytes32"
        },
        {
          "indexed": true,
          "internalType": "bytes32",
          "name": "newAdminRole",
          "type": "bytes32"
        }
      ],
      "name": "RoleAdminChanged",
      "type": "event"
    },
    {
      "anonymous": false,
      "inputs": [
        {
          "indexed": true,
          "internalType": "bytes32",
          "name": "role",
          "type": "bytes32"
        },
        {
          "indexed": true,
          "internalType": "address",
          "name": "account",
          "type": "address"
        },
        {
          "indexed": true,
          "internalType": "address",
          "name": "sender",
          "type": "address"
        }
      ],
      "name": "RoleGranted",
      "type": "event"
    },
    {
      "anonymous": false,
      "inputs": [
        {
          "indexed": true,
          "internalType": "bytes32",
          "name": "role",
          "type": "bytes32"
        },
        {
          "indexed": true,
          "internalType": "address",
          "name": "account",
          "type": "address"
        },
        {
          "indexed": true,
          "internalType": "address",
          "name": "sender",
          "type": "address"
        }
      ],
      "name": "RoleRevoked",
      "type": "event"
    },
    {
      "anonymous": false,
      "inputs": [
        {
          "indexed": true,
          "internalType": "address",
          "name": "from",
          "type": "address"
        },
        {
          "indexed": true,
          "internalType": "address",
          "name": "to",
          "type": "address"
        },
        {
          "indexed": true,
          "internalType": "uint256",
          "name": "tokenId",
          "type": "uint256"
        }
      ],
      "name": "Transfer",
      "type": "event"
    },
    {
      "anonymous": false,
      "inputs": [
        {
          "indexed": false,
          "internalType": "uint256",
          "name": "tokenId",
          "type": "uint256"
        },
        {
          "indexed": false,
          "internalType": "address",
          "name": "reviewer",
          "type": "address"
        }
      ],
      "name": "ViolationAdded",
      "type": "event"
    },
    {
      "anonymous": false,
      "inputs": [
        {
          "indexed": false,
          "internalType": "uint256",
          "name": "tokenId",
          "type": "uint256"
        }
      ],
      "name": "VoteAdded",
      "type": "event"
    },
    {
      "inputs": [],
      "name": "DEFAULT_ADMIN_ROLE",
      "outputs": [
        {
          "internalType": "bytes32",
          "name": "",
          "type": "bytes32"
        }
      ],
      "stateMutability": "view",
      "type": "function"
    },
    {
      "inputs": [],
      "name": "REVIEWER_ROLE",
      "outputs": [
        {
          "internalType": "bytes32",
          "name": "",
          "type": "bytes32"
        }
      ],
      "stateMutability": "view",
      "type": "function"
    },
    {
      "inputs": [],
      "name": "START_STOPPER_ROLE",
      "outputs": [
        {
          "internalType": "bytes32",
          "name": "",
          "type": "bytes32"
        }
      ],
      "stateMutability": "view",
      "type": "function"
    },
    {
      "inputs": [],
      "name": "TAZ_ADMIN_ROLE",
      "outputs": [
        {
          "internalType": "bytes32",
          "name": "",
          "type": "bytes32"
        }
      ],
      "stateMutability": "view",
      "type": "function"
    },
    {
      "inputs": [
        {
          "internalType": "address[]",
          "name": "admins",
          "type": "address[]"
        }
      ],
      "name": "addAdmins",
      "outputs": [],
      "stateMutability": "nonpayable",
      "type": "function"
    },
    {
      "inputs": [
        {
          "internalType": "address[]",
          "name": "reviewers",
          "type": "address[]"
        }
      ],
      "name": "addReviewers",
      "outputs": [],
      "stateMutability": "nonpayable",
      "type": "function"
    },
    {
      "inputs": [
        {
          "internalType": "address[]",
          "name": "startStoppers",
          "type": "address[]"
        }
      ],
      "name": "addStartStoppers",
      "outputs": [],
      "stateMutability": "nonpayable",
      "type": "function"
    },
    {
      "inputs": [
        {
          "internalType": "uint256",
          "name": "tokenId",
          "type": "uint256"
        }
      ],
      "name": "addViolation",
      "outputs": [],
      "stateMutability": "nonpayable",
      "type": "function"
    },
    {
      "inputs": [
        {
          "internalType": "address",
          "name": "to",
          "type": "address"
        },
        {
          "internalType": "uint256",
          "name": "tokenId",
          "type": "uint256"
        }
      ],
      "name": "approve",
      "outputs": [],
      "stateMutability": "nonpayable",
      "type": "function"
    },
    {
      "inputs": [
        {
          "internalType": "address",
          "name": "owner",
          "type": "address"
        }
      ],
      "name": "balanceOf",
      "outputs": [
        {
          "internalType": "uint256",
          "name": "",
          "type": "uint256"
        }
      ],
      "stateMutability": "view",
      "type": "function"
    },
    {
      "inputs": [
        {
          "internalType": "uint256",
          "name": "tokenId",
          "type": "uint256"
        }
      ],
      "name": "getApproved",
      "outputs": [
        {
          "internalType": "address",
          "name": "",
          "type": "address"
        }
      ],
      "stateMutability": "view",
      "type": "function"
    },
    {
      "inputs": [
        {
          "internalType": "bytes32",
          "name": "role",
          "type": "bytes32"
        }
      ],
      "name": "getRoleAdmin",
      "outputs": [
        {
          "internalType": "bytes32",
          "name": "",
          "type": "bytes32"
        }
      ],
      "stateMutability": "view",
      "type": "function"
    },
    {
      "inputs": [
        {
          "internalType": "bytes32",
          "name": "role",
          "type": "bytes32"
        },
        {
          "internalType": "address",
          "name": "account",
          "type": "address"
        }
      ],
      "name": "grantRole",
      "outputs": [],
      "stateMutability": "nonpayable",
      "type": "function"
    },
    {
      "inputs": [
        {
          "internalType": "bytes32",
          "name": "role",
          "type": "bytes32"
        },
        {
          "internalType": "address",
          "name": "account",
          "type": "address"
        }
      ],
      "name": "hasRole",
      "outputs": [
        {
          "internalType": "bool",
          "name": "",
          "type": "bool"
        }
      ],
      "stateMutability": "view",
      "type": "function"
    },
    {
      "inputs": [
        {
          "internalType": "address",
          "name": "owner",
          "type": "address"
        },
        {
          "internalType": "address",
          "name": "operator",
          "type": "address"
        }
      ],
      "name": "isApprovedForAll",
      "outputs": [
        {
          "internalType": "bool",
          "name": "",
          "type": "bool"
        }
      ],
      "stateMutability": "view",
      "type": "function"
    },
    {
      "inputs": [],
      "name": "name",
      "outputs": [
        {
          "internalType": "string",
          "name": "",
          "type": "string"
        }
      ],
      "stateMutability": "view",
      "type": "function"
    },
    {
      "inputs": [
        {
          "internalType": "uint256",
          "name": "tokenId",
          "type": "uint256"
        }
      ],
      "name": "ownerOf",
      "outputs": [
        {
          "internalType": "address",
          "name": "",
          "type": "address"
        }
      ],
      "stateMutability": "view",
      "type": "function"
    },
    {
      "inputs": [
        {
          "internalType": "address[]",
          "name": "admins",
          "type": "address[]"
        }
      ],
      "name": "removeAdmins",
      "outputs": [],
      "stateMutability": "nonpayable",
      "type": "function"
    },
    {
      "inputs": [
        {
          "internalType": "address[]",
          "name": "reviewers",
          "type": "address[]"
        }
      ],
      "name": "removeReviewers",
      "outputs": [],
      "stateMutability": "nonpayable",
      "type": "function"
    },
    {
      "inputs": [
        {
          "internalType": "address[]",
          "name": "startStoppers",
          "type": "address[]"
        }
      ],
      "name": "removeStartStoppers",
      "outputs": [],
      "stateMutability": "nonpayable",
      "type": "function"
    },
    {
      "inputs": [
        {
          "internalType": "bytes32",
          "name": "role",
          "type": "bytes32"
        },
        {
          "internalType": "address",
          "name": "account",
          "type": "address"
        }
      ],
      "name": "renounceRole",
      "outputs": [],
      "stateMutability": "nonpayable",
      "type": "function"
    },
    {
      "inputs": [
        {
          "internalType": "bytes32",
          "name": "role",
          "type": "bytes32"
        },
        {
          "internalType": "address",
          "name": "account",
          "type": "address"
        }
      ],
      "name": "revokeRole",
      "outputs": [],
      "stateMutability": "nonpayable",
      "type": "function"
    },
    {
      "inputs": [
        {
          "internalType": "address",
          "name": "to",
          "type": "address"
        },
        {
          "internalType": "string",
          "name": "uri",
          "type": "string"
        },
        {
          "internalType": "uint256",
          "name": "groupId",
          "type": "uint256"
        },
        {
          "internalType": "uint256",
          "name": "merkleTreeRoot",
          "type": "uint256"
        },
        {
          "internalType": "bytes32",
          "name": "signal",
          "type": "bytes32"
        },
        {
          "internalType": "uint256",
          "name": "nullifierHash",
          "type": "uint256"
        },
        {
          "internalType": "uint256",
          "name": "externalNullifier",
          "type": "uint256"
        },
        {
          "internalType": "uint256[8]",
          "name": "proof",
          "type": "uint256[8]"
        }
      ],
      "name": "safeMint",
      "outputs": [
        {
          "internalType": "uint256",
          "name": "",
          "type": "uint256"
        }
      ],
      "stateMutability": "nonpayable",
      "type": "function"
    },
    {
      "inputs": [
        {
          "internalType": "address",
          "name": "from",
          "type": "address"
        },
        {
          "internalType": "address",
          "name": "to",
          "type": "address"
        },
        {
          "internalType": "uint256",
          "name": "tokenId",
          "type": "uint256"
        }
      ],
      "name": "safeTransferFrom",
      "outputs": [],
      "stateMutability": "nonpayable",
      "type": "function"
    },
    {
      "inputs": [
        {
          "internalType": "address",
          "name": "from",
          "type": "address"
        },
        {
          "internalType": "address",
          "name": "to",
          "type": "address"
        },
        {
          "internalType": "uint256",
          "name": "tokenId",
          "type": "uint256"
        },
        {
          "internalType": "bytes",
          "name": "_data",
          "type": "bytes"
        }
      ],
      "name": "safeTransferFrom",
      "outputs": [],
      "stateMutability": "nonpayable",
      "type": "function"
    },
    {
      "inputs": [],
      "name": "semaContract",
      "outputs": [
        {
          "internalType": "contract ISemaphore",
          "name": "",
          "type": "address"
        }
      ],
      "stateMutability": "view",
      "type": "function"
    },
    {
      "inputs": [
        {
          "internalType": "address",
          "name": "operator",
          "type": "address"
        },
        {
          "internalType": "bool",
          "name": "approved",
          "type": "bool"
        }
      ],
      "name": "setApprovalForAll",
      "outputs": [],
      "stateMutability": "nonpayable",
      "type": "function"
    },
    {
      "inputs": [],
      "name": "startMinting",
      "outputs": [],
      "stateMutability": "nonpayable",
      "type": "function"
    },
    {
      "inputs": [],
      "name": "startVoting",
      "outputs": [],
      "stateMutability": "nonpayable",
      "type": "function"
    },
    {
      "inputs": [],
      "name": "stopMinting",
      "outputs": [],
      "stateMutability": "nonpayable",
      "type": "function"
    },
    {
      "inputs": [],
      "name": "stopVoting",
      "outputs": [],
      "stateMutability": "nonpayable",
      "type": "function"
    },
    {
      "inputs": [
        {
          "internalType": "bytes4",
          "name": "interfaceId",
          "type": "bytes4"
        }
      ],
      "name": "supportsInterface",
      "outputs": [
        {
          "internalType": "bool",
          "name": "",
          "type": "bool"
        }
      ],
      "stateMutability": "view",
      "type": "function"
    },
    {
      "inputs": [],
      "name": "symbol",
      "outputs": [
        {
          "internalType": "string",
          "name": "",
          "type": "string"
        }
      ],
      "stateMutability": "view",
      "type": "function"
    },
    {
      "inputs": [
        {
          "internalType": "uint256",
          "name": "tokenId",
          "type": "uint256"
        }
      ],
      "name": "tokenURI",
      "outputs": [
        {
          "internalType": "string",
          "name": "",
          "type": "string"
        }
      ],
      "stateMutability": "view",
      "type": "function"
    },
    {
      "inputs": [
        {
          "internalType": "address",
          "name": "from",
          "type": "address"
        },
        {
          "internalType": "address",
          "name": "to",
          "type": "address"
        },
        {
          "internalType": "uint256",
          "name": "tokenId",
          "type": "uint256"
        }
      ],
      "name": "transferFrom",
      "outputs": [],
      "stateMutability": "nonpayable",
      "type": "function"
    },
    {
      "inputs": [
        {
          "internalType": "uint256",
          "name": "tokenId",
          "type": "uint256"
        },
        {
          "internalType": "uint256",
          "name": "groupId",
          "type": "uint256"
        },
        {
          "internalType": "uint256",
          "name": "merkleTreeRoot",
          "type": "uint256"
        },
        {
          "internalType": "bytes32",
          "name": "signal",
          "type": "bytes32"
        },
        {
          "internalType": "uint256",
          "name": "nullifierHash",
          "type": "uint256"
        },
        {
          "internalType": "uint256[8]",
          "name": "proof",
          "type": "uint256[8]"
        }
      ],
      "name": "vote",
      "outputs": [],
      "stateMutability": "nonpayable",
      "type": "function"
    }
  ],
  "bytecode": "0x60806040523480156200001157600080fd5b5060405162004d5438038062004d5483398181016040528101906200003791906200053a565b6040518060400160405280600881526020017f54617a546f6b656e0000000000000000000000000000000000000000000000008152506040518060400160405280600381526020017f54415a00000000000000000000000000000000000000000000000000000000008152508160009080519060200190620000bb92919062000473565b508060019080519060200190620000d492919062000473565b50505080600860006101000a81548173ffffffffffffffffffffffffffffffffffffffff021916908373ffffffffffffffffffffffffffffffffffffffff1602179055506200014a7f4636e38b5d73cef5ec0bdf8ec3e0565138a2bfe53888f9e988b51165659d842e806200027460201b60201c565b6200019c7fc10c77be35aff266144ed64c26a1fa104bae2f284ae99ac4a34203454704a1857f4636e38b5d73cef5ec0bdf8ec3e0565138a2bfe53888f9e988b51165659d842e6200027460201b60201c565b620001ee7fb9fb535eeef00914f0e629be8b6c1550a75e7adca17b4a272f7798bb710f25057f4636e38b5d73cef5ec0bdf8ec3e0565138a2bfe53888f9e988b51165659d842e6200027460201b60201c565b620002207f4636e38b5d73cef5ec0bdf8ec3e0565138a2bfe53888f9e988b51165659d842e33620002d860201b60201c565b6001600a60006101000a81548160ff0219169083151502179055506000600a60016101000a81548160ff0219169083151502179055506200026d6009620003ca60201b6200179a1760201c565b506200062d565b60006200028783620003e060201b60201c565b90508160076000858152602001908152602001600020600101819055508181847fbd79b86ffe0ab8e8776151514217cd7cacd52c909f66475c3af44e129f0b00ff60405160405180910390a4505050565b620002ea82826200040060201b60201c565b620003c65760016007600084815260200190815260200160002060000160008373ffffffffffffffffffffffffffffffffffffffff1673ffffffffffffffffffffffffffffffffffffffff16815260200190815260200160002060006101000a81548160ff0219169083151502179055506200036b6200046b60201b60201c565b73ffffffffffffffffffffffffffffffffffffffff168173ffffffffffffffffffffffffffffffffffffffff16837f2f8788117e7eff1d82e926ec794901d17c78024a50270940304540a733656f0d60405160405180910390a45b5050565b6001816000016000828254019250508190555050565b600060076000838152602001908152602001600020600101549050919050565b60006007600084815260200190815260200160002060000160008373ffffffffffffffffffffffffffffffffffffffff1673ffffffffffffffffffffffffffffffffffffffff16815260200190815260200160002060009054906101000a900460ff16905092915050565b600033905090565b8280546200048190620005ae565b90600052602060002090601f016020900481019282620004a55760008555620004f1565b82601f10620004c057805160ff1916838001178555620004f1565b82800160010185558215620004f1579182015b82811115620004f0578251825591602001919060010190620004d3565b5b50905062000500919062000504565b5090565b5b808211156200051f57600081600090555060010162000505565b5090565b600081519050620005348162000613565b92915050565b6000602082840312156200054d57600080fd5b60006200055d8482850162000523565b91505092915050565b600062000573826200058e565b9050919050565b6000620005878262000566565b9050919050565b600073ffffffffffffffffffffffffffffffffffffffff82169050919050565b60006002820490506001821680620005c757607f821691505b60208210811415620005de57620005dd620005e4565b5b50919050565b7f4e487b7100000000000000000000000000000000000000000000000000000000600052602260045260246000fd5b6200061e816200057a565b81146200062a57600080fd5b50565b614717806200063d6000396000f3fe608060405234801561001057600080fd5b506004361061021c5760003560e01c8063785b55f811610125578063acc3f1ed116100ad578063c87b56dd1161007c578063c87b56dd146105e9578063d547741f14610619578063d6b91e9f14610635578063e985e9c514610651578063fab2f86b146106815761021c565b8063acc3f1ed14610563578063b88d4fde14610581578063c1a400981461059d578063c61e84da146105cd5761021c565b80639a65ea26116100f45780639a65ea26146104e75780639c3ad74a146104f15780639c54df641461050d578063a217fddf14610529578063a22cb465146105475761021c565b8063785b55f81461045d5780638a8deed71461047b57806391d148541461049957806395d89b41146104c95761021c565b806336568abe116101a857806342842e0e1161017757806342842e0e146103a9578063490ed5d3146103c55780636352211e146103e15780636db926661461041157806370a082311461042d5761021c565b806336568abe14610349578063377e11e0146103655780633b129a56146103815780633e3e0b121461039f5761021c565b806317147064116101ef57806317147064146102bb5780631ec6b60a146102d757806323b872dd146102e1578063248a9ca3146102fd5780632f2ff15d1461032d5761021c565b806301ffc9a71461022157806306fdde0314610251578063081812fc1461026f578063095ea7b31461029f575b600080fd5b61023b600480360381019061023691906132a9565b61068b565b6040516102489190613874565b60405180910390f35b61025961069d565b60405161026691906138c5565b60405180910390f35b610289600480360381019061028491906132fb565b61072f565b604051610296919061380d565b60405180910390f35b6102b960048036038101906102b491906131c3565b6107b4565b005b6102d560048036038101906102d091906131ff565b6108cc565b005b6102df61099a565b005b6102fb60048036038101906102f69190612ff3565b6109ea565b005b61031760048036038101906103129190613244565b610a4a565b604051610324919061388f565b60405180910390f35b6103476004803603810190610342919061326d565b610a6a565b005b610363600480360381019061035e919061326d565b610a93565b005b61037f600480360381019061037a91906131ff565b610b16565b005b610389610be4565b604051610396919061388f565b60405180910390f35b6103a7610c08565b005b6103c360048036038101906103be9190612ff3565b610c58565b005b6103df60048036038101906103da91906131ff565b610c78565b005b6103fb60048036038101906103f691906132fb565b610d46565b604051610408919061380d565b60405180910390f35b61042b600480360381019061042691906132fb565b610df8565b005b61044760048036038101906104429190612f8e565b610e67565b6040516104549190613b67565b60405180910390f35b610465610f1f565b604051610472919061388f565b60405180910390f35b610483610f43565b60405161049091906138aa565b60405180910390f35b6104b360048036038101906104ae919061326d565b610f69565b6040516104c09190613874565b60405180910390f35b6104d1610fd4565b6040516104de91906138c5565b60405180910390f35b6104ef611066565b005b61050b600480360381019061050691906131ff565b6110b6565b005b610527600480360381019061052291906131ff565b611184565b005b610531611252565b60405161053e919061388f565b60405180910390f35b610561600480360381019061055c91906130bd565b611259565b005b61056b61126f565b604051610578919061388f565b60405180910390f35b61059b60048036038101906105969190613042565b611293565b005b6105b760048036038101906105b291906130f9565b6112f5565b6040516105c49190613b67565b60405180910390f35b6105e760048036038101906105e29190613324565b611485565b005b61060360048036038101906105fe91906132fb565b6115ad565b60405161061091906138c5565b60405180910390f35b610633600480360381019061062e919061326d565b6115bf565b005b61064f600480360381019061064a91906131ff565b6115e8565b005b61066b60048036038101906106669190612fb7565b6116b6565b6040516106789190613874565b60405180910390f35b61068961174a565b005b6000610696826117b0565b9050919050565b6060600080546106ac90613f2a565b80601f01602080910402602001604051908101604052809291908181526020018280546106d890613f2a565b80156107255780601f106106fa57610100808354040283529160200191610725565b820191906000526020600020905b81548152906001019060200180831161070857829003601f168201915b5050505050905090565b600061073a8261182a565b610779576040517f08c379a000000000000000000000000000000000000000000000000000000000815260040161077090613aa7565b60405180910390fd5b6004600083815260200190815260200160002060009054906101000a900473ffffffffffffffffffffffffffffffffffffffff169050919050565b60006107bf82610d46565b90508073ffffffffffffffffffffffffffffffffffffffff168373ffffffffffffffffffffffffffffffffffffffff161415610830576040517f08c379a000000000000000000000000000000000000000000000000000000000815260040161082790613b07565b60405180910390fd5b8073ffffffffffffffffffffffffffffffffffffffff1661084f611896565b73ffffffffffffffffffffffffffffffffffffffff16148061087e575061087d81610878611896565b6116b6565b5b6108bd576040517f08c379a00000000000000000000000000000000000000000000000000000000081526004016108b4906139e7565b60405180910390fd5b6108c7838361189e565b505050565b7f4636e38b5d73cef5ec0bdf8ec3e0565138a2bfe53888f9e988b51165659d842e6108fe816108f9611896565b611957565b60005b83839050811015610994576109837fc10c77be35aff266144ed64c26a1fa104bae2f284ae99ac4a34203454704a185858584818110610969577f4e487b7100000000000000000000000000000000000000000000000000000000600052603260045260246000fd5b905060200201602081019061097e9190612f8e565b610a6a565b8061098d90613f8d565b9050610901565b50505050565b7fb9fb535eeef00914f0e629be8b6c1550a75e7adca17b4a272f7798bb710f25056109cc816109c7611896565b611957565b6001600a60016101000a81548160ff02191690831515021790555050565b6109fb6109f5611896565b826119f4565b610a3a576040517f08c379a0000000000000000000000000000000000000000000000000000000008152600401610a3190613b27565b60405180910390fd5b610a45838383611ad2565b505050565b600060076000838152602001908152602001600020600101549050919050565b610a7382610a4a565b610a8481610a7f611896565b611957565b610a8e8383611d2e565b505050565b610a9b611896565b73ffffffffffffffffffffffffffffffffffffffff168173ffffffffffffffffffffffffffffffffffffffff1614610b08576040517f08c379a0000000000000000000000000000000000000000000000000000000008152600401610aff90613b47565b60405180910390fd5b610b128282611e0f565b5050565b7f4636e38b5d73cef5ec0bdf8ec3e0565138a2bfe53888f9e988b51165659d842e610b4881610b43611896565b611957565b60005b83839050811015610bde57610bcd7f4636e38b5d73cef5ec0bdf8ec3e0565138a2bfe53888f9e988b51165659d842e858584818110610bb3577f4e487b7100000000000000000000000000000000000000000000000000000000600052603260045260246000fd5b9050602002016020810190610bc89190612f8e565b6115bf565b80610bd790613f8d565b9050610b4b565b50505050565b7fc10c77be35aff266144ed64c26a1fa104bae2f284ae99ac4a34203454704a18581565b7fb9fb535eeef00914f0e629be8b6c1550a75e7adca17b4a272f7798bb710f2505610c3a81610c35611896565b611957565b6000600a60006101000a81548160ff02191690831515021790555050565b610c7383838360405180602001604052806000815250611293565b505050565b7f4636e38b5d73cef5ec0bdf8ec3e0565138a2bfe53888f9e988b51165659d842e610caa81610ca5611896565b611957565b60005b83839050811015610d4057610d2f7fb9fb535eeef00914f0e629be8b6c1550a75e7adca17b4a272f7798bb710f2505858584818110610d15577f4e487b7100000000000000000000000000000000000000000000000000000000600052603260045260246000fd5b9050602002016020810190610d2a9190612f8e565b6115bf565b80610d3990613f8d565b9050610cad565b50505050565b6000806002600084815260200190815260200160002060009054906101000a900473ffffffffffffffffffffffffffffffffffffffff169050600073ffffffffffffffffffffffffffffffffffffffff168173ffffffffffffffffffffffffffffffffffffffff161415610def576040517f08c379a0000000000000000000000000000000000000000000000000000000008152600401610de690613a27565b60405180910390fd5b80915050919050565b7fc10c77be35aff266144ed64c26a1fa104bae2f284ae99ac4a34203454704a185610e2a81610e25611896565b611957565b7fb8c6b548b208fa5670169d9ffdd92678964b6298204949dc37fc1a882f8ae28b8233604051610e5b929190613b82565b60405180910390a15050565b60008073ffffffffffffffffffffffffffffffffffffffff168273ffffffffffffffffffffffffffffffffffffffff161415610ed8576040517f08c379a0000000000000000000000000000000000000000000000000000000008152600401610ecf90613a07565b60405180910390fd5b600360008373ffffffffffffffffffffffffffffffffffffffff1673ffffffffffffffffffffffffffffffffffffffff168152602001908152602001600020549050919050565b7f4636e38b5d73cef5ec0bdf8ec3e0565138a2bfe53888f9e988b51165659d842e81565b600860009054906101000a900473ffffffffffffffffffffffffffffffffffffffff1681565b60006007600084815260200190815260200160002060000160008373ffffffffffffffffffffffffffffffffffffffff1673ffffffffffffffffffffffffffffffffffffffff16815260200190815260200160002060009054906101000a900460ff16905092915050565b606060018054610fe390613f2a565b80601f016020809104026020016040519081016040528092919081815260200182805461100f90613f2a565b801561105c5780601f106110315761010080835404028352916020019161105c565b820191906000526020600020905b81548152906001019060200180831161103f57829003601f168201915b5050505050905090565b7fb9fb535eeef00914f0e629be8b6c1550a75e7adca17b4a272f7798bb710f250561109881611093611896565b611957565b6001600a60006101000a81548160ff02191690831515021790555050565b7f4636e38b5d73cef5ec0bdf8ec3e0565138a2bfe53888f9e988b51165659d842e6110e8816110e3611896565b611957565b60005b8383905081101561117e5761116d7fb9fb535eeef00914f0e629be8b6c1550a75e7adca17b4a272f7798bb710f2505858584818110611153577f4e487b7100000000000000000000000000000000000000000000000000000000600052603260045260246000fd5b90506020020160208101906111689190612f8e565b610a6a565b8061117790613f8d565b90506110eb565b50505050565b7f4636e38b5d73cef5ec0bdf8ec3e0565138a2bfe53888f9e988b51165659d842e6111b6816111b1611896565b611957565b60005b8383905081101561124c5761123b7f4636e38b5d73cef5ec0bdf8ec3e0565138a2bfe53888f9e988b51165659d842e858584818110611221577f4e487b7100000000000000000000000000000000000000000000000000000000600052603260045260246000fd5b90506020020160208101906112369190612f8e565b610a6a565b8061124590613f8d565b90506111b9565b50505050565b6000801b81565b61126b611264611896565b8383611ef1565b5050565b7fb9fb535eeef00914f0e629be8b6c1550a75e7adca17b4a272f7798bb710f250581565b6112a461129e611896565b836119f4565b6112e3576040517f08c379a00000000000000000000000000000000000000000000000000000000081526004016112da90613b27565b60405180910390fd5b6112ef8484848461205e565b50505050565b60007f4636e38b5d73cef5ec0bdf8ec3e0565138a2bfe53888f9e988b51165659d842e61132981611324611896565b611957565b600061133560096120ba565b9050600a60009054906101000a900460ff16611386576040517f08c379a000000000000000000000000000000000000000000000000000000000815260040161137d906139a7565b60405180910390fd5b600860009054906101000a900473ffffffffffffffffffffffffffffffffffffffff1673ffffffffffffffffffffffffffffffffffffffff16638b69310a8a8a8a8a8a8a6040518763ffffffff1660e01b81526004016113eb96959493929190613bdb565b600060405180830381600087803b15801561140557600080fd5b505af1158015611419573d6000803e3d6000fd5b50505050611427600961179a565b6114318b826120c8565b61143b818b6120e6565b7fca8605e5b2854022d4ef7e920a48b0c49ca69a8453970d922c3dd8b93057fa67818b60405161146c929190613bab565b60405180910390a1809250505098975050505050505050565b600a60019054906101000a900460ff166114d4576040517f08c379a00000000000000000000000000000000000000000000000000000000081526004016114cb90613987565b60405180910390fd5b600860009054906101000a900473ffffffffffffffffffffffffffffffffffffffff1673ffffffffffffffffffffffffffffffffffffffff16638b69310a868686866201c19d876040518763ffffffff1660e01b815260040161153c96959493929190613bdb565b600060405180830381600087803b15801561155657600080fd5b505af115801561156a573d6000803e3d6000fd5b505050507fca4f4e617a82c74ac41214e7eeb397d2d16ca7807cc366995e9e52dc2b7a444d8660405161159d9190613b67565b60405180910390a1505050505050565b60606115b88261215a565b9050919050565b6115c882610a4a565b6115d9816115d4611896565b611957565b6115e38383611e0f565b505050565b7f4636e38b5d73cef5ec0bdf8ec3e0565138a2bfe53888f9e988b51165659d842e61161a81611615611896565b611957565b60005b838390508110156116b05761169f7fc10c77be35aff266144ed64c26a1fa104bae2f284ae99ac4a34203454704a185858584818110611685577f4e487b7100000000000000000000000000000000000000000000000000000000600052603260045260246000fd5b905060200201602081019061169a9190612f8e565b6115bf565b806116a990613f8d565b905061161d565b50505050565b6000600560008473ffffffffffffffffffffffffffffffffffffffff1673ffffffffffffffffffffffffffffffffffffffff16815260200190815260200160002060008373ffffffffffffffffffffffffffffffffffffffff1673ffffffffffffffffffffffffffffffffffffffff16815260200190815260200160002060009054906101000a900460ff16905092915050565b7fb9fb535eeef00914f0e629be8b6c1550a75e7adca17b4a272f7798bb710f250561177c81611777611896565b611957565b6000600a60016101000a81548160ff02191690831515021790555050565b6001816000016000828254019250508190555050565b60007f7965db0b000000000000000000000000000000000000000000000000000000007bffffffffffffffffffffffffffffffffffffffffffffffffffffffff1916827bffffffffffffffffffffffffffffffffffffffffffffffffffffffff191614806118235750611822826122ac565b5b9050919050565b60008073ffffffffffffffffffffffffffffffffffffffff166002600084815260200190815260200160002060009054906101000a900473ffffffffffffffffffffffffffffffffffffffff1673ffffffffffffffffffffffffffffffffffffffff1614159050919050565b600033905090565b816004600083815260200190815260200160002060006101000a81548173ffffffffffffffffffffffffffffffffffffffff021916908373ffffffffffffffffffffffffffffffffffffffff160217905550808273ffffffffffffffffffffffffffffffffffffffff1661191183610d46565b73ffffffffffffffffffffffffffffffffffffffff167f8c5be1e5ebec7d5bd14f71427d1e84f3dd0314c0f7b2291e5b200ac8c7c3b92560405160405180910390a45050565b6119618282610f69565b6119f0576119868173ffffffffffffffffffffffffffffffffffffffff16601461238e565b6119948360001c602061238e565b6040516020016119a59291906137d3565b6040516020818303038152906040526040517f08c379a00000000000000000000000000000000000000000000000000000000081526004016119e791906138c5565b60405180910390fd5b5050565b60006119ff8261182a565b611a3e576040517f08c379a0000000000000000000000000000000000000000000000000000000008152600401611a35906139c7565b60405180910390fd5b6000611a4983610d46565b90508073ffffffffffffffffffffffffffffffffffffffff168473ffffffffffffffffffffffffffffffffffffffff161480611ab857508373ffffffffffffffffffffffffffffffffffffffff16611aa08461072f565b73ffffffffffffffffffffffffffffffffffffffff16145b80611ac95750611ac881856116b6565b5b91505092915050565b8273ffffffffffffffffffffffffffffffffffffffff16611af282610d46565b73ffffffffffffffffffffffffffffffffffffffff1614611b48576040517f08c379a0000000000000000000000000000000000000000000000000000000008152600401611b3f90613ac7565b60405180910390fd5b600073ffffffffffffffffffffffffffffffffffffffff168273ffffffffffffffffffffffffffffffffffffffff161415611bb8576040517f08c379a0000000000000000000000000000000000000000000000000000000008152600401611baf90613947565b60405180910390fd5b611bc3838383612688565b611bce60008261189e565b6001600360008573ffffffffffffffffffffffffffffffffffffffff1673ffffffffffffffffffffffffffffffffffffffff1681526020019081526020016000206000828254611c1e9190613de8565b925050819055506001600360008473ffffffffffffffffffffffffffffffffffffffff1673ffffffffffffffffffffffffffffffffffffffff1681526020019081526020016000206000828254611c759190613d07565b92505081905550816002600083815260200190815260200160002060006101000a81548173ffffffffffffffffffffffffffffffffffffffff021916908373ffffffffffffffffffffffffffffffffffffffff160217905550808273ffffffffffffffffffffffffffffffffffffffff168473ffffffffffffffffffffffffffffffffffffffff167fddf252ad1be2c89b69c2b068fc378daa952ba7f163c4a11628f55a4df523b3ef60405160405180910390a4505050565b611d388282610f69565b611e0b5760016007600084815260200190815260200160002060000160008373ffffffffffffffffffffffffffffffffffffffff1673ffffffffffffffffffffffffffffffffffffffff16815260200190815260200160002060006101000a81548160ff021916908315150217905550611db0611896565b73ffffffffffffffffffffffffffffffffffffffff168173ffffffffffffffffffffffffffffffffffffffff16837f2f8788117e7eff1d82e926ec794901d17c78024a50270940304540a733656f0d60405160405180910390a45b5050565b611e198282610f69565b15611eed5760006007600084815260200190815260200160002060000160008373ffffffffffffffffffffffffffffffffffffffff1673ffffffffffffffffffffffffffffffffffffffff16815260200190815260200160002060006101000a81548160ff021916908315150217905550611e92611896565b73ffffffffffffffffffffffffffffffffffffffff168173ffffffffffffffffffffffffffffffffffffffff16837ff6391f5c32d9c69d2a47ea670b442974b53935d1edc7fd64eb21e047a839171b60405160405180910390a45b5050565b8173ffffffffffffffffffffffffffffffffffffffff168373ffffffffffffffffffffffffffffffffffffffff161415611f60576040517f08c379a0000000000000000000000000000000000000000000000000000000008152600401611f5790613967565b60405180910390fd5b80600560008573ffffffffffffffffffffffffffffffffffffffff1673ffffffffffffffffffffffffffffffffffffffff16815260200190815260200160002060008473ffffffffffffffffffffffffffffffffffffffff1673ffffffffffffffffffffffffffffffffffffffff16815260200190815260200160002060006101000a81548160ff0219169083151502179055508173ffffffffffffffffffffffffffffffffffffffff168373ffffffffffffffffffffffffffffffffffffffff167f17307eab39ab6107e8899845ad3d59bd9653f200f220920489ca2b5937696c31836040516120519190613874565b60405180910390a3505050565b612069848484611ad2565b6120758484848461268d565b6120b4576040517f08c379a00000000000000000000000000000000000000000000000000000000081526004016120ab90613907565b60405180910390fd5b50505050565b600081600001549050919050565b6120e2828260405180602001604052806000815250612824565b5050565b6120ef8261182a565b61212e576040517f08c379a000000000000000000000000000000000000000000000000000000000815260040161212590613a47565b60405180910390fd5b80600660008481526020019081526020016000209080519060200190612155929190612d35565b505050565b60606121658261182a565b6121a4576040517f08c379a000000000000000000000000000000000000000000000000000000000815260040161219b90613a87565b60405180910390fd5b60006006600084815260200190815260200160002080546121c490613f2a565b80601f01602080910402602001604051908101604052809291908181526020018280546121f090613f2a565b801561223d5780601f106122125761010080835404028352916020019161223d565b820191906000526020600020905b81548152906001019060200180831161222057829003601f168201915b50505050509050600061224e61287f565b90506000815114156122645781925050506122a7565b6000825111156122995780826040516020016122819291906137af565b604051602081830303815290604052925050506122a7565b6122a284612896565b925050505b919050565b60007f80ac58cd000000000000000000000000000000000000000000000000000000007bffffffffffffffffffffffffffffffffffffffffffffffffffffffff1916827bffffffffffffffffffffffffffffffffffffffffffffffffffffffff1916148061237757507f5b5e139f000000000000000000000000000000000000000000000000000000007bffffffffffffffffffffffffffffffffffffffffffffffffffffffff1916827bffffffffffffffffffffffffffffffffffffffffffffffffffffffff1916145b8061238757506123868261293d565b5b9050919050565b6060600060028360026123a19190613d8e565b6123ab9190613d07565b67ffffffffffffffff8111156123ea577f4e487b7100000000000000000000000000000000000000000000000000000000600052604160045260246000fd5b6040519080825280601f01601f19166020018201604052801561241c5781602001600182028036833780820191505090505b5090507f30000000000000000000000000000000000000000000000000000000000000008160008151811061247a577f4e487b7100000000000000000000000000000000000000000000000000000000600052603260045260246000fd5b60200101907effffffffffffffffffffffffffffffffffffffffffffffffffffffffffffff1916908160001a9053507f780000000000000000000000000000000000000000000000000000000000000081600181518110612504577f4e487b7100000000000000000000000000000000000000000000000000000000600052603260045260246000fd5b60200101907effffffffffffffffffffffffffffffffffffffffffffffffffffffffffffff1916908160001a905350600060018460026125449190613d8e565b61254e9190613d07565b90505b600181111561263a577f3031323334353637383961626364656600000000000000000000000000000000600f8616601081106125b6577f4e487b7100000000000000000000000000000000000000000000000000000000600052603260045260246000fd5b1a60f81b8282815181106125f3577f4e487b7100000000000000000000000000000000000000000000000000000000600052603260045260246000fd5b60200101907effffffffffffffffffffffffffffffffffffffffffffffffffffffffffffff1916908160001a905350600485901c94508061263390613f00565b9050612551565b506000841461267e576040517f08c379a0000000000000000000000000000000000000000000000000000000008152600401612675906138e7565b60405180910390fd5b8091505092915050565b505050565b60006126ae8473ffffffffffffffffffffffffffffffffffffffff166129a7565b15612817578373ffffffffffffffffffffffffffffffffffffffff1663150b7a026126d7611896565b8786866040518563ffffffff1660e01b81526004016126f99493929190613828565b602060405180830381600087803b15801561271357600080fd5b505af192505050801561274457506040513d601f19601f8201168201806040525081019061274191906132d2565b60015b6127c7573d8060008114612774576040519150601f19603f3d011682016040523d82523d6000602084013e612779565b606091505b506000815114156127bf576040517f08c379a00000000000000000000000000000000000000000000000000000000081526004016127b690613907565b60405180910390fd5b805181602001fd5b63150b7a0260e01b7bffffffffffffffffffffffffffffffffffffffffffffffffffffffff1916817bffffffffffffffffffffffffffffffffffffffffffffffffffffffff19161491505061281c565b600190505b949350505050565b61282e83836129ba565b61283b600084848461268d565b61287a576040517f08c379a000000000000000000000000000000000000000000000000000000000815260040161287190613907565b60405180910390fd5b505050565b606060405180602001604052806000815250905090565b60606128a18261182a565b6128e0576040517f08c379a00000000000000000000000000000000000000000000000000000000081526004016128d790613ae7565b60405180910390fd5b60006128ea61287f565b9050600081511161290a5760405180602001604052806000815250612935565b8061291484612b88565b6040516020016129259291906137af565b6040516020818303038152906040525b915050919050565b60007f01ffc9a7000000000000000000000000000000000000000000000000000000007bffffffffffffffffffffffffffffffffffffffffffffffffffffffff1916827bffffffffffffffffffffffffffffffffffffffffffffffffffffffff1916149050919050565b600080823b905060008111915050919050565b600073ffffffffffffffffffffffffffffffffffffffff168273ffffffffffffffffffffffffffffffffffffffff161415612a2a576040517f08c379a0000000000000000000000000000000000000000000000000000000008152600401612a2190613a67565b60405180910390fd5b612a338161182a565b15612a73576040517f08c379a0000000000000000000000000000000000000000000000000000000008152600401612a6a90613927565b60405180910390fd5b612a7f60008383612688565b6001600360008473ffffffffffffffffffffffffffffffffffffffff1673ffffffffffffffffffffffffffffffffffffffff1681526020019081526020016000206000828254612acf9190613d07565b92505081905550816002600083815260200190815260200160002060006101000a81548173ffffffffffffffffffffffffffffffffffffffff021916908373ffffffffffffffffffffffffffffffffffffffff160217905550808273ffffffffffffffffffffffffffffffffffffffff16600073ffffffffffffffffffffffffffffffffffffffff167fddf252ad1be2c89b69c2b068fc378daa952ba7f163c4a11628f55a4df523b3ef60405160405180910390a45050565b60606000821415612bd0576040518060400160405280600181526020017f30000000000000000000000000000000000000000000000000000000000000008152509050612d30565b600082905060005b60008214612c02578080612beb90613f8d565b915050600a82612bfb9190613d5d565b9150612bd8565b60008167ffffffffffffffff811115612c44577f4e487b7100000000000000000000000000000000000000000000000000000000600052604160045260246000fd5b6040519080825280601f01601f191660200182016040528015612c765781602001600182028036833780820191505090505b5090505b60008514612d2957600182612c8f9190613de8565b9150600a85612c9e9190613fd6565b6030612caa9190613d07565b60f81b818381518110612ce6577f4e487b7100000000000000000000000000000000000000000000000000000000600052603260045260246000fd5b60200101907effffffffffffffffffffffffffffffffffffffffffffffffffffffffffffff1916908160001a905350600a85612d229190613d5d565b9450612c7a565b8093505050505b919050565b828054612d4190613f2a565b90600052602060002090601f016020900481019282612d635760008555612daa565b82601f10612d7c57805160ff1916838001178555612daa565b82800160010185558215612daa579182015b82811115612da9578251825591602001919060010190612d8e565b5b509050612db79190612dbb565b5090565b5b80821115612dd4576000816000905550600101612dbc565b5090565b6000612deb612de684613c62565b613c3d565b905082815260208101848484011115612e0357600080fd5b612e0e848285613ebe565b509392505050565b6000612e29612e2484613c93565b613c3d565b905082815260208101848484011115612e4157600080fd5b612e4c848285613ebe565b509392505050565b600081359050612e638161466e565b92915050565b60008083601f840112612e7b57600080fd5b8235905067ffffffffffffffff811115612e9457600080fd5b602083019150836020820283011115612eac57600080fd5b9250929050565b600081905082602060080282011115612ecb57600080fd5b92915050565b600081359050612ee081614685565b92915050565b600081359050612ef58161469c565b92915050565b600081359050612f0a816146b3565b92915050565b600081519050612f1f816146b3565b92915050565b600082601f830112612f3657600080fd5b8135612f46848260208601612dd8565b91505092915050565b600082601f830112612f6057600080fd5b8135612f70848260208601612e16565b91505092915050565b600081359050612f88816146ca565b92915050565b600060208284031215612fa057600080fd5b6000612fae84828501612e54565b91505092915050565b60008060408385031215612fca57600080fd5b6000612fd885828601612e54565b9250506020612fe985828601612e54565b9150509250929050565b60008060006060848603121561300857600080fd5b600061301686828701612e54565b935050602061302786828701612e54565b925050604061303886828701612f79565b9150509250925092565b6000806000806080858703121561305857600080fd5b600061306687828801612e54565b945050602061307787828801612e54565b935050604061308887828801612f79565b925050606085013567ffffffffffffffff8111156130a557600080fd5b6130b187828801612f25565b91505092959194509250565b600080604083850312156130d057600080fd5b60006130de85828601612e54565b92505060206130ef85828601612ed1565b9150509250929050565b6000806000806000806000806101e0898b03121561311657600080fd5b60006131248b828c01612e54565b985050602089013567ffffffffffffffff81111561314157600080fd5b61314d8b828c01612f4f565b975050604061315e8b828c01612f79565b965050606061316f8b828c01612f79565b95505060806131808b828c01612ee6565b94505060a06131918b828c01612f79565b93505060c06131a28b828c01612f79565b92505060e06131b38b828c01612eb3565b9150509295985092959890939650565b600080604083850312156131d657600080fd5b60006131e485828601612e54565b92505060206131f585828601612f79565b9150509250929050565b6000806020838503121561321257600080fd5b600083013567ffffffffffffffff81111561322c57600080fd5b61323885828601612e69565b92509250509250929050565b60006020828403121561325657600080fd5b600061326484828501612ee6565b91505092915050565b6000806040838503121561328057600080fd5b600061328e85828601612ee6565b925050602061329f85828601612e54565b9150509250929050565b6000602082840312156132bb57600080fd5b60006132c984828501612efb565b91505092915050565b6000602082840312156132e457600080fd5b60006132f284828501612f10565b91505092915050565b60006020828403121561330d57600080fd5b600061331b84828501612f79565b91505092915050565b6000806000806000806101a0878903121561333e57600080fd5b600061334c89828a01612f79565b965050602061335d89828a01612f79565b955050604061336e89828a01612f79565b945050606061337f89828a01612ee6565b935050608061339089828a01612f79565b92505060a06133a189828a01612eb3565b9150509295509295509295565b6133b781613e1c565b82525050565b6133ca6101008383613ebe565b5050565b6133d781613e2e565b82525050565b6133e681613e3a565b82525050565b60006133f782613cc4565b6134018185613cda565b9350613411818560208601613ecd565b61341a816140c3565b840191505092915050565b61342e81613e9a565b82525050565b600061343f82613ccf565b6134498185613ceb565b9350613459818560208601613ecd565b613462816140c3565b840191505092915050565b600061347882613ccf565b6134828185613cfc565b9350613492818560208601613ecd565b80840191505092915050565b60006134ab602083613ceb565b91506134b6826140d4565b602082019050919050565b60006134ce603283613ceb565b91506134d9826140fd565b604082019050919050565b60006134f1601c83613ceb565b91506134fc8261414c565b602082019050919050565b6000613514602483613ceb565b915061351f82614175565b604082019050919050565b6000613537601983613ceb565b9150613542826141c4565b602082019050919050565b600061355a601183613ceb565b9150613565826141ed565b602082019050919050565b600061357d601283613ceb565b915061358882614216565b602082019050919050565b60006135a0602c83613ceb565b91506135ab8261423f565b604082019050919050565b60006135c3603883613ceb565b91506135ce8261428e565b604082019050919050565b60006135e6602a83613ceb565b91506135f1826142dd565b604082019050919050565b6000613609602983613ceb565b91506136148261432c565b604082019050919050565b600061362c602e83613ceb565b91506136378261437b565b604082019050919050565b600061364f602083613ceb565b915061365a826143ca565b602082019050919050565b6000613672603183613ceb565b915061367d826143f3565b604082019050919050565b6000613695602c83613ceb565b91506136a082614442565b604082019050919050565b60006136b8602983613ceb565b91506136c382614491565b604082019050919050565b60006136db602f83613ceb565b91506136e6826144e0565b604082019050919050565b60006136fe602183613ceb565b91506137098261452f565b604082019050919050565b6000613721603183613ceb565b915061372c8261457e565b604082019050919050565b6000613744601783613cfc565b915061374f826145cd565b601782019050919050565b6000613767601183613cfc565b9150613772826145f6565b601182019050919050565b600061378a602f83613ceb565b91506137958261461f565b604082019050919050565b6137a981613e90565b82525050565b60006137bb828561346d565b91506137c7828461346d565b91508190509392505050565b60006137de82613737565b91506137ea828561346d565b91506137f58261375a565b9150613801828461346d565b91508190509392505050565b600060208201905061382260008301846133ae565b92915050565b600060808201905061383d60008301876133ae565b61384a60208301866133ae565b61385760408301856137a0565b818103606083015261386981846133ec565b905095945050505050565b600060208201905061388960008301846133ce565b92915050565b60006020820190506138a460008301846133dd565b92915050565b60006020820190506138bf6000830184613425565b92915050565b600060208201905081810360008301526138df8184613434565b905092915050565b600060208201905081810360008301526139008161349e565b9050919050565b60006020820190508181036000830152613920816134c1565b9050919050565b60006020820190508181036000830152613940816134e4565b9050919050565b6000602082019050818103600083015261396081613507565b9050919050565b600060208201905081810360008301526139808161352a565b9050919050565b600060208201905081810360008301526139a08161354d565b9050919050565b600060208201905081810360008301526139c081613570565b9050919050565b600060208201905081810360008301526139e081613593565b9050919050565b60006020820190508181036000830152613a00816135b6565b9050919050565b60006020820190508181036000830152613a20816135d9565b9050919050565b60006020820190508181036000830152613a40816135fc565b9050919050565b60006020820190508181036000830152613a608161361f565b9050919050565b60006020820190508181036000830152613a8081613642565b9050919050565b60006020820190508181036000830152613aa081613665565b9050919050565b60006020820190508181036000830152613ac081613688565b9050919050565b60006020820190508181036000830152613ae0816136ab565b9050919050565b60006020820190508181036000830152613b00816136ce565b9050919050565b60006020820190508181036000830152613b20816136f1565b9050919050565b60006020820190508181036000830152613b4081613714565b9050919050565b60006020820190508181036000830152613b608161377d565b9050919050565b6000602082019050613b7c60008301846137a0565b92915050565b6000604082019050613b9760008301856137a0565b613ba460208301846133ae565b9392505050565b6000604082019050613bc060008301856137a0565b8181036020830152613bd28184613434565b90509392505050565b60006101a082019050613bf160008301896137a0565b613bfe60208301886137a0565b613c0b60408301876133dd565b613c1860608301866137a0565b613c2560808301856137a0565b613c3260a08301846133bd565b979650505050505050565b6000613c47613c58565b9050613c538282613f5c565b919050565b6000604051905090565b600067ffffffffffffffff821115613c7d57613c7c614094565b5b613c86826140c3565b9050602081019050919050565b600067ffffffffffffffff821115613cae57613cad614094565b5b613cb7826140c3565b9050602081019050919050565b600081519050919050565b600081519050919050565b600082825260208201905092915050565b600082825260208201905092915050565b600081905092915050565b6000613d1282613e90565b9150613d1d83613e90565b9250827fffffffffffffffffffffffffffffffffffffffffffffffffffffffffffffffff03821115613d5257613d51614007565b5b828201905092915050565b6000613d6882613e90565b9150613d7383613e90565b925082613d8357613d82614036565b5b828204905092915050565b6000613d9982613e90565b9150613da483613e90565b9250817fffffffffffffffffffffffffffffffffffffffffffffffffffffffffffffffff0483118215151615613ddd57613ddc614007565b5b828202905092915050565b6000613df382613e90565b9150613dfe83613e90565b925082821015613e1157613e10614007565b5b828203905092915050565b6000613e2782613e70565b9050919050565b60008115159050919050565b6000819050919050565b60007fffffffff0000000000000000000000000000000000000000000000000000000082169050919050565b600073ffffffffffffffffffffffffffffffffffffffff82169050919050565b6000819050919050565b6000613ea582613eac565b9050919050565b6000613eb782613e70565b9050919050565b82818337600083830152505050565b60005b83811015613eeb578082015181840152602081019050613ed0565b83811115613efa576000848401525b50505050565b6000613f0b82613e90565b91506000821415613f1f57613f1e614007565b5b600182039050919050565b60006002820490506001821680613f4257607f821691505b60208210811415613f5657613f55614065565b5b50919050565b613f65826140c3565b810181811067ffffffffffffffff82111715613f8457613f83614094565b5b80604052505050565b6000613f9882613e90565b91507fffffffffffffffffffffffffffffffffffffffffffffffffffffffffffffffff821415613fcb57613fca614007565b5b600182019050919050565b6000613fe182613e90565b9150613fec83613e90565b925082613ffc57613ffb614036565b5b828206905092915050565b7f4e487b7100000000000000000000000000000000000000000000000000000000600052601160045260246000fd5b7f4e487b7100000000000000000000000000000000000000000000000000000000600052601260045260246000fd5b7f4e487b7100000000000000000000000000000000000000000000000000000000600052602260045260246000fd5b7f4e487b7100000000000000000000000000000000000000000000000000000000600052604160045260246000fd5b6000601f19601f8301169050919050565b7f537472696e67733a20686578206c656e67746820696e73756666696369656e74600082015250565b7f4552433732313a207472616e7366657220746f206e6f6e20455243373231526560008201527f63656976657220696d706c656d656e7465720000000000000000000000000000602082015250565b7f4552433732313a20746f6b656e20616c7265616479206d696e74656400000000600082015250565b7f4552433732313a207472616e7366657220746f20746865207a65726f2061646460008201527f7265737300000000000000000000000000000000000000000000000000000000602082015250565b7f4552433732313a20617070726f766520746f2063616c6c657200000000000000600082015250565b7f566f74696e67206e6f7420616374697665000000000000000000000000000000600082015250565b7f4d696e74696e67206e6f74206163746976650000000000000000000000000000600082015250565b7f4552433732313a206f70657261746f7220717565727920666f72206e6f6e657860008201527f697374656e7420746f6b656e0000000000000000000000000000000000000000602082015250565b7f4552433732313a20617070726f76652063616c6c6572206973206e6f74206f7760008201527f6e6572206e6f7220617070726f76656420666f7220616c6c0000000000000000602082015250565b7f4552433732313a2062616c616e636520717565727920666f7220746865207a6560008201527f726f206164647265737300000000000000000000000000000000000000000000602082015250565b7f4552433732313a206f776e657220717565727920666f72206e6f6e657869737460008201527f656e7420746f6b656e0000000000000000000000000000000000000000000000602082015250565b7f45524337323155524953746f726167653a2055524920736574206f66206e6f6e60008201527f6578697374656e7420746f6b656e000000000000000000000000000000000000602082015250565b7f4552433732313a206d696e7420746f20746865207a65726f2061646472657373600082015250565b7f45524337323155524953746f726167653a2055524920717565727920666f722060008201527f6e6f6e6578697374656e7420746f6b656e000000000000000000000000000000602082015250565b7f4552433732313a20617070726f76656420717565727920666f72206e6f6e657860008201527f697374656e7420746f6b656e0000000000000000000000000000000000000000602082015250565b7f4552433732313a207472616e73666572206f6620746f6b656e2074686174206960008201527f73206e6f74206f776e0000000000000000000000000000000000000000000000602082015250565b7f4552433732314d657461646174613a2055524920717565727920666f72206e6f60008201527f6e6578697374656e7420746f6b656e0000000000000000000000000000000000602082015250565b7f4552433732313a20617070726f76616c20746f2063757272656e74206f776e6560008201527f7200000000000000000000000000000000000000000000000000000000000000602082015250565b7f4552433732313a207472616e736665722063616c6c6572206973206e6f74206f60008201527f776e6572206e6f7220617070726f766564000000000000000000000000000000602082015250565b7f416363657373436f6e74726f6c3a206163636f756e7420000000000000000000600082015250565b7f206973206d697373696e6720726f6c6520000000000000000000000000000000600082015250565b7f416363657373436f6e74726f6c3a2063616e206f6e6c792072656e6f756e636560008201527f20726f6c657320666f722073656c660000000000000000000000000000000000602082015250565b61467781613e1c565b811461468257600080fd5b50565b61468e81613e2e565b811461469957600080fd5b50565b6146a581613e3a565b81146146b057600080fd5b50565b6146bc81613e44565b81146146c757600080fd5b50565b6146d381613e90565b81146146de57600080fd5b5056fea2646970667358221220aead530fb41ba79dc55397f98117f02eec56b0f3b91ee0f92280dfa1bb34eb8f64736f6c63430008040033",
  "linkReferences": {},
  "deployedLinkReferences": {}
}