{
  "_format": "hh-sol-artifact-1",
  "contractName": "TazMessage",
  "sourceName": "contracts/TazMessage.sol",
  "abi": [
    {
      "inputs": [
        {
          "internalType": "contract ISemaphore",
          "name": "semaContractAddr",
          "type": "address"
        }
      ],
      "stateMutability": "nonpayable",
      "type": "constructor"
    },
    {
      "anonymous": false,
      "inputs": [
        {
          "indexed": true,
          "internalType": "uint256",
          "name": "groupId",
          "type": "uint256"
        },
        {
          "indexed": false,
          "internalType": "uint256",
          "name": "identityCommitment",
          "type": "uint256"
        }
      ],
      "name": "MemberAdded",
      "type": "event"
    },
    {
      "anonymous": false,
      "inputs": [
        {
          "indexed": false,
          "internalType": "string",
          "name": "parentMessageId",
          "type": "string"
        },
        {
          "indexed": false,
          "internalType": "string",
          "name": "messageId",
          "type": "string"
        },
        {
          "indexed": false,
          "internalType": "string",
          "name": "messageContent",
          "type": "string"
        }
      ],
      "name": "MessageAdded",
      "type": "event"
    },
    {
      "anonymous": false,
      "inputs": [
        {
          "indexed": true,
          "internalType": "address",
          "name": "previousOwner",
          "type": "address"
        },
        {
          "indexed": true,
          "internalType": "address",
          "name": "newOwner",
          "type": "address"
        }
      ],
      "name": "OwnershipTransferred",
      "type": "event"
    },
    {
      "inputs": [
        {
          "internalType": "uint256",
          "name": "groupId",
          "type": "uint256"
        },
        {
          "internalType": "uint256",
          "name": "identityCommitment",
          "type": "uint256"
        }
      ],
      "name": "addMember",
      "outputs": [],
      "stateMutability": "nonpayable",
      "type": "function"
    },
    {
      "inputs": [
        {
          "internalType": "string",
          "name": "messageId",
          "type": "string"
        },
        {
          "internalType": "string",
          "name": "messageContent",
          "type": "string"
        },
        {
          "internalType": "uint256",
          "name": "groupId",
          "type": "uint256"
        },
        {
          "internalType": "bytes32",
          "name": "signal",
          "type": "bytes32"
        },
        {
          "internalType": "uint256",
          "name": "nullifierHash",
          "type": "uint256"
        },
        {
          "internalType": "uint256",
          "name": "externalNullifier",
          "type": "uint256"
        },
        {
          "internalType": "uint256[8]",
          "name": "proof",
          "type": "uint256[8]"
        }
      ],
      "name": "addMessage",
      "outputs": [],
      "stateMutability": "nonpayable",
      "type": "function"
    },
    {
      "inputs": [],
      "name": "owner",
      "outputs": [
        {
          "internalType": "address",
          "name": "",
          "type": "address"
        }
      ],
      "stateMutability": "view",
      "type": "function"
    },
    {
      "inputs": [],
      "name": "renounceOwnership",
      "outputs": [],
      "stateMutability": "nonpayable",
      "type": "function"
    },
    {
      "inputs": [
        {
          "internalType": "string",
          "name": "parentMessageId",
          "type": "string"
        },
        {
          "internalType": "string",
          "name": "messageId",
          "type": "string"
        },
        {
          "internalType": "string",
          "name": "messageContent",
          "type": "string"
        },
        {
          "internalType": "uint256",
          "name": "groupId",
          "type": "uint256"
        },
        {
          "internalType": "bytes32",
          "name": "signal",
          "type": "bytes32"
        },
        {
          "internalType": "uint256",
          "name": "nullifierHash",
          "type": "uint256"
        },
        {
          "internalType": "uint256",
          "name": "externalNullifier",
          "type": "uint256"
        },
        {
          "internalType": "uint256[8]",
          "name": "proof",
          "type": "uint256[8]"
        }
      ],
      "name": "replyToMessage",
      "outputs": [],
      "stateMutability": "nonpayable",
      "type": "function"
    },
    {
      "inputs": [],
      "name": "semaContract",
      "outputs": [
        {
          "internalType": "contract ISemaphore",
          "name": "",
          "type": "address"
        }
      ],
      "stateMutability": "view",
      "type": "function"
    },
    {
      "inputs": [
        {
          "internalType": "address",
          "name": "newOwner",
          "type": "address"
        }
      ],
      "name": "transferOwnership",
      "outputs": [],
      "stateMutability": "nonpayable",
      "type": "function"
    },
    {
      "inputs": [
        {
          "internalType": "uint256",
          "name": "groupId",
          "type": "uint256"
        },
        {
          "internalType": "address",
          "name": "newAdmin",
          "type": "address"
        }
      ],
      "name": "updateSemaphoreGroupAdmin",
      "outputs": [],
      "stateMutability": "nonpayable",
      "type": "function"
    }
  ],
  "bytecode": "0x60806040523480156200001157600080fd5b50604051620013ed380380620013ed8339818101604052810190620000379190620001e9565b620000576200004b6200009f60201b60201c565b620000a760201b60201c565b80600160006101000a81548173ffffffffffffffffffffffffffffffffffffffff021916908373ffffffffffffffffffffffffffffffffffffffff160217905550506200021b565b600033905090565b60008060009054906101000a900473ffffffffffffffffffffffffffffffffffffffff169050816000806101000a81548173ffffffffffffffffffffffffffffffffffffffff021916908373ffffffffffffffffffffffffffffffffffffffff1602179055508173ffffffffffffffffffffffffffffffffffffffff168173ffffffffffffffffffffffffffffffffffffffff167f8be0079c531659141344cd1fd0a4f28419497f9722a3daafe3b4186f6b6457e060405160405180910390a35050565b600080fd5b600073ffffffffffffffffffffffffffffffffffffffff82169050919050565b60006200019d8262000170565b9050919050565b6000620001b18262000190565b9050919050565b620001c381620001a4565b8114620001cf57600080fd5b50565b600081519050620001e381620001b8565b92915050565b6000602082840312156200020257620002016200016b565b5b60006200021284828501620001d2565b91505092915050565b6111c2806200022b6000396000f3fe608060405234801561001057600080fd5b50600436106100885760003560e01c80637802eb601161005b5780637802eb60146100eb5780638a8deed7146101075780638da5cb5b14610125578063f2fde38b1461014357610088565b80631783efc31461008d5780635893ce14146100a957806367c608da146100c5578063715018a6146100e1575b600080fd5b6100a760048036038101906100a291906107ff565b61015f565b005b6100c360048036038101906100be91906109e2565b6102b9565b005b6100df60048036038101906100da9190610b4a565b6103d7565b005b6100e9610472565b005b61010560048036038101906101009190610b8a565b610486565b005b61010f61055d565b60405161011c9190610cc4565b60405180910390f35b61012d610583565b60405161013a9190610cee565b60405180910390f35b61015d60048036038101906101589190610d09565b6105ac565b005b61016761062f565b61017182826106ad565b156101b1576040517f08c379a00000000000000000000000000000000000000000000000000000000081526004016101a890610db9565b60405180910390fd5b600160009054906101000a900473ffffffffffffffffffffffffffffffffffffffff1673ffffffffffffffffffffffffffffffffffffffff16631783efc383836040518363ffffffff1660e01b815260040161020e929190610de8565b600060405180830381600087803b15801561022857600080fd5b505af115801561023c573d6000803e3d6000fd5b50505050600160026000848152602001908152602001600020600083815260200190815260200160002060006101000a81548160ff021916908315150217905550817fa7971101f3ab1808fedaf53dcda952637961dcc1153334a243c3426fc83c8594826040516102ad9190610e11565b60405180910390a25050565b60008851116102fd576040517f08c379a00000000000000000000000000000000000000000000000000000000081526004016102f490610e9e565b60405180910390fd5b600160009054906101000a900473ffffffffffffffffffffffffffffffffffffffff1673ffffffffffffffffffffffffffffffffffffffff16636673e84986868686866040518663ffffffff1660e01b8152600401610360959493929190610ede565b600060405180830381600087803b15801561037a57600080fd5b505af115801561038e573d6000803e3d6000fd5b505050507f23d645796f35d9391d4b5a1532c734659818e1eb2b5245723dcb411485b3f2458888886040516103c593929190610fa9565b60405180910390a15050505050505050565b6103df61062f565b600160009054906101000a900473ffffffffffffffffffffffffffffffffffffffff1673ffffffffffffffffffffffffffffffffffffffff1663568ee82683836040518363ffffffff1660e01b815260040161043c929190610ff5565b600060405180830381600087803b15801561045657600080fd5b505af115801561046a573d6000803e3d6000fd5b505050505050565b61047a61062f565b61048460006106e9565b565b600160009054906101000a900473ffffffffffffffffffffffffffffffffffffffff1673ffffffffffffffffffffffffffffffffffffffff16636673e84986868686866040518663ffffffff1660e01b81526004016104e9959493929190610ede565b600060405180830381600087803b15801561050357600080fd5b505af1158015610517573d6000803e3d6000fd5b505050507f23d645796f35d9391d4b5a1532c734659818e1eb2b5245723dcb411485b3f245878760405161054c929190611044565b60405180910390a150505050505050565b600160009054906101000a900473ffffffffffffffffffffffffffffffffffffffff1681565b60008060009054906101000a900473ffffffffffffffffffffffffffffffffffffffff16905090565b6105b461062f565b600073ffffffffffffffffffffffffffffffffffffffff168173ffffffffffffffffffffffffffffffffffffffff1603610623576040517f08c379a000000000000000000000000000000000000000000000000000000000815260040161061a90611100565b60405180910390fd5b61062c816106e9565b50565b6106376107ad565b73ffffffffffffffffffffffffffffffffffffffff16610655610583565b73ffffffffffffffffffffffffffffffffffffffff16146106ab576040517f08c379a00000000000000000000000000000000000000000000000000000000081526004016106a29061116c565b60405180910390fd5b565b600060026000848152602001908152602001600020600083815260200190815260200160002060009054906101000a900460ff16905092915050565b60008060009054906101000a900473ffffffffffffffffffffffffffffffffffffffff169050816000806101000a81548173ffffffffffffffffffffffffffffffffffffffff021916908373ffffffffffffffffffffffffffffffffffffffff1602179055508173ffffffffffffffffffffffffffffffffffffffff168173ffffffffffffffffffffffffffffffffffffffff167f8be0079c531659141344cd1fd0a4f28419497f9722a3daafe3b4186f6b6457e060405160405180910390a35050565b600033905090565b6000604051905090565b600080fd5b600080fd5b6000819050919050565b6107dc816107c9565b81146107e757600080fd5b50565b6000813590506107f9816107d3565b92915050565b60008060408385031215610816576108156107bf565b5b6000610824858286016107ea565b9250506020610835858286016107ea565b9150509250929050565b600080fd5b600080fd5b6000601f19601f8301169050919050565b7f4e487b7100000000000000000000000000000000000000000000000000000000600052604160045260246000fd5b61089282610849565b810181811067ffffffffffffffff821117156108b1576108b061085a565b5b80604052505050565b60006108c46107b5565b90506108d08282610889565b919050565b600067ffffffffffffffff8211156108f0576108ef61085a565b5b6108f982610849565b9050602081019050919050565b82818337600083830152505050565b6000610928610923846108d5565b6108ba565b90508281526020810184848401111561094457610943610844565b5b61094f848285610906565b509392505050565b600082601f83011261096c5761096b61083f565b5b813561097c848260208601610915565b91505092915050565b6000819050919050565b61099881610985565b81146109a357600080fd5b50565b6000813590506109b58161098f565b92915050565b600080fd5b6000819050826020600802820111156109dc576109db6109bb565b5b92915050565b6000806000806000806000806101e0898b031215610a0357610a026107bf565b5b600089013567ffffffffffffffff811115610a2157610a206107c4565b5b610a2d8b828c01610957565b985050602089013567ffffffffffffffff811115610a4e57610a4d6107c4565b5b610a5a8b828c01610957565b975050604089013567ffffffffffffffff811115610a7b57610a7a6107c4565b5b610a878b828c01610957565b9650506060610a988b828c016107ea565b9550506080610aa98b828c016109a6565b94505060a0610aba8b828c016107ea565b93505060c0610acb8b828c016107ea565b92505060e0610adc8b828c016109c0565b9150509295985092959890939650565b600073ffffffffffffffffffffffffffffffffffffffff82169050919050565b6000610b1782610aec565b9050919050565b610b2781610b0c565b8114610b3257600080fd5b50565b600081359050610b4481610b1e565b92915050565b60008060408385031215610b6157610b606107bf565b5b6000610b6f858286016107ea565b9250506020610b8085828601610b35565b9150509250929050565b60008060008060008060006101c0888a031215610baa57610ba96107bf565b5b600088013567ffffffffffffffff811115610bc857610bc76107c4565b5b610bd48a828b01610957565b975050602088013567ffffffffffffffff811115610bf557610bf46107c4565b5b610c018a828b01610957565b9650506040610c128a828b016107ea565b9550506060610c238a828b016109a6565b9450506080610c348a828b016107ea565b93505060a0610c458a828b016107ea565b92505060c0610c568a828b016109c0565b91505092959891949750929550565b6000819050919050565b6000610c8a610c85610c8084610aec565b610c65565b610aec565b9050919050565b6000610c9c82610c6f565b9050919050565b6000610cae82610c91565b9050919050565b610cbe81610ca3565b82525050565b6000602082019050610cd96000830184610cb5565b92915050565b610ce881610b0c565b82525050565b6000602082019050610d036000830184610cdf565b92915050565b600060208284031215610d1f57610d1e6107bf565b5b6000610d2d84828501610b35565b91505092915050565b600082825260208201905092915050565b7f4d656d6265722068617320616c7265616479206265656e20616464656420746f60008201527f20746869732067726f7570000000000000000000000000000000000000000000602082015250565b6000610da3602b83610d36565b9150610dae82610d47565b604082019050919050565b60006020820190508181036000830152610dd281610d96565b9050919050565b610de2816107c9565b82525050565b6000604082019050610dfd6000830185610dd9565b610e0a6020830184610dd9565b9392505050565b6000602082019050610e266000830184610dd9565b92915050565b7f496e76616c69642049442070726f766964656420666f7220706172656e74206d60008201527f6573736167650000000000000000000000000000000000000000000000000000602082015250565b6000610e88602683610d36565b9150610e9382610e2c565b604082019050919050565b60006020820190508181036000830152610eb781610e7b565b9050919050565b610ec781610985565b82525050565b610eda6101008383610906565b5050565b600061018082019050610ef46000830188610dd9565b610f016020830187610ebe565b610f0e6040830186610dd9565b610f1b6060830185610dd9565b610f286080830184610ecd565b9695505050505050565b600081519050919050565b60005b83811015610f5b578082015181840152602081019050610f40565b83811115610f6a576000848401525b50505050565b6000610f7b82610f32565b610f858185610d36565b9350610f95818560208601610f3d565b610f9e81610849565b840191505092915050565b60006060820190508181036000830152610fc38186610f70565b90508181036020830152610fd78185610f70565b90508181036040830152610feb8184610f70565b9050949350505050565b600060408201905061100a6000830185610dd9565b6110176020830184610cdf565b9392505050565b50565b600061102e600083610d36565b91506110398261101e565b600082019050919050565b6000606082019050818103600083015261105d81611021565b905081810360208301526110718185610f70565b905081810360408301526110858184610f70565b90509392505050565b7f4f776e61626c653a206e6577206f776e657220697320746865207a65726f206160008201527f6464726573730000000000000000000000000000000000000000000000000000602082015250565b60006110ea602683610d36565b91506110f58261108e565b604082019050919050565b60006020820190508181036000830152611119816110dd565b9050919050565b7f4f776e61626c653a2063616c6c6572206973206e6f7420746865206f776e6572600082015250565b6000611156602083610d36565b915061116182611120565b602082019050919050565b6000602082019050818103600083015261118581611149565b905091905056fea26469706673582212209bc4074f824cdbd0dd01b0456465450e10a94252e5b1a84e0bd00ff53479b1d964736f6c634300080d0033",
  "linkReferences": {},
  "deployedLinkReferences": {}
}