{
  "_format": "hh-sol-artifact-1",
  "contractName": "TazToken",
  "sourceName": "contracts/TazToken.sol",
  "abi": [
    {
      "inputs": [],
      "stateMutability": "nonpayable",
      "type": "constructor"
    },
    {
      "anonymous": false,
      "inputs": [
        {
          "indexed": true,
          "internalType": "address",
          "name": "owner",
          "type": "address"
        },
        {
          "indexed": true,
          "internalType": "address",
          "name": "approved",
          "type": "address"
        },
        {
          "indexed": true,
          "internalType": "uint256",
          "name": "tokenId",
          "type": "uint256"
        }
      ],
      "name": "Approval",
      "type": "event"
    },
    {
      "anonymous": false,
      "inputs": [
        {
          "indexed": true,
          "internalType": "address",
          "name": "owner",
          "type": "address"
        },
        {
          "indexed": true,
          "internalType": "address",
          "name": "operator",
          "type": "address"
        },
        {
          "indexed": false,
          "internalType": "bool",
          "name": "approved",
          "type": "bool"
        }
      ],
      "name": "ApprovalForAll",
      "type": "event"
    },
    {
      "anonymous": false,
      "inputs": [
        {
          "indexed": true,
          "internalType": "address",
          "name": "previousOwner",
          "type": "address"
        },
        {
          "indexed": true,
          "internalType": "address",
          "name": "newOwner",
          "type": "address"
        }
      ],
      "name": "OwnershipTransferred",
      "type": "event"
    },
    {
      "anonymous": false,
      "inputs": [
        {
          "indexed": true,
          "internalType": "address",
          "name": "from",
          "type": "address"
        },
        {
          "indexed": true,
          "internalType": "address",
          "name": "to",
          "type": "address"
        },
        {
          "indexed": true,
          "internalType": "uint256",
          "name": "tokenId",
          "type": "uint256"
        }
      ],
      "name": "Transfer",
      "type": "event"
    },
    {
      "inputs": [
        {
          "internalType": "address",
          "name": "to",
          "type": "address"
        },
        {
          "internalType": "uint256",
          "name": "tokenId",
          "type": "uint256"
        }
      ],
      "name": "approve",
      "outputs": [],
      "stateMutability": "nonpayable",
      "type": "function"
    },
    {
      "inputs": [
        {
          "internalType": "address",
          "name": "owner",
          "type": "address"
        }
      ],
      "name": "balanceOf",
      "outputs": [
        {
          "internalType": "uint256",
          "name": "",
          "type": "uint256"
        }
      ],
      "stateMutability": "view",
      "type": "function"
    },
    {
      "inputs": [
        {
          "internalType": "uint256",
          "name": "tokenId",
          "type": "uint256"
        }
      ],
      "name": "getApproved",
      "outputs": [
        {
          "internalType": "address",
          "name": "",
          "type": "address"
        }
      ],
      "stateMutability": "view",
      "type": "function"
    },
    {
      "inputs": [
        {
          "internalType": "address",
          "name": "owner",
          "type": "address"
        },
        {
          "internalType": "address",
          "name": "operator",
          "type": "address"
        }
      ],
      "name": "isApprovedForAll",
      "outputs": [
        {
          "internalType": "bool",
          "name": "",
          "type": "bool"
        }
      ],
      "stateMutability": "view",
      "type": "function"
    },
    {
      "inputs": [],
      "name": "name",
      "outputs": [
        {
          "internalType": "string",
          "name": "",
          "type": "string"
        }
      ],
      "stateMutability": "view",
      "type": "function"
    },
    {
      "inputs": [],
      "name": "owner",
      "outputs": [
        {
          "internalType": "address",
          "name": "",
          "type": "address"
        }
      ],
      "stateMutability": "view",
      "type": "function"
    },
    {
      "inputs": [
        {
          "internalType": "uint256",
          "name": "tokenId",
          "type": "uint256"
        }
      ],
      "name": "ownerOf",
      "outputs": [
        {
          "internalType": "address",
          "name": "",
          "type": "address"
        }
      ],
      "stateMutability": "view",
      "type": "function"
    },
    {
      "inputs": [],
      "name": "renounceOwnership",
      "outputs": [],
      "stateMutability": "nonpayable",
      "type": "function"
    },
    {
      "inputs": [
        {
          "internalType": "address",
          "name": "to",
          "type": "address"
        },
        {
          "internalType": "string",
          "name": "uri",
          "type": "string"
        }
      ],
      "name": "safeMint",
      "outputs": [
        {
          "internalType": "uint256",
          "name": "",
          "type": "uint256"
        }
      ],
      "stateMutability": "nonpayable",
      "type": "function"
    },
    {
      "inputs": [
        {
          "internalType": "address",
          "name": "from",
          "type": "address"
        },
        {
          "internalType": "address",
          "name": "to",
          "type": "address"
        },
        {
          "internalType": "uint256",
          "name": "tokenId",
          "type": "uint256"
        }
      ],
      "name": "safeTransferFrom",
      "outputs": [],
      "stateMutability": "nonpayable",
      "type": "function"
    },
    {
      "inputs": [
        {
          "internalType": "address",
          "name": "from",
          "type": "address"
        },
        {
          "internalType": "address",
          "name": "to",
          "type": "address"
        },
        {
          "internalType": "uint256",
          "name": "tokenId",
          "type": "uint256"
        },
        {
          "internalType": "bytes",
          "name": "data",
          "type": "bytes"
        }
      ],
      "name": "safeTransferFrom",
      "outputs": [],
      "stateMutability": "nonpayable",
      "type": "function"
    },
    {
      "inputs": [
        {
          "internalType": "address",
          "name": "operator",
          "type": "address"
        },
        {
          "internalType": "bool",
          "name": "approved",
          "type": "bool"
        }
      ],
      "name": "setApprovalForAll",
      "outputs": [],
      "stateMutability": "nonpayable",
      "type": "function"
    },
    {
      "inputs": [
        {
          "internalType": "bytes4",
          "name": "interfaceId",
          "type": "bytes4"
        }
      ],
      "name": "supportsInterface",
      "outputs": [
        {
          "internalType": "bool",
          "name": "",
          "type": "bool"
        }
      ],
      "stateMutability": "view",
      "type": "function"
    },
    {
      "inputs": [],
      "name": "symbol",
      "outputs": [
        {
          "internalType": "string",
          "name": "",
          "type": "string"
        }
      ],
      "stateMutability": "view",
      "type": "function"
    },
    {
      "inputs": [
        {
          "internalType": "uint256",
          "name": "tokenId",
          "type": "uint256"
        }
      ],
      "name": "tokenURI",
      "outputs": [
        {
          "internalType": "string",
          "name": "",
          "type": "string"
        }
      ],
      "stateMutability": "view",
      "type": "function"
    },
    {
      "inputs": [
        {
          "internalType": "address",
          "name": "from",
          "type": "address"
        },
        {
          "internalType": "address",
          "name": "to",
          "type": "address"
        },
        {
          "internalType": "uint256",
          "name": "tokenId",
          "type": "uint256"
        }
      ],
      "name": "transferFrom",
      "outputs": [],
      "stateMutability": "nonpayable",
      "type": "function"
    },
    {
      "inputs": [
        {
          "internalType": "address",
          "name": "newOwner",
          "type": "address"
        }
      ],
      "name": "transferOwnership",
      "outputs": [],
      "stateMutability": "nonpayable",
      "type": "function"
    }
  ],
  "bytecode": "0x60806040523480156200001157600080fd5b506040518060400160405280600881526020017f54617a546f6b656e0000000000000000000000000000000000000000000000008152506040518060400160405280600381526020017f54415a0000000000000000000000000000000000000000000000000000000000815250816000908051906020019062000096929190620001a6565b508060019080519060200190620000af929190620001a6565b505050620000d2620000c6620000d860201b60201c565b620000e060201b60201c565b620002ba565b600033905090565b6000600760009054906101000a900473ffffffffffffffffffffffffffffffffffffffff16905081600760006101000a81548173ffffffffffffffffffffffffffffffffffffffff021916908373ffffffffffffffffffffffffffffffffffffffff1602179055508173ffffffffffffffffffffffffffffffffffffffff168173ffffffffffffffffffffffffffffffffffffffff167f8be0079c531659141344cd1fd0a4f28419497f9722a3daafe3b4186f6b6457e060405160405180910390a35050565b828054620001b49062000285565b90600052602060002090601f016020900481019282620001d8576000855562000224565b82601f10620001f357805160ff191683800117855562000224565b8280016001018555821562000224579182015b828111156200022357825182559160200191906001019062000206565b5b50905062000233919062000237565b5090565b5b808211156200025257600081600090555060010162000238565b5090565b7f4e487b7100000000000000000000000000000000000000000000000000000000600052602260045260246000fd5b600060028204905060018216806200029e57607f821691505b602082108103620002b457620002b362000256565b5b50919050565b612c8980620002ca6000396000f3fe608060405234801561001057600080fd5b506004361061010b5760003560e01c8063715018a6116100a2578063b88d4fde11610071578063b88d4fde146102a4578063c87b56dd146102c0578063d204c45e146102f0578063e985e9c514610320578063f2fde38b146103505761010b565b8063715018a6146102425780638da5cb5b1461024c57806395d89b411461026a578063a22cb465146102885761010b565b806323b872dd116100de57806323b872dd146101aa57806342842e0e146101c65780636352211e146101e257806370a08231146102125761010b565b806301ffc9a71461011057806306fdde0314610140578063081812fc1461015e578063095ea7b31461018e575b600080fd5b61012a60048036038101906101259190611b5d565b61036c565b6040516101379190611ba5565b60405180910390f35b61014861044e565b6040516101559190611c59565b60405180910390f35b61017860048036038101906101739190611cb1565b6104e0565b6040516101859190611d1f565b60405180910390f35b6101a860048036038101906101a39190611d66565b610526565b005b6101c460048036038101906101bf9190611da6565b61063d565b005b6101e060048036038101906101db9190611da6565b61069d565b005b6101fc60048036038101906101f79190611cb1565b6106bd565b6040516102099190611d1f565b60405180910390f35b61022c60048036038101906102279190611df9565b61076e565b6040516102399190611e35565b60405180910390f35b61024a610825565b005b610254610839565b6040516102619190611d1f565b60405180910390f35b610272610863565b60405161027f9190611c59565b60405180910390f35b6102a2600480360381019061029d9190611e7c565b6108f5565b005b6102be60048036038101906102b99190611ff1565b61090b565b005b6102da60048036038101906102d59190611cb1565b61096d565b6040516102e79190611c59565b60405180910390f35b61030a60048036038101906103059190612115565b61097f565b6040516103179190611e35565b60405180910390f35b61033a60048036038101906103359190612171565b6109bf565b6040516103479190611ba5565b60405180910390f35b61036a60048036038101906103659190611df9565b610a53565b005b60007f80ac58cd000000000000000000000000000000000000000000000000000000007bffffffffffffffffffffffffffffffffffffffffffffffffffffffff1916827bffffffffffffffffffffffffffffffffffffffffffffffffffffffff1916148061043757507f5b5e139f000000000000000000000000000000000000000000000000000000007bffffffffffffffffffffffffffffffffffffffffffffffffffffffff1916827bffffffffffffffffffffffffffffffffffffffffffffffffffffffff1916145b80610447575061044682610ad6565b5b9050919050565b60606000805461045d906121e0565b80601f0160208091040260200160405190810160405280929190818152602001828054610489906121e0565b80156104d65780601f106104ab576101008083540402835291602001916104d6565b820191906000526020600020905b8154815290600101906020018083116104b957829003601f168201915b5050505050905090565b60006104eb82610b40565b6004600083815260200190815260200160002060009054906101000a900473ffffffffffffffffffffffffffffffffffffffff169050919050565b6000610531826106bd565b90508073ffffffffffffffffffffffffffffffffffffffff168373ffffffffffffffffffffffffffffffffffffffff16036105a1576040517f08c379a000000000000000000000000000000000000000000000000000000000815260040161059890612283565b60405180910390fd5b8073ffffffffffffffffffffffffffffffffffffffff166105c0610b8b565b73ffffffffffffffffffffffffffffffffffffffff1614806105ef57506105ee816105e9610b8b565b6109bf565b5b61062e576040517f08c379a000000000000000000000000000000000000000000000000000000000815260040161062590612315565b60405180910390fd5b6106388383610b93565b505050565b61064e610648610b8b565b82610c4c565b61068d576040517f08c379a0000000000000000000000000000000000000000000000000000000008152600401610684906123a7565b60405180910390fd5b610698838383610ce1565b505050565b6106b88383836040518060200160405280600081525061090b565b505050565b6000806002600084815260200190815260200160002060009054906101000a900473ffffffffffffffffffffffffffffffffffffffff169050600073ffffffffffffffffffffffffffffffffffffffff168173ffffffffffffffffffffffffffffffffffffffff1603610765576040517f08c379a000000000000000000000000000000000000000000000000000000000815260040161075c90612413565b60405180910390fd5b80915050919050565b60008073ffffffffffffffffffffffffffffffffffffffff168273ffffffffffffffffffffffffffffffffffffffff16036107de576040517f08c379a00000000000000000000000000000000000000000000000000000000081526004016107d5906124a5565b60405180910390fd5b600360008373ffffffffffffffffffffffffffffffffffffffff1673ffffffffffffffffffffffffffffffffffffffff168152602001908152602001600020549050919050565b61082d610f47565b6108376000610fc5565b565b6000600760009054906101000a900473ffffffffffffffffffffffffffffffffffffffff16905090565b606060018054610872906121e0565b80601f016020809104026020016040519081016040528092919081815260200182805461089e906121e0565b80156108eb5780601f106108c0576101008083540402835291602001916108eb565b820191906000526020600020905b8154815290600101906020018083116108ce57829003601f168201915b5050505050905090565b610907610900610b8b565b838361108b565b5050565b61091c610916610b8b565b83610c4c565b61095b576040517f08c379a0000000000000000000000000000000000000000000000000000000008152600401610952906123a7565b60405180910390fd5b610967848484846111f7565b50505050565b606061097882611253565b9050919050565b6000610989610f47565b60006109956008611365565b90506109a16008611373565b6109ab8482611389565b6109b581846113a7565b8091505092915050565b6000600560008473ffffffffffffffffffffffffffffffffffffffff1673ffffffffffffffffffffffffffffffffffffffff16815260200190815260200160002060008373ffffffffffffffffffffffffffffffffffffffff1673ffffffffffffffffffffffffffffffffffffffff16815260200190815260200160002060009054906101000a900460ff16905092915050565b610a5b610f47565b600073ffffffffffffffffffffffffffffffffffffffff168173ffffffffffffffffffffffffffffffffffffffff1603610aca576040517f08c379a0000000000000000000000000000000000000000000000000000000008152600401610ac190612537565b60405180910390fd5b610ad381610fc5565b50565b60007f01ffc9a7000000000000000000000000000000000000000000000000000000007bffffffffffffffffffffffffffffffffffffffffffffffffffffffff1916827bffffffffffffffffffffffffffffffffffffffffffffffffffffffff1916149050919050565b610b498161141b565b610b88576040517f08c379a0000000000000000000000000000000000000000000000000000000008152600401610b7f90612413565b60405180910390fd5b50565b600033905090565b816004600083815260200190815260200160002060006101000a81548173ffffffffffffffffffffffffffffffffffffffff021916908373ffffffffffffffffffffffffffffffffffffffff160217905550808273ffffffffffffffffffffffffffffffffffffffff16610c06836106bd565b73ffffffffffffffffffffffffffffffffffffffff167f8c5be1e5ebec7d5bd14f71427d1e84f3dd0314c0f7b2291e5b200ac8c7c3b92560405160405180910390a45050565b600080610c58836106bd565b90508073ffffffffffffffffffffffffffffffffffffffff168473ffffffffffffffffffffffffffffffffffffffff161480610c9a5750610c9981856109bf565b5b80610cd857508373ffffffffffffffffffffffffffffffffffffffff16610cc0846104e0565b73ffffffffffffffffffffffffffffffffffffffff16145b91505092915050565b8273ffffffffffffffffffffffffffffffffffffffff16610d01826106bd565b73ffffffffffffffffffffffffffffffffffffffff1614610d57576040517f08c379a0000000000000000000000000000000000000000000000000000000008152600401610d4e906125c9565b60405180910390fd5b600073ffffffffffffffffffffffffffffffffffffffff168273ffffffffffffffffffffffffffffffffffffffff1603610dc6576040517f08c379a0000000000000000000000000000000000000000000000000000000008152600401610dbd9061265b565b60405180910390fd5b610dd1838383611487565b610ddc600082610b93565b6001600360008573ffffffffffffffffffffffffffffffffffffffff1673ffffffffffffffffffffffffffffffffffffffff1681526020019081526020016000206000828254610e2c91906126aa565b925050819055506001600360008473ffffffffffffffffffffffffffffffffffffffff1673ffffffffffffffffffffffffffffffffffffffff1681526020019081526020016000206000828254610e8391906126de565b92505081905550816002600083815260200190815260200160002060006101000a81548173ffffffffffffffffffffffffffffffffffffffff021916908373ffffffffffffffffffffffffffffffffffffffff160217905550808273ffffffffffffffffffffffffffffffffffffffff168473ffffffffffffffffffffffffffffffffffffffff167fddf252ad1be2c89b69c2b068fc378daa952ba7f163c4a11628f55a4df523b3ef60405160405180910390a4610f4283838361148c565b505050565b610f4f610b8b565b73ffffffffffffffffffffffffffffffffffffffff16610f6d610839565b73ffffffffffffffffffffffffffffffffffffffff1614610fc3576040517f08c379a0000000000000000000000000000000000000000000000000000000008152600401610fba90612780565b60405180910390fd5b565b6000600760009054906101000a900473ffffffffffffffffffffffffffffffffffffffff16905081600760006101000a81548173ffffffffffffffffffffffffffffffffffffffff021916908373ffffffffffffffffffffffffffffffffffffffff1602179055508173ffffffffffffffffffffffffffffffffffffffff168173ffffffffffffffffffffffffffffffffffffffff167f8be0079c531659141344cd1fd0a4f28419497f9722a3daafe3b4186f6b6457e060405160405180910390a35050565b8173ffffffffffffffffffffffffffffffffffffffff168373ffffffffffffffffffffffffffffffffffffffff16036110f9576040517f08c379a00000000000000000000000000000000000000000000000000000000081526004016110f0906127ec565b60405180910390fd5b80600560008573ffffffffffffffffffffffffffffffffffffffff1673ffffffffffffffffffffffffffffffffffffffff16815260200190815260200160002060008473ffffffffffffffffffffffffffffffffffffffff1673ffffffffffffffffffffffffffffffffffffffff16815260200190815260200160002060006101000a81548160ff0219169083151502179055508173ffffffffffffffffffffffffffffffffffffffff168373ffffffffffffffffffffffffffffffffffffffff167f17307eab39ab6107e8899845ad3d59bd9653f200f220920489ca2b5937696c31836040516111ea9190611ba5565b60405180910390a3505050565b611202848484610ce1565b61120e84848484611491565b61124d576040517f08c379a00000000000000000000000000000000000000000000000000000000081526004016112449061287e565b60405180910390fd5b50505050565b606061125e82610b40565b600060066000848152602001908152602001600020805461127e906121e0565b80601f01602080910402602001604051908101604052809291908181526020018280546112aa906121e0565b80156112f75780601f106112cc576101008083540402835291602001916112f7565b820191906000526020600020905b8154815290600101906020018083116112da57829003601f168201915b505050505090506000611308611618565b9050600081510361131d578192505050611360565b60008251111561135257808260405160200161133a9291906128da565b60405160208183030381529060405292505050611360565b61135b8461162f565b925050505b919050565b600081600001549050919050565b6001816000016000828254019250508190555050565b6113a3828260405180602001604052806000815250611697565b5050565b6113b08261141b565b6113ef576040517f08c379a00000000000000000000000000000000000000000000000000000000081526004016113e690612970565b60405180910390fd5b80600660008481526020019081526020016000209080519060200190611416929190611a4e565b505050565b60008073ffffffffffffffffffffffffffffffffffffffff166002600084815260200190815260200160002060009054906101000a900473ffffffffffffffffffffffffffffffffffffffff1673ffffffffffffffffffffffffffffffffffffffff1614159050919050565b505050565b505050565b60006114b28473ffffffffffffffffffffffffffffffffffffffff166116f2565b1561160b578373ffffffffffffffffffffffffffffffffffffffff1663150b7a026114db610b8b565b8786866040518563ffffffff1660e01b81526004016114fd94939291906129e5565b6020604051808303816000875af192505050801561153957506040513d601f19601f820116820180604052508101906115369190612a46565b60015b6115bb573d8060008114611569576040519150601f19603f3d011682016040523d82523d6000602084013e61156e565b606091505b5060008151036115b3576040517f08c379a00000000000000000000000000000000000000000000000000000000081526004016115aa9061287e565b60405180910390fd5b805181602001fd5b63150b7a0260e01b7bffffffffffffffffffffffffffffffffffffffffffffffffffffffff1916817bffffffffffffffffffffffffffffffffffffffffffffffffffffffff191614915050611610565b600190505b949350505050565b606060405180602001604052806000815250905090565b606061163a82610b40565b6000611644611618565b90506000815111611664576040518060200160405280600081525061168f565b8061166e84611715565b60405160200161167f9291906128da565b6040516020818303038152906040525b915050919050565b6116a18383611875565b6116ae6000848484611491565b6116ed576040517f08c379a00000000000000000000000000000000000000000000000000000000081526004016116e49061287e565b60405180910390fd5b505050565b6000808273ffffffffffffffffffffffffffffffffffffffff163b119050919050565b60606000820361175c576040518060400160405280600181526020017f30000000000000000000000000000000000000000000000000000000000000008152509050611870565b600082905060005b6000821461178e57808061177790612a73565b915050600a826117879190612aea565b9150611764565b60008167ffffffffffffffff8111156117aa576117a9611ec6565b5b6040519080825280601f01601f1916602001820160405280156117dc5781602001600182028036833780820191505090505b5090505b60008514611869576001826117f591906126aa565b9150600a856118049190612b1b565b603061181091906126de565b60f81b81838151811061182657611825612b4c565b5b60200101907effffffffffffffffffffffffffffffffffffffffffffffffffffffffffffff1916908160001a905350600a856118629190612aea565b94506117e0565b8093505050505b919050565b600073ffffffffffffffffffffffffffffffffffffffff168273ffffffffffffffffffffffffffffffffffffffff16036118e4576040517f08c379a00000000000000000000000000000000000000000000000000000000081526004016118db90612bc7565b60405180910390fd5b6118ed8161141b565b1561192d576040517f08c379a000000000000000000000000000000000000000000000000000000000815260040161192490612c33565b60405180910390fd5b61193960008383611487565b6001600360008473ffffffffffffffffffffffffffffffffffffffff1673ffffffffffffffffffffffffffffffffffffffff168152602001908152602001600020600082825461198991906126de565b92505081905550816002600083815260200190815260200160002060006101000a81548173ffffffffffffffffffffffffffffffffffffffff021916908373ffffffffffffffffffffffffffffffffffffffff160217905550808273ffffffffffffffffffffffffffffffffffffffff16600073ffffffffffffffffffffffffffffffffffffffff167fddf252ad1be2c89b69c2b068fc378daa952ba7f163c4a11628f55a4df523b3ef60405160405180910390a4611a4a6000838361148c565b5050565b828054611a5a906121e0565b90600052602060002090601f016020900481019282611a7c5760008555611ac3565b82601f10611a9557805160ff1916838001178555611ac3565b82800160010185558215611ac3579182015b82811115611ac2578251825591602001919060010190611aa7565b5b509050611ad09190611ad4565b5090565b5b80821115611aed576000816000905550600101611ad5565b5090565b6000604051905090565b600080fd5b600080fd5b60007fffffffff0000000000000000000000000000000000000000000000000000000082169050919050565b611b3a81611b05565b8114611b4557600080fd5b50565b600081359050611b5781611b31565b92915050565b600060208284031215611b7357611b72611afb565b5b6000611b8184828501611b48565b91505092915050565b60008115159050919050565b611b9f81611b8a565b82525050565b6000602082019050611bba6000830184611b96565b92915050565b600081519050919050565b600082825260208201905092915050565b60005b83811015611bfa578082015181840152602081019050611bdf565b83811115611c09576000848401525b50505050565b6000601f19601f8301169050919050565b6000611c2b82611bc0565b611c358185611bcb565b9350611c45818560208601611bdc565b611c4e81611c0f565b840191505092915050565b60006020820190508181036000830152611c738184611c20565b905092915050565b6000819050919050565b611c8e81611c7b565b8114611c9957600080fd5b50565b600081359050611cab81611c85565b92915050565b600060208284031215611cc757611cc6611afb565b5b6000611cd584828501611c9c565b91505092915050565b600073ffffffffffffffffffffffffffffffffffffffff82169050919050565b6000611d0982611cde565b9050919050565b611d1981611cfe565b82525050565b6000602082019050611d346000830184611d10565b92915050565b611d4381611cfe565b8114611d4e57600080fd5b50565b600081359050611d6081611d3a565b92915050565b60008060408385031215611d7d57611d7c611afb565b5b6000611d8b85828601611d51565b9250506020611d9c85828601611c9c565b9150509250929050565b600080600060608486031215611dbf57611dbe611afb565b5b6000611dcd86828701611d51565b9350506020611dde86828701611d51565b9250506040611def86828701611c9c565b9150509250925092565b600060208284031215611e0f57611e0e611afb565b5b6000611e1d84828501611d51565b91505092915050565b611e2f81611c7b565b82525050565b6000602082019050611e4a6000830184611e26565b92915050565b611e5981611b8a565b8114611e6457600080fd5b50565b600081359050611e7681611e50565b92915050565b60008060408385031215611e9357611e92611afb565b5b6000611ea185828601611d51565b9250506020611eb285828601611e67565b9150509250929050565b600080fd5b600080fd5b7f4e487b7100000000000000000000000000000000000000000000000000000000600052604160045260246000fd5b611efe82611c0f565b810181811067ffffffffffffffff82111715611f1d57611f1c611ec6565b5b80604052505050565b6000611f30611af1565b9050611f3c8282611ef5565b919050565b600067ffffffffffffffff821115611f5c57611f5b611ec6565b5b611f6582611c0f565b9050602081019050919050565b82818337600083830152505050565b6000611f94611f8f84611f41565b611f26565b905082815260208101848484011115611fb057611faf611ec1565b5b611fbb848285611f72565b509392505050565b600082601f830112611fd857611fd7611ebc565b5b8135611fe8848260208601611f81565b91505092915050565b6000806000806080858703121561200b5761200a611afb565b5b600061201987828801611d51565b945050602061202a87828801611d51565b935050604061203b87828801611c9c565b925050606085013567ffffffffffffffff81111561205c5761205b611b00565b5b61206887828801611fc3565b91505092959194509250565b600067ffffffffffffffff82111561208f5761208e611ec6565b5b61209882611c0f565b9050602081019050919050565b60006120b86120b384612074565b611f26565b9050828152602081018484840111156120d4576120d3611ec1565b5b6120df848285611f72565b509392505050565b600082601f8301126120fc576120fb611ebc565b5b813561210c8482602086016120a5565b91505092915050565b6000806040838503121561212c5761212b611afb565b5b600061213a85828601611d51565b925050602083013567ffffffffffffffff81111561215b5761215a611b00565b5b612167858286016120e7565b9150509250929050565b6000806040838503121561218857612187611afb565b5b600061219685828601611d51565b92505060206121a785828601611d51565b9150509250929050565b7f4e487b7100000000000000000000000000000000000000000000000000000000600052602260045260246000fd5b600060028204905060018216806121f857607f821691505b60208210810361220b5761220a6121b1565b5b50919050565b7f4552433732313a20617070726f76616c20746f2063757272656e74206f776e6560008201527f7200000000000000000000000000000000000000000000000000000000000000602082015250565b600061226d602183611bcb565b915061227882612211565b604082019050919050565b6000602082019050818103600083015261229c81612260565b9050919050565b7f4552433732313a20617070726f76652063616c6c6572206973206e6f7420746f60008201527f6b656e206f776e6572206e6f7220617070726f76656420666f7220616c6c0000602082015250565b60006122ff603e83611bcb565b915061230a826122a3565b604082019050919050565b6000602082019050818103600083015261232e816122f2565b9050919050565b7f4552433732313a2063616c6c6572206973206e6f7420746f6b656e206f776e6560008201527f72206e6f7220617070726f766564000000000000000000000000000000000000602082015250565b6000612391602e83611bcb565b915061239c82612335565b604082019050919050565b600060208201905081810360008301526123c081612384565b9050919050565b7f4552433732313a20696e76616c696420746f6b656e2049440000000000000000600082015250565b60006123fd601883611bcb565b9150612408826123c7565b602082019050919050565b6000602082019050818103600083015261242c816123f0565b9050919050565b7f4552433732313a2061646472657373207a65726f206973206e6f74206120766160008201527f6c6964206f776e65720000000000000000000000000000000000000000000000602082015250565b600061248f602983611bcb565b915061249a82612433565b604082019050919050565b600060208201905081810360008301526124be81612482565b9050919050565b7f4f776e61626c653a206e6577206f776e657220697320746865207a65726f206160008201527f6464726573730000000000000000000000000000000000000000000000000000602082015250565b6000612521602683611bcb565b915061252c826124c5565b604082019050919050565b6000602082019050818103600083015261255081612514565b9050919050565b7f4552433732313a207472616e736665722066726f6d20696e636f72726563742060008201527f6f776e6572000000000000000000000000000000000000000000000000000000602082015250565b60006125b3602583611bcb565b91506125be82612557565b604082019050919050565b600060208201905081810360008301526125e2816125a6565b9050919050565b7f4552433732313a207472616e7366657220746f20746865207a65726f2061646460008201527f7265737300000000000000000000000000000000000000000000000000000000602082015250565b6000612645602483611bcb565b9150612650826125e9565b604082019050919050565b6000602082019050818103600083015261267481612638565b9050919050565b7f4e487b7100000000000000000000000000000000000000000000000000000000600052601160045260246000fd5b60006126b582611c7b565b91506126c083611c7b565b9250828210156126d3576126d261267b565b5b828203905092915050565b60006126e982611c7b565b91506126f483611c7b565b9250827fffffffffffffffffffffffffffffffffffffffffffffffffffffffffffffffff038211156127295761272861267b565b5b828201905092915050565b7f4f776e61626c653a2063616c6c6572206973206e6f7420746865206f776e6572600082015250565b600061276a602083611bcb565b915061277582612734565b602082019050919050565b600060208201905081810360008301526127998161275d565b9050919050565b7f4552433732313a20617070726f766520746f2063616c6c657200000000000000600082015250565b60006127d6601983611bcb565b91506127e1826127a0565b602082019050919050565b60006020820190508181036000830152612805816127c9565b9050919050565b7f4552433732313a207472616e7366657220746f206e6f6e20455243373231526560008201527f63656976657220696d706c656d656e7465720000000000000000000000000000602082015250565b6000612868603283611bcb565b91506128738261280c565b604082019050919050565b600060208201905081810360008301526128978161285b565b9050919050565b600081905092915050565b60006128b482611bc0565b6128be818561289e565b93506128ce818560208601611bdc565b80840191505092915050565b60006128e682856128a9565b91506128f282846128a9565b91508190509392505050565b7f45524337323155524953746f726167653a2055524920736574206f66206e6f6e60008201527f6578697374656e7420746f6b656e000000000000000000000000000000000000602082015250565b600061295a602e83611bcb565b9150612965826128fe565b604082019050919050565b600060208201905081810360008301526129898161294d565b9050919050565b600081519050919050565b600082825260208201905092915050565b60006129b782612990565b6129c1818561299b565b93506129d1818560208601611bdc565b6129da81611c0f565b840191505092915050565b60006080820190506129fa6000830187611d10565b612a076020830186611d10565b612a146040830185611e26565b8181036060830152612a2681846129ac565b905095945050505050565b600081519050612a4081611b31565b92915050565b600060208284031215612a5c57612a5b611afb565b5b6000612a6a84828501612a31565b91505092915050565b6000612a7e82611c7b565b91507fffffffffffffffffffffffffffffffffffffffffffffffffffffffffffffffff8203612ab057612aaf61267b565b5b600182019050919050565b7f4e487b7100000000000000000000000000000000000000000000000000000000600052601260045260246000fd5b6000612af582611c7b565b9150612b0083611c7b565b925082612b1057612b0f612abb565b5b828204905092915050565b6000612b2682611c7b565b9150612b3183611c7b565b925082612b4157612b40612abb565b5b828206905092915050565b7f4e487b7100000000000000000000000000000000000000000000000000000000600052603260045260246000fd5b7f4552433732313a206d696e7420746f20746865207a65726f2061646472657373600082015250565b6000612bb1602083611bcb565b9150612bbc82612b7b565b602082019050919050565b60006020820190508181036000830152612be081612ba4565b9050919050565b7f4552433732313a20746f6b656e20616c7265616479206d696e74656400000000600082015250565b6000612c1d601c83611bcb565b9150612c2882612be7565b602082019050919050565b60006020820190508181036000830152612c4c81612c10565b905091905056fea2646970667358221220fb2209a3089235a386986e0737a73295b1ac94f8ea537bdc406aea3c1f9185cf64736f6c634300080d0033",
  "linkReferences": {},
  "deployedLinkReferences": {}
}