{
  "_format": "hh-sol-artifact-1",
  "contractName": "TazMessage",
  "sourceName": "contracts/TazMessage.sol",
  "abi": [
    {
      "inputs": [
        {
          "internalType": "contract ISemaphore",
          "name": "semaContractAddr",
          "type": "address"
        }
      ],
      "stateMutability": "nonpayable",
      "type": "constructor"
    },
    {
      "anonymous": false,
      "inputs": [
        {
          "indexed": false,
          "internalType": "uint256",
          "name": "parentMessageId",
          "type": "uint256"
        },
        {
          "indexed": false,
          "internalType": "uint256",
          "name": "messageId",
          "type": "uint256"
        },
        {
          "indexed": false,
          "internalType": "string",
          "name": "messageContent",
          "type": "string"
        }
      ],
      "name": "MessageAdded",
      "type": "event"
    },
    {
      "anonymous": false,
      "inputs": [
        {
          "indexed": true,
          "internalType": "address",
          "name": "previousOwner",
          "type": "address"
        },
        {
          "indexed": true,
          "internalType": "address",
          "name": "newOwner",
          "type": "address"
        }
      ],
      "name": "OwnershipTransferred",
      "type": "event"
    },
    {
      "inputs": [
        {
          "internalType": "uint256",
          "name": "messageId",
          "type": "uint256"
        },
        {
          "internalType": "string",
          "name": "messageContent",
          "type": "string"
        },
        {
          "internalType": "uint256",
          "name": "groupId",
          "type": "uint256"
        },
        {
          "internalType": "bytes32",
          "name": "signal",
          "type": "bytes32"
        },
        {
          "internalType": "uint256",
          "name": "nullifierHash",
          "type": "uint256"
        },
        {
          "internalType": "uint256",
          "name": "externalNullifier",
          "type": "uint256"
        },
        {
          "internalType": "uint256[8]",
          "name": "proof",
          "type": "uint256[8]"
        }
      ],
      "name": "addMessage",
      "outputs": [],
      "stateMutability": "nonpayable",
      "type": "function"
    },
    {
      "inputs": [],
      "name": "owner",
      "outputs": [
        {
          "internalType": "address",
          "name": "",
          "type": "address"
        }
      ],
      "stateMutability": "view",
      "type": "function"
    },
    {
      "inputs": [],
      "name": "renounceOwnership",
      "outputs": [],
      "stateMutability": "nonpayable",
      "type": "function"
    },
    {
      "inputs": [
        {
          "internalType": "uint256",
          "name": "parentMessageId",
          "type": "uint256"
        },
        {
          "internalType": "uint256",
          "name": "messageId",
          "type": "uint256"
        },
        {
          "internalType": "string",
          "name": "messageContent",
          "type": "string"
        },
        {
          "internalType": "uint256",
          "name": "groupId",
          "type": "uint256"
        },
        {
          "internalType": "bytes32",
          "name": "signal",
          "type": "bytes32"
        },
        {
          "internalType": "uint256",
          "name": "nullifierHash",
          "type": "uint256"
        },
        {
          "internalType": "uint256",
          "name": "externalNullifier",
          "type": "uint256"
        },
        {
          "internalType": "uint256[8]",
          "name": "proof",
          "type": "uint256[8]"
        }
      ],
      "name": "replyToMessage",
      "outputs": [],
      "stateMutability": "nonpayable",
      "type": "function"
    },
    {
      "inputs": [],
      "name": "semaContract",
      "outputs": [
        {
          "internalType": "contract ISemaphore",
          "name": "",
          "type": "address"
        }
      ],
      "stateMutability": "view",
      "type": "function"
    },
    {
      "inputs": [
        {
          "internalType": "address",
          "name": "newOwner",
          "type": "address"
        }
      ],
      "name": "transferOwnership",
      "outputs": [],
      "stateMutability": "nonpayable",
      "type": "function"
    }
  ],
  "bytecode": "0x60806040523480156200001157600080fd5b5060405162001290380380620012908339818101604052810190620000379190620002e8565b620000576200004b620000cf60201b60201c565b620000d760201b60201c565b80600160006101000a81548173ffffffffffffffffffffffffffffffffffffffff021916908373ffffffffffffffffffffffffffffffffffffffff160217905550620000c86040518060600160405280602b815260200162001265602b9139336200019b60201b620003de1760201c565b5062000403565b600033905090565b60008060009054906101000a900473ffffffffffffffffffffffffffffffffffffffff169050816000806101000a81548173ffffffffffffffffffffffffffffffffffffffff021916908373ffffffffffffffffffffffffffffffffffffffff1602179055508173ffffffffffffffffffffffffffffffffffffffff168173ffffffffffffffffffffffffffffffffffffffff167f8be0079c531659141344cd1fd0a4f28419497f9722a3daafe3b4186f6b6457e060405160405180910390a35050565b6200023d8282604051602401620001b4929190620003cf565b6040516020818303038152906040527f319af333000000000000000000000000000000000000000000000000000000007bffffffffffffffffffffffffffffffffffffffffffffffffffffffff19166020820180517bffffffffffffffffffffffffffffffffffffffffffffffffffffffff83818316178352505050506200024160201b60201c565b5050565b60008151905060006a636f6e736f6c652e6c6f679050602083016000808483855afa5050505050565b600080fd5b600073ffffffffffffffffffffffffffffffffffffffff82169050919050565b60006200029c826200026f565b9050919050565b6000620002b0826200028f565b9050919050565b620002c281620002a3565b8114620002ce57600080fd5b50565b600081519050620002e281620002b7565b92915050565b6000602082840312156200030157620003006200026a565b5b60006200031184828501620002d1565b91505092915050565b600081519050919050565b600082825260208201905092915050565b60005b838110156200035657808201518184015260208101905062000339565b8381111562000366576000848401525b50505050565b6000601f19601f8301169050919050565b60006200038a826200031a565b62000396818562000325565b9350620003a881856020860162000336565b620003b3816200036c565b840191505092915050565b620003c9816200028f565b82525050565b60006040820190508181036000830152620003eb81856200037d565b9050620003fc6020830184620003be565b9392505050565b610e5280620004136000396000f3fe608060405234801561001057600080fd5b50600436106100625760003560e01c80635c4be63614610067578063715018a6146100835780638a8deed71461008d5780638da5cb5b146100ab578063953bd7b8146100c9578063f2fde38b146100e5575b600080fd5b610081600480360381019061007c91906107da565b610101565b005b61008b61021e565b005b610095610232565b6040516100a2919061092b565b60405180910390f35b6100b3610258565b6040516100c09190610967565b60405180910390f35b6100e360048036038101906100de9190610982565b610281565b005b6100ff60048036038101906100fa9190610a6d565b61035b565b005b60008811610144576040517f08c379a000000000000000000000000000000000000000000000000000000000815260040161013b90610b1d565b60405180910390fd5b600160009054906101000a900473ffffffffffffffffffffffffffffffffffffffff1673ffffffffffffffffffffffffffffffffffffffff16636673e84986868686866040518663ffffffff1660e01b81526004016101a7959493929190610b6c565b600060405180830381600087803b1580156101c157600080fd5b505af11580156101d5573d6000803e3d6000fd5b505050507f7343c5945fb9994d979fb307bfe005b639688e232f6a59423880c9d3e6564ab588888860405161020c93929190610c37565b60405180910390a15050505050505050565b61022661047a565b61023060006104f8565b565b600160009054906101000a900473ffffffffffffffffffffffffffffffffffffffff1681565b60008060009054906101000a900473ffffffffffffffffffffffffffffffffffffffff16905090565b600160009054906101000a900473ffffffffffffffffffffffffffffffffffffffff1673ffffffffffffffffffffffffffffffffffffffff16636673e84986868686866040518663ffffffff1660e01b81526004016102e4959493929190610b6c565b600060405180830381600087803b1580156102fe57600080fd5b505af1158015610312573d6000803e3d6000fd5b505050507f7343c5945fb9994d979fb307bfe005b639688e232f6a59423880c9d3e6564ab56000888860405161034a93929190610cb0565b60405180910390a150505050505050565b61036361047a565b600073ffffffffffffffffffffffffffffffffffffffff168173ffffffffffffffffffffffffffffffffffffffff16036103d2576040517f08c379a00000000000000000000000000000000000000000000000000000000081526004016103c990610d60565b60405180910390fd5b6103db816104f8565b50565b61047682826040516024016103f4929190610d80565b6040516020818303038152906040527f319af333000000000000000000000000000000000000000000000000000000007bffffffffffffffffffffffffffffffffffffffffffffffffffffffff19166020820180517bffffffffffffffffffffffffffffffffffffffffffffffffffffffff83818316178352505050506105bc565b5050565b6104826105e5565b73ffffffffffffffffffffffffffffffffffffffff166104a0610258565b73ffffffffffffffffffffffffffffffffffffffff16146104f6576040517f08c379a00000000000000000000000000000000000000000000000000000000081526004016104ed90610dfc565b60405180910390fd5b565b60008060009054906101000a900473ffffffffffffffffffffffffffffffffffffffff169050816000806101000a81548173ffffffffffffffffffffffffffffffffffffffff021916908373ffffffffffffffffffffffffffffffffffffffff1602179055508173ffffffffffffffffffffffffffffffffffffffff168173ffffffffffffffffffffffffffffffffffffffff167f8be0079c531659141344cd1fd0a4f28419497f9722a3daafe3b4186f6b6457e060405160405180910390a35050565b60008151905060006a636f6e736f6c652e6c6f679050602083016000808483855afa5050505050565b600033905090565b6000604051905090565b600080fd5b600080fd5b6000819050919050565b61061481610601565b811461061f57600080fd5b50565b6000813590506106318161060b565b92915050565b600080fd5b600080fd5b6000601f19601f8301169050919050565b7f4e487b7100000000000000000000000000000000000000000000000000000000600052604160045260246000fd5b61068a82610641565b810181811067ffffffffffffffff821117156106a9576106a8610652565b5b80604052505050565b60006106bc6105ed565b90506106c88282610681565b919050565b600067ffffffffffffffff8211156106e8576106e7610652565b5b6106f182610641565b9050602081019050919050565b82818337600083830152505050565b600061072061071b846106cd565b6106b2565b90508281526020810184848401111561073c5761073b61063c565b5b6107478482856106fe565b509392505050565b600082601f83011261076457610763610637565b5b813561077484826020860161070d565b91505092915050565b6000819050919050565b6107908161077d565b811461079b57600080fd5b50565b6000813590506107ad81610787565b92915050565b600080fd5b6000819050826020600802820111156107d4576107d36107b3565b5b92915050565b6000806000806000806000806101e0898b0312156107fb576107fa6105f7565b5b60006108098b828c01610622565b985050602061081a8b828c01610622565b975050604089013567ffffffffffffffff81111561083b5761083a6105fc565b5b6108478b828c0161074f565b96505060606108588b828c01610622565b95505060806108698b828c0161079e565b94505060a061087a8b828c01610622565b93505060c061088b8b828c01610622565b92505060e061089c8b828c016107b8565b9150509295985092959890939650565b600073ffffffffffffffffffffffffffffffffffffffff82169050919050565b6000819050919050565b60006108f16108ec6108e7846108ac565b6108cc565b6108ac565b9050919050565b6000610903826108d6565b9050919050565b6000610915826108f8565b9050919050565b6109258161090a565b82525050565b6000602082019050610940600083018461091c565b92915050565b6000610951826108ac565b9050919050565b61096181610946565b82525050565b600060208201905061097c6000830184610958565b92915050565b60008060008060008060006101c0888a0312156109a2576109a16105f7565b5b60006109b08a828b01610622565b975050602088013567ffffffffffffffff8111156109d1576109d06105fc565b5b6109dd8a828b0161074f565b96505060406109ee8a828b01610622565b95505060606109ff8a828b0161079e565b9450506080610a108a828b01610622565b93505060a0610a218a828b01610622565b92505060c0610a328a828b016107b8565b91505092959891949750929550565b610a4a81610946565b8114610a5557600080fd5b50565b600081359050610a6781610a41565b92915050565b600060208284031215610a8357610a826105f7565b5b6000610a9184828501610a58565b91505092915050565b600082825260208201905092915050565b7f496e76616c69642049442070726f766964656420666f7220706172656e74206d60008201527f6573736167650000000000000000000000000000000000000000000000000000602082015250565b6000610b07602683610a9a565b9150610b1282610aab565b604082019050919050565b60006020820190508181036000830152610b3681610afa565b9050919050565b610b4681610601565b82525050565b610b558161077d565b82525050565b610b6861010083836106fe565b5050565b600061018082019050610b826000830188610b3d565b610b8f6020830187610b4c565b610b9c6040830186610b3d565b610ba96060830185610b3d565b610bb66080830184610b5b565b9695505050505050565b600081519050919050565b60005b83811015610be9578082015181840152602081019050610bce565b83811115610bf8576000848401525b50505050565b6000610c0982610bc0565b610c138185610a9a565b9350610c23818560208601610bcb565b610c2c81610641565b840191505092915050565b6000606082019050610c4c6000830186610b3d565b610c596020830185610b3d565b8181036040830152610c6b8184610bfe565b9050949350505050565b6000819050919050565b6000610c9a610c95610c9084610c75565b6108cc565b610601565b9050919050565b610caa81610c7f565b82525050565b6000606082019050610cc56000830186610ca1565b610cd26020830185610b3d565b8181036040830152610ce48184610bfe565b9050949350505050565b7f4f776e61626c653a206e6577206f776e657220697320746865207a65726f206160008201527f6464726573730000000000000000000000000000000000000000000000000000602082015250565b6000610d4a602683610a9a565b9150610d5582610cee565b604082019050919050565b60006020820190508181036000830152610d7981610d3d565b9050919050565b60006040820190508181036000830152610d9a8185610bfe565b9050610da96020830184610958565b9392505050565b7f4f776e61626c653a2063616c6c6572206973206e6f7420746865206f776e6572600082015250565b6000610de6602083610a9a565b9150610df182610db0565b602082019050919050565b60006020820190508181036000830152610e1581610dd9565b905091905056fea2646970667358221220b822535c2c593d44e6440ba31cee3bbea3f53929f3fd546a77ab6023039c29e564736f6c634300080d00334465706c6f79696e6720612054617a4d65737361676520636f6e74726163742077697468206f776e65723a",
  "linkReferences": {},
  "deployedLinkReferences": {}
}