{
  "_format": "hh-sol-artifact-1",
  "contractName": "Semaphore",
  "sourceName": "contracts/Semaphore.sol",
  "abi": [
    {
      "inputs": [
        {
          "components": [
            {
              "internalType": "address",
              "name": "contractAddress",
              "type": "address"
            },
            {
              "internalType": "uint256",
              "name": "merkleTreeDepth",
              "type": "uint256"
            }
          ],
          "internalType": "struct ISemaphore.Verifier[]",
          "name": "_verifiers",
          "type": "tuple[]"
        }
      ],
      "stateMutability": "nonpayable",
      "type": "constructor"
    },
    {
      "inputs": [],
      "name": "Semaphore__CallerIsNotTheGroupAdmin",
      "type": "error"
    },
    {
      "inputs": [],
      "name": "Semaphore__GroupAlreadyExists",
      "type": "error"
    },
    {
      "inputs": [],
      "name": "Semaphore__GroupDoesNotExist",
      "type": "error"
    },
    {
      "inputs": [],
      "name": "Semaphore__GroupIdIsNotLessThanSnarkScalarField",
      "type": "error"
    },
    {
      "inputs": [],
      "name": "Semaphore__TreeDepthIsNotSupported",
      "type": "error"
    },
    {
      "inputs": [],
      "name": "Semaphore__YouAreUsingTheSameNillifierTwice",
      "type": "error"
    },
    {
      "anonymous": false,
      "inputs": [
        {
          "indexed": true,
          "internalType": "uint256",
          "name": "groupId",
          "type": "uint256"
        },
        {
          "indexed": true,
          "internalType": "address",
          "name": "oldAdmin",
          "type": "address"
        },
        {
          "indexed": true,
          "internalType": "address",
          "name": "newAdmin",
          "type": "address"
        }
      ],
      "name": "GroupAdminUpdated",
      "type": "event"
    },
    {
      "anonymous": false,
      "inputs": [
        {
          "indexed": true,
          "internalType": "uint256",
          "name": "groupId",
          "type": "uint256"
        },
        {
          "indexed": false,
          "internalType": "uint256",
          "name": "depth",
          "type": "uint256"
        },
        {
          "indexed": false,
          "internalType": "uint256",
          "name": "zeroValue",
          "type": "uint256"
        }
      ],
      "name": "GroupCreated",
      "type": "event"
    },
    {
      "anonymous": false,
      "inputs": [
        {
          "indexed": true,
          "internalType": "uint256",
          "name": "groupId",
          "type": "uint256"
        },
        {
          "indexed": false,
          "internalType": "uint256",
          "name": "identityCommitment",
          "type": "uint256"
        },
        {
          "indexed": false,
          "internalType": "uint256",
          "name": "root",
          "type": "uint256"
        }
      ],
      "name": "MemberAdded",
      "type": "event"
    },
    {
      "anonymous": false,
      "inputs": [
        {
          "indexed": true,
          "internalType": "uint256",
          "name": "groupId",
          "type": "uint256"
        },
        {
          "indexed": false,
          "internalType": "uint256",
          "name": "identityCommitment",
          "type": "uint256"
        },
        {
          "indexed": false,
          "internalType": "uint256",
          "name": "root",
          "type": "uint256"
        }
      ],
      "name": "MemberRemoved",
      "type": "event"
    },
    {
      "anonymous": false,
      "inputs": [
        {
          "indexed": false,
          "internalType": "uint256",
          "name": "nullifierHash",
          "type": "uint256"
        }
      ],
      "name": "NullifierHashAdded",
      "type": "event"
    },
    {
      "anonymous": false,
      "inputs": [
        {
          "indexed": true,
          "internalType": "uint256",
          "name": "groupId",
          "type": "uint256"
        },
        {
          "indexed": false,
          "internalType": "bytes32",
          "name": "signal",
          "type": "bytes32"
        }
      ],
      "name": "ProofVerified",
      "type": "event"
    },
    {
      "inputs": [
        {
          "internalType": "uint256",
          "name": "groupId",
          "type": "uint256"
        },
        {
          "internalType": "uint256",
          "name": "identityCommitment",
          "type": "uint256"
        }
      ],
      "name": "addMember",
      "outputs": [],
      "stateMutability": "nonpayable",
      "type": "function"
    },
    {
      "inputs": [
        {
          "internalType": "uint256",
          "name": "groupId",
          "type": "uint256"
        },
        {
          "internalType": "uint256",
          "name": "depth",
          "type": "uint256"
        },
        {
          "internalType": "uint256",
          "name": "zeroValue",
          "type": "uint256"
        },
        {
          "internalType": "address",
          "name": "admin",
          "type": "address"
        }
      ],
      "name": "createGroup",
      "outputs": [],
      "stateMutability": "nonpayable",
      "type": "function"
    },
    {
      "inputs": [
        {
          "internalType": "uint256",
          "name": "groupId",
          "type": "uint256"
        }
      ],
      "name": "getDepth",
      "outputs": [
        {
          "internalType": "uint256",
          "name": "",
          "type": "uint256"
        }
      ],
      "stateMutability": "view",
      "type": "function"
    },
    {
      "inputs": [
        {
          "internalType": "uint256",
          "name": "groupId",
          "type": "uint256"
        }
      ],
      "name": "getNumberOfLeaves",
      "outputs": [
        {
          "internalType": "uint256",
          "name": "",
          "type": "uint256"
        }
      ],
      "stateMutability": "view",
      "type": "function"
    },
    {
      "inputs": [
        {
          "internalType": "uint256",
          "name": "groupId",
          "type": "uint256"
        }
      ],
      "name": "getRoot",
      "outputs": [
        {
          "internalType": "uint256",
          "name": "",
          "type": "uint256"
        }
      ],
      "stateMutability": "view",
      "type": "function"
    },
    {
      "inputs": [
        {
          "internalType": "uint256",
          "name": "",
          "type": "uint256"
        }
      ],
      "name": "groupAdmins",
      "outputs": [
        {
          "internalType": "address",
          "name": "",
          "type": "address"
        }
      ],
      "stateMutability": "view",
      "type": "function"
    },
    {
      "inputs": [
        {
          "internalType": "uint256",
          "name": "groupId",
          "type": "uint256"
        },
        {
          "internalType": "uint256",
          "name": "identityCommitment",
          "type": "uint256"
        },
        {
          "internalType": "uint256[]",
          "name": "proofSiblings",
          "type": "uint256[]"
        },
        {
          "internalType": "uint8[]",
          "name": "proofPathIndices",
          "type": "uint8[]"
        }
      ],
      "name": "removeMember",
      "outputs": [],
      "stateMutability": "nonpayable",
      "type": "function"
    },
    {
      "inputs": [
        {
          "internalType": "uint256",
          "name": "groupId",
          "type": "uint256"
        },
        {
          "internalType": "address",
          "name": "newAdmin",
          "type": "address"
        }
      ],
      "name": "updateGroupAdmin",
      "outputs": [],
      "stateMutability": "nonpayable",
      "type": "function"
    },
    {
      "inputs": [
        {
          "internalType": "uint256",
          "name": "",
          "type": "uint256"
        }
      ],
      "name": "verifiers",
      "outputs": [
        {
          "internalType": "contract IVerifier",
          "name": "",
          "type": "address"
        }
      ],
      "stateMutability": "view",
      "type": "function"
    },
    {
      "inputs": [
        {
          "internalType": "uint256",
          "name": "groupId",
          "type": "uint256"
        },
        {
          "internalType": "bytes32",
          "name": "signal",
          "type": "bytes32"
        },
        {
          "internalType": "uint256",
          "name": "nullifierHash",
          "type": "uint256"
        },
        {
          "internalType": "uint256",
          "name": "externalNullifier",
          "type": "uint256"
        },
        {
          "internalType": "uint256[8]",
          "name": "proof",
          "type": "uint256[8]"
        }
      ],
      "name": "verifyProof",
      "outputs": [],
      "stateMutability": "nonpayable",
      "type": "function"
    }
  ],
  "bytecode": "0x60806040523480156200001157600080fd5b5060405162001cc338038062001cc3833981810160405281019062000037919062000260565b60005b81518160ff1610156200013557818160ff168151811062000084577f4e487b7100000000000000000000000000000000000000000000000000000000600052603260045260246000fd5b60200260200101516000015160026000848460ff1681518110620000d1577f4e487b7100000000000000000000000000000000000000000000000000000000600052603260045260246000fd5b602002602001015160200151815260200190815260200160002060006101000a81548173ffffffffffffffffffffffffffffffffffffffff021916908373ffffffffffffffffffffffffffffffffffffffff1602179055508060010190506200003a565b5050620003e5565b6000620001546200014e84620002ce565b620002a5565b905080838252602082019050828560408602820111156200017457600080fd5b60005b85811015620001a857816200018d8882620001f6565b84526020840193506040830192505060018101905062000177565b5050509392505050565b600081519050620001c381620003b1565b92915050565b600082601f830112620001db57600080fd5b8151620001ed8482602086016200013d565b91505092915050565b6000604082840312156200020957600080fd5b620002156040620002a5565b905060006200022784828501620001b2565b60008301525060206200023d8482850162000249565b60208301525092915050565b6000815190506200025a81620003cb565b92915050565b6000602082840312156200027357600080fd5b600082015167ffffffffffffffff8111156200028e57600080fd5b6200029c84828501620001c9565b91505092915050565b6000620002b1620002c4565b9050620002bf82826200033b565b919050565b6000604051905090565b600067ffffffffffffffff821115620002ec57620002eb62000371565b5b602082029050602081019050919050565b60006200030a8262000311565b9050919050565b600073ffffffffffffffffffffffffffffffffffffffff82169050919050565b6000819050919050565b6200034682620003a0565b810181811067ffffffffffffffff8211171562000368576200036762000371565b5b80604052505050565b7f4e487b7100000000000000000000000000000000000000000000000000000000600052604160045260246000fd5b6000601f19601f8301169050919050565b620003bc81620002fd565b8114620003c857600080fd5b50565b620003d68162000331565b8114620003e257600080fd5b50565b6118ce80620003f56000396000f3fe608060405234801561001057600080fd5b506004361061009e5760003560e01c806375e618c91161006657806375e618c91461012f5780639b24b3b01461015f578063ac1eff681461018f578063ac28eacd146101bf578063b9c78c2b146101ef5761009e565b8063059f1bb5146100a35780631783efc3146100bf57806343989f85146100db578063568ee826146100f75780636673e84914610113575b600080fd5b6100bd60048036038101906100b891906111d9565b61021f565b005b6100d960048036038101906100d49190611102565b61037a565b005b6100f560048036038101906100f0919061113e565b610429565b005b610111600480360381019061010c919061104e565b6104e0565b005b61012d6004803603810190610128919061108a565b610639565b005b61014960048036038101906101449190611025565b61071f565b6040516101569190611686565b60405180910390f35b61017960048036038101906101749190611025565b61073f565b6040516101869190611686565b60405180910390f35b6101a960048036038101906101a49190611025565b61075f565b6040516101b691906115b4565b60405180910390f35b6101d960048036038101906101d49190611025565b610792565b6040516101e69190611537565b60405180910390f35b61020960048036038101906102049190611025565b6107c5565b6040516102169190611686565b60405180910390f35b82600073ffffffffffffffffffffffffffffffffffffffff166002600083815260200190815260200160002060009054906101000a900473ffffffffffffffffffffffffffffffffffffffff1673ffffffffffffffffffffffffffffffffffffffff1614156102ba576040517f1a08ae0600000000000000000000000000000000000000000000000000000000815260040160405180910390fd5b6102c58585856107e5565b816003600087815260200190815260200160002060006101000a81548173ffffffffffffffffffffffffffffffffffffffff021916908373ffffffffffffffffffffffffffffffffffffffff1602179055508173ffffffffffffffffffffffffffffffffffffffff16600073ffffffffffffffffffffffffffffffffffffffff16867f0ba83579a0e79193ef649b9f5a8759d35af086ba62a3e207b52e4a8ae30d49e360405160405180910390a45050505050565b8161038361093e565b73ffffffffffffffffffffffffffffffffffffffff166003600083815260200190815260200160002060009054906101000a900473ffffffffffffffffffffffffffffffffffffffff1673ffffffffffffffffffffffffffffffffffffffff161461041a576040517fbb9bf27800000000000000000000000000000000000000000000000000000000815260040160405180910390fd5b6104248383610946565b505050565b8561043261093e565b73ffffffffffffffffffffffffffffffffffffffff166003600083815260200190815260200160002060009054906101000a900473ffffffffffffffffffffffffffffffffffffffff1673ffffffffffffffffffffffffffffffffffffffff16146104c9576040517fbb9bf27800000000000000000000000000000000000000000000000000000000815260040160405180910390fd5b6104d7878787878787610a52565b50505050505050565b816104e961093e565b73ffffffffffffffffffffffffffffffffffffffff166003600083815260200190815260200160002060009054906101000a900473ffffffffffffffffffffffffffffffffffffffff1673ffffffffffffffffffffffffffffffffffffffff1614610580576040517fbb9bf27800000000000000000000000000000000000000000000000000000000815260040160405180910390fd5b816003600085815260200190815260200160002060006101000a81548173ffffffffffffffffffffffffffffffffffffffff021916908373ffffffffffffffffffffffffffffffffffffffff1602179055508173ffffffffffffffffffffffffffffffffffffffff166105f161093e565b73ffffffffffffffffffffffffffffffffffffffff16847f0ba83579a0e79193ef649b9f5a8759d35af086ba62a3e207b52e4a8ae30d49e360405160405180910390a4505050565b60006106448661073f565b905060006106518761071f565b9050600081141561068e576040517f029f057900000000000000000000000000000000000000000000000000000000815260040160405180910390fd5b60006002600083815260200190815260200160002060009054906101000a900473ffffffffffffffffffffffffffffffffffffffff1690506106d4878488888886610b6a565b6106dd86610eba565b877f102229041138505f4cecdadc8e3ac1cd92c55870c17371050fc00bdb088898018860405161070d9190611599565b60405180910390a25050505050505050565b600060016000838152602001908152602001600020600001549050919050565b600060016000838152602001908152602001600020600101549050919050565b60026020528060005260406000206000915054906101000a900473ffffffffffffffffffffffffffffffffffffffff1681565b60036020528060005260406000206000915054906101000a900473ffffffffffffffffffffffffffffffffffffffff1681565b600060016000838152602001908152602001600020600201549050919050565b7f30644e72e131a029b85045b68181585d2833e84879b9709143e1f593f0000001831061083e576040517fa61c78ca00000000000000000000000000000000000000000000000000000000815260040160405180910390fd5b60006108498461071f565b14610880576040517f8121725b00000000000000000000000000000000000000000000000000000000815260040160405180910390fd5b6001600084815260200190815260200160002073__$0c6eb7207c37accf1552a1c47686411ac0$__631095fbb4909184846040518463ffffffff1660e01b81526004016108cf9392919061164f565b60006040518083038186803b1580156108e757600080fd5b505af41580156108fb573d6000803e3d6000fd5b50505050827f0d000126c26c1bbe400fd2332187f75d58b69306f9ec47b408686189d3a0083383836040516109319291906116a1565b60405180910390a2505050565b600033905090565b60006109518361071f565b1415610989576040517f029f057900000000000000000000000000000000000000000000000000000000815260040160405180910390fd5b6001600083815260200190815260200160002073__$0c6eb7207c37accf1552a1c47686411ac0$__63168703fa9091836040518363ffffffff1660e01b81526004016109d69291906115cf565b60006040518083038186803b1580156109ee57600080fd5b505af4158015610a02573d6000803e3d6000fd5b505050506000610a118361073f565b9050827f03fd27265b7dd1f55558bedc22a58fa3b10afb1be776e614bd5a7ba7b94994068383604051610a459291906116a1565b60405180910390a2505050565b6000610a5d8761071f565b1415610a95576040517f029f057900000000000000000000000000000000000000000000000000000000815260040160405180910390fd5b6001600087815260200190815260200160002073__$0c6eb7207c37accf1552a1c47686411ac0$__630629596f909187878787876040518763ffffffff1660e01b8152600401610aea969594939291906115f8565b60006040518083038186803b158015610b0257600080fd5b505af4158015610b16573d6000803e3d6000fd5b505050506000610b258761073f565b9050867fe270325ded177064d7bda473e6519ef40a291058c41286f71a6e4872f1e9ab5c8783604051610b599291906116a1565b60405180910390a250505050505050565b60008085815260200190815260200160002060009054906101000a900460ff1615610bc1576040517f948d067400000000000000000000000000000000000000000000000000000000815260040160405180910390fd5b6000610bcc87610ee8565b90508173ffffffffffffffffffffffffffffffffffffffff16635fe8c13b604051806040016040528086600060088110610c2f577f4e487b7100000000000000000000000000000000000000000000000000000000600052603260045260246000fd5b6020020135815260200186600160088110610c73577f4e487b7100000000000000000000000000000000000000000000000000000000600052603260045260246000fd5b60200201358152506040518060400160405280604051806040016040528089600260088110610ccb577f4e487b7100000000000000000000000000000000000000000000000000000000600052603260045260246000fd5b6020020135815260200189600360088110610d0f577f4e487b7100000000000000000000000000000000000000000000000000000000600052603260045260246000fd5b60200201358152508152602001604051806040016040528089600460088110610d61577f4e487b7100000000000000000000000000000000000000000000000000000000600052603260045260246000fd5b6020020135815260200189600560088110610da5577f4e487b7100000000000000000000000000000000000000000000000000000000600052603260045260246000fd5b6020020135815250815250604051806040016040528088600660088110610df5577f4e487b7100000000000000000000000000000000000000000000000000000000600052603260045260246000fd5b6020020135815260200188600760088110610e39577f4e487b7100000000000000000000000000000000000000000000000000000000600052603260045260246000fd5b602002013581525060405180608001604052808c81526020018b81526020018781526020018a8152506040518563ffffffff1660e01b8152600401610e819493929190611552565b60006040518083038186803b158015610e9957600080fd5b505afa158015610ead573d6000803e3d6000fd5b5050505050505050505050565b600160008083815260200190815260200160002060006101000a81548160ff02191690831515021790555050565b6000600882604051602001610efd919061151c565b6040516020818303038152906040528051906020012060001c901c9050919050565b600081359050610f2e8161183c565b92915050565b600081905082602060080282011115610f4c57600080fd5b92915050565b60008083601f840112610f6457600080fd5b8235905067ffffffffffffffff811115610f7d57600080fd5b602083019150836020820283011115610f9557600080fd5b9250929050565b60008083601f840112610fae57600080fd5b8235905067ffffffffffffffff811115610fc757600080fd5b602083019150836020820283011115610fdf57600080fd5b9250929050565b600081359050610ff581611853565b92915050565b60008135905061100a8161186a565b92915050565b60008135905061101f81611881565b92915050565b60006020828403121561103757600080fd5b600061104584828501610ffb565b91505092915050565b6000806040838503121561106157600080fd5b600061106f85828601610ffb565b925050602061108085828601610f1f565b9150509250929050565b600080600080600061018086880312156110a357600080fd5b60006110b188828901610ffb565b95505060206110c288828901610fe6565b94505060406110d388828901610ffb565b93505060606110e488828901610ffb565b92505060806110f588828901610f34565b9150509295509295909350565b6000806040838503121561111557600080fd5b600061112385828601610ffb565b925050602061113485828601610ffb565b9150509250929050565b6000806000806000806080878903121561115757600080fd5b600061116589828a01610ffb565b965050602061117689828a01610ffb565b955050604087013567ffffffffffffffff81111561119357600080fd5b61119f89828a01610f52565b9450945050606087013567ffffffffffffffff8111156111be57600080fd5b6111ca89828a01610f9c565b92509250509295509295509295565b600080600080608085870312156111ef57600080fd5b60006111fd87828801610ffb565b945050602061120e87828801610ffb565b935050604061121f87828801610ffb565b925050606061123087828801610f1f565b91505092959194509250565b600061124883836112ea565b60408301905092915050565b600061126083836114e0565b60208301905092915050565b6000611278838361150d565b60208301905092915050565b61128d816117ac565b82525050565b61129c816116f2565b6112a68184611747565b92506112b1826116ca565b8060005b838110156112e25781516112c9878261123c565b96506112d483611713565b9250506001810190506112b5565b505050505050565b6112f3816116fd565b6112fd8184611752565b9250611308826116d4565b8060005b838110156113395781516113208782611254565b965061132b83611720565b92505060018101905061130c565b505050505050565b61134a816116fd565b611354818461175d565b925061135f826116d4565b8060005b838110156113905781516113778782611254565b965061138283611720565b925050600181019050611363565b505050505050565b6113a181611708565b6113ab8184611768565b92506113b6826116de565b8060005b838110156113e75781516113ce8782611254565b96506113d98361172d565b9250506001810190506113ba565b505050505050565b60006113fb8385611773565b93507f07ffffffffffffffffffffffffffffffffffffffffffffffffffffffffffffff83111561142a57600080fd5b60208302925061143b838584611823565b82840190509392505050565b60006114538385611784565b935061145e826116e8565b8060005b85811015611497576114748284611795565b61147e888261126c565b97506114898361173a565b925050600181019050611462565b5085925050509392505050565b6114ad816117be565b82525050565b6114c46114bf826117be565b611832565b82525050565b6114d3816117ff565b82525050565b8082525050565b6114e9816117e8565b82525050565b6114f8816117e8565b82525050565b611507816117e8565b82525050565b611516816117f2565b82525050565b600061152882846114b3565b60208201915081905092915050565b600060208201905061154c6000830184611284565b92915050565b6000610180820190506115686000830187611341565b6115756040830186611293565b61158260c0830185611341565b611590610100830184611398565b95945050505050565b60006020820190506115ae60008301846114a4565b92915050565b60006020820190506115c960008301846114ca565b92915050565b60006040820190506115e460008301856114d9565b6115f160208301846114fe565b9392505050565b600060808201905061160d60008301896114d9565b61161a60208301886114fe565b818103604083015261162d8186886113ef565b90508181036060830152611642818486611447565b9050979650505050505050565b600060608201905061166460008301866114d9565b61167160208301856114fe565b61167e60408301846114fe565b949350505050565b600060208201905061169b60008301846114ef565b92915050565b60006040820190506116b660008301856114ef565b6116c360208301846114ef565b9392505050565b6000819050919050565b6000819050919050565b6000819050919050565b6000819050919050565b600060029050919050565b600060029050919050565b600060049050919050565b6000602082019050919050565b6000602082019050919050565b6000602082019050919050565b6000602082019050919050565b600081905092915050565b600081905092915050565b600081905092915050565b600081905092915050565b600082825260208201905092915050565b600082825260208201905092915050565b60006117a46020840184611010565b905092915050565b60006117b7826117c8565b9050919050565b6000819050919050565b600073ffffffffffffffffffffffffffffffffffffffff82169050919050565b6000819050919050565b600060ff82169050919050565b600061180a82611811565b9050919050565b600061181c826117c8565b9050919050565b82818337600083830152505050565b6000819050919050565b611845816117ac565b811461185057600080fd5b50565b61185c816117be565b811461186757600080fd5b50565b611873816117e8565b811461187e57600080fd5b50565b61188a816117f2565b811461189557600080fd5b5056fea2646970667358221220245ee5517e2d501db1133bc1ceee546b9a0f918e4fb34b3c29c1b0f13e211bd764736f6c63430008040033",
  "linkReferences": {
    "@zk-kit/incremental-merkle-tree.sol/IncrementalBinaryTree.sol": {
      "IncrementalBinaryTree": [
        {
          "length": 20,
          "start": 3210
        },
        {
          "length": 20,
          "start": 3475
        },
        {
          "length": 20,
          "start": 3743
        }
      ]
    }
  },
  "deployedLinkReferences": {
    "@zk-kit/incremental-merkle-tree.sol/IncrementalBinaryTree.sol": {
      "IncrementalBinaryTree": [
        {
          "length": 20,
          "start": 2197
        },
        {
          "length": 20,
          "start": 2462
        },
        {
          "length": 20,
          "start": 2730
        }
      ]
    }
  }
}