{
  "_format": "hh-sol-artifact-1",
  "contractName": "TazMessage",
  "sourceName": "contracts/TazMessage.sol",
  "abi": [
    {
      "inputs": [
        {
          "internalType": "contract ISemaphore",
          "name": "semaContractAddr",
          "type": "address"
        }
      ],
      "stateMutability": "nonpayable",
      "type": "constructor"
    },
    {
      "anonymous": false,
      "inputs": [
        {
          "indexed": true,
          "internalType": "uint256",
          "name": "groupId",
          "type": "uint256"
        },
        {
          "indexed": false,
          "internalType": "uint256",
          "name": "identityCommitment",
          "type": "uint256"
        }
      ],
      "name": "MemberAdded",
      "type": "event"
    },
    {
      "anonymous": false,
      "inputs": [
        {
          "indexed": false,
          "internalType": "uint256",
          "name": "parentMessageId",
          "type": "uint256"
        },
        {
          "indexed": false,
          "internalType": "uint256",
          "name": "messageId",
          "type": "uint256"
        },
        {
          "indexed": false,
          "internalType": "string",
          "name": "messageContent",
          "type": "string"
        }
      ],
      "name": "MessageAdded",
      "type": "event"
    },
    {
      "anonymous": false,
      "inputs": [
        {
          "indexed": true,
          "internalType": "bytes32",
          "name": "role",
          "type": "bytes32"
        },
        {
          "indexed": true,
          "internalType": "bytes32",
          "name": "previousAdminRole",
          "type": "bytes32"
        },
        {
          "indexed": true,
          "internalType": "bytes32",
          "name": "newAdminRole",
          "type": "bytes32"
        }
      ],
      "name": "RoleAdminChanged",
      "type": "event"
    },
    {
      "anonymous": false,
      "inputs": [
        {
          "indexed": true,
          "internalType": "bytes32",
          "name": "role",
          "type": "bytes32"
        },
        {
          "indexed": true,
          "internalType": "address",
          "name": "account",
          "type": "address"
        },
        {
          "indexed": true,
          "internalType": "address",
          "name": "sender",
          "type": "address"
        }
      ],
      "name": "RoleGranted",
      "type": "event"
    },
    {
      "anonymous": false,
      "inputs": [
        {
          "indexed": true,
          "internalType": "bytes32",
          "name": "role",
          "type": "bytes32"
        },
        {
          "indexed": true,
          "internalType": "address",
          "name": "account",
          "type": "address"
        },
        {
          "indexed": true,
          "internalType": "address",
          "name": "sender",
          "type": "address"
        }
      ],
      "name": "RoleRevoked",
      "type": "event"
    },
    {
      "anonymous": false,
      "inputs": [
        {
          "indexed": false,
          "internalType": "uint256",
          "name": "messageId",
          "type": "uint256"
        },
        {
          "indexed": false,
          "internalType": "address",
          "name": "reviewer",
          "type": "address"
        }
      ],
      "name": "ViolationAdded",
      "type": "event"
    },
    {
      "inputs": [],
      "name": "DEFAULT_ADMIN_ROLE",
      "outputs": [
        {
          "internalType": "bytes32",
          "name": "",
          "type": "bytes32"
        }
      ],
      "stateMutability": "view",
      "type": "function"
    },
    {
      "inputs": [],
      "name": "REVIEWER_ROLE",
      "outputs": [
        {
          "internalType": "bytes32",
          "name": "",
          "type": "bytes32"
        }
      ],
      "stateMutability": "view",
      "type": "function"
    },
    {
      "inputs": [],
      "name": "TAZ_ADMIN_ROLE",
      "outputs": [
        {
          "internalType": "bytes32",
          "name": "",
          "type": "bytes32"
        }
      ],
      "stateMutability": "view",
      "type": "function"
    },
    {
      "inputs": [
        {
          "internalType": "address[]",
          "name": "admins",
          "type": "address[]"
        }
      ],
      "name": "addAdmins",
      "outputs": [],
      "stateMutability": "nonpayable",
      "type": "function"
    },
    {
      "inputs": [
        {
          "internalType": "uint256",
          "name": "groupId",
          "type": "uint256"
        },
        {
          "internalType": "uint256",
          "name": "identityCommitment",
          "type": "uint256"
        }
      ],
      "name": "addMember",
      "outputs": [],
      "stateMutability": "nonpayable",
      "type": "function"
    },
    {
      "inputs": [
        {
          "internalType": "string",
          "name": "messageContent",
          "type": "string"
        },
        {
          "internalType": "uint256",
          "name": "groupId",
          "type": "uint256"
        },
        {
          "internalType": "uint256",
          "name": "merkleTreeRoot",
          "type": "uint256"
        },
        {
          "internalType": "bytes32",
          "name": "signal",
          "type": "bytes32"
        },
        {
          "internalType": "uint256",
          "name": "nullifierHash",
          "type": "uint256"
        },
        {
          "internalType": "uint256",
          "name": "externalNullifier",
          "type": "uint256"
        },
        {
          "internalType": "uint256[8]",
          "name": "proof",
          "type": "uint256[8]"
        }
      ],
      "name": "addMessage",
      "outputs": [
        {
          "internalType": "uint256",
          "name": "",
          "type": "uint256"
        }
      ],
      "stateMutability": "nonpayable",
      "type": "function"
    },
    {
      "inputs": [
        {
          "internalType": "address[]",
          "name": "reviewers",
          "type": "address[]"
        }
      ],
      "name": "addReviewers",
      "outputs": [],
      "stateMutability": "nonpayable",
      "type": "function"
    },
    {
      "inputs": [
        {
          "internalType": "uint256",
          "name": "messageId",
          "type": "uint256"
        }
      ],
      "name": "addViolation",
      "outputs": [],
      "stateMutability": "nonpayable",
      "type": "function"
    },
    {
      "inputs": [
        {
          "internalType": "bytes32",
          "name": "role",
          "type": "bytes32"
        }
      ],
      "name": "getRoleAdmin",
      "outputs": [
        {
          "internalType": "bytes32",
          "name": "",
          "type": "bytes32"
        }
      ],
      "stateMutability": "view",
      "type": "function"
    },
    {
      "inputs": [
        {
          "internalType": "bytes32",
          "name": "role",
          "type": "bytes32"
        },
        {
          "internalType": "address",
          "name": "account",
          "type": "address"
        }
      ],
      "name": "grantRole",
      "outputs": [],
      "stateMutability": "nonpayable",
      "type": "function"
    },
    {
      "inputs": [
        {
          "internalType": "bytes32",
          "name": "role",
          "type": "bytes32"
        },
        {
          "internalType": "address",
          "name": "account",
          "type": "address"
        }
      ],
      "name": "hasRole",
      "outputs": [
        {
          "internalType": "bool",
          "name": "",
          "type": "bool"
        }
      ],
      "stateMutability": "view",
      "type": "function"
    },
    {
      "inputs": [
        {
          "internalType": "address[]",
          "name": "admins",
          "type": "address[]"
        }
      ],
      "name": "removeAdmins",
      "outputs": [],
      "stateMutability": "nonpayable",
      "type": "function"
    },
    {
      "inputs": [
        {
          "internalType": "address[]",
          "name": "reviewers",
          "type": "address[]"
        }
      ],
      "name": "removeReviewers",
      "outputs": [],
      "stateMutability": "nonpayable",
      "type": "function"
    },
    {
      "inputs": [
        {
          "internalType": "bytes32",
          "name": "role",
          "type": "bytes32"
        },
        {
          "internalType": "address",
          "name": "account",
          "type": "address"
        }
      ],
      "name": "renounceRole",
      "outputs": [],
      "stateMutability": "nonpayable",
      "type": "function"
    },
    {
      "inputs": [
        {
          "internalType": "uint256",
          "name": "parentMessageId",
          "type": "uint256"
        },
        {
          "internalType": "string",
          "name": "messageContent",
          "type": "string"
        },
        {
          "internalType": "uint256",
          "name": "groupId",
          "type": "uint256"
        },
        {
          "internalType": "uint256",
          "name": "merkleTreeRoot",
          "type": "uint256"
        },
        {
          "internalType": "bytes32",
          "name": "signal",
          "type": "bytes32"
        },
        {
          "internalType": "uint256",
          "name": "nullifierHash",
          "type": "uint256"
        },
        {
          "internalType": "uint256",
          "name": "externalNullifier",
          "type": "uint256"
        },
        {
          "internalType": "uint256[8]",
          "name": "proof",
          "type": "uint256[8]"
        }
      ],
      "name": "replyToMessage",
      "outputs": [
        {
          "internalType": "uint256",
          "name": "",
          "type": "uint256"
        }
      ],
      "stateMutability": "nonpayable",
      "type": "function"
    },
    {
      "inputs": [
        {
          "internalType": "bytes32",
          "name": "role",
          "type": "bytes32"
        },
        {
          "internalType": "address",
          "name": "account",
          "type": "address"
        }
      ],
      "name": "revokeRole",
      "outputs": [],
      "stateMutability": "nonpayable",
      "type": "function"
    },
    {
      "inputs": [],
      "name": "semaContract",
      "outputs": [
        {
          "internalType": "contract ISemaphore",
          "name": "",
          "type": "address"
        }
      ],
      "stateMutability": "view",
      "type": "function"
    },
    {
      "inputs": [
        {
          "internalType": "bytes4",
          "name": "interfaceId",
          "type": "bytes4"
        }
      ],
      "name": "supportsInterface",
      "outputs": [
        {
          "internalType": "bool",
          "name": "",
          "type": "bool"
        }
      ],
      "stateMutability": "view",
      "type": "function"
    },
    {
      "inputs": [
        {
          "internalType": "uint256",
          "name": "groupId",
          "type": "uint256"
        },
        {
          "internalType": "address",
          "name": "newAdmin",
          "type": "address"
        }
      ],
      "name": "updateSemaphoreGroupAdmin",
      "outputs": [],
      "stateMutability": "nonpayable",
      "type": "function"
    }
  ],
  "bytecode": "0x60806040523480156200001157600080fd5b5060405162002524380380620025248339818101604052810190620000379190620003c5565b80600160006101000a81548173ffffffffffffffffffffffffffffffffffffffff021916908373ffffffffffffffffffffffffffffffffffffffff160217905550620000aa7f4636e38b5d73cef5ec0bdf8ec3e0565138a2bfe53888f9e988b51165659d842e806200014c60201b60201c565b620000fc7fc10c77be35aff266144ed64c26a1fa104bae2f284ae99ac4a34203454704a1857f4636e38b5d73cef5ec0bdf8ec3e0565138a2bfe53888f9e988b51165659d842e6200014c60201b60201c565b6200012e7f4636e38b5d73cef5ec0bdf8ec3e0565138a2bfe53888f9e988b51165659d842e33620001af60201b60201c565b620001456003620002a060201b62000d8f1760201c565b50620003f7565b60006200015f83620002b660201b60201c565b905081600080858152602001908152602001600020600101819055508181847fbd79b86ffe0ab8e8776151514217cd7cacd52c909f66475c3af44e129f0b00ff60405160405180910390a4505050565b620001c18282620002d560201b60201c565b6200029c57600160008084815260200190815260200160002060000160008373ffffffffffffffffffffffffffffffffffffffff1673ffffffffffffffffffffffffffffffffffffffff16815260200190815260200160002060006101000a81548160ff021916908315150217905550620002416200033f60201b60201c565b73ffffffffffffffffffffffffffffffffffffffff168173ffffffffffffffffffffffffffffffffffffffff16837f2f8788117e7eff1d82e926ec794901d17c78024a50270940304540a733656f0d60405160405180910390a45b5050565b6001816000016000828254019250508190555050565b6000806000838152602001908152602001600020600101549050919050565b600080600084815260200190815260200160002060000160008373ffffffffffffffffffffffffffffffffffffffff1673ffffffffffffffffffffffffffffffffffffffff16815260200190815260200160002060009054906101000a900460ff16905092915050565b600033905090565b600080fd5b600073ffffffffffffffffffffffffffffffffffffffff82169050919050565b600062000379826200034c565b9050919050565b60006200038d826200036c565b9050919050565b6200039f8162000380565b8114620003ab57600080fd5b50565b600081519050620003bf8162000394565b92915050565b600060208284031215620003de57620003dd62000347565b5b6000620003ee84828501620003ae565b91505092915050565b61211d80620004076000396000f3fe608060405234801561001057600080fd5b50600436106101215760003560e01c80636db92666116100ad578063a217fddf11610071578063a217fddf146102f0578063ad2b7e311461030e578063d547741f1461033e578063d6b91e9f1461035a578063f8a411a91461037657610121565b80636db926661461024c578063785b55f8146102685780638a8deed71461028657806391d14854146102a45780639c54df64146102d457610121565b80632f2ff15d116100f45780632f2ff15d146101be57806336568abe146101da578063377e11e0146101f65780633b129a561461021257806367c608da1461023057610121565b806301ffc9a71461012657806317147064146101565780631783efc314610172578063248a9ca31461018e575b600080fd5b610140600480360381019061013b9190611367565b6103a6565b60405161014d91906113af565b60405180910390f35b610170600480360381019061016b919061142f565b610420565b005b61018c600480360381019061018791906114b2565b6104c8565b005b6101a860048036038101906101a39190611528565b61064d565b6040516101b59190611564565b60405180910390f35b6101d860048036038101906101d391906115dd565b61066c565b005b6101f460048036038101906101ef91906115dd565b610695565b005b610210600480360381019061020b919061142f565b610718565b005b61021a6107c0565b6040516102279190611564565b60405180910390f35b61024a6004803603810190610245919061161d565b6107e4565b005b6102666004803603810190610261919061165d565b6108aa565b005b610270610919565b60405161027d9190611564565b60405180910390f35b61028e61093d565b60405161029b91906116e9565b60405180910390f35b6102be60048036038101906102b991906115dd565b610963565b6040516102cb91906113af565b60405180910390f35b6102ee60048036038101906102e9919061142f565b6109cd565b005b6102f8610a75565b6040516103059190611564565b60405180910390f35b61032860048036038101906103239190611867565b610a7c565b6040516103359190611948565b60405180910390f35b610358600480360381019061035391906115dd565b610bc3565b005b610374600480360381019061036f919061142f565b610bec565b005b610390600480360381019061038b9190611963565b610c94565b60405161039d9190611948565b60405180910390f35b60007f7965db0b000000000000000000000000000000000000000000000000000000007bffffffffffffffffffffffffffffffffffffffffffffffffffffffff1916827bffffffffffffffffffffffffffffffffffffffffffffffffffffffff19161480610419575061041882610da5565b5b9050919050565b7f4636e38b5d73cef5ec0bdf8ec3e0565138a2bfe53888f9e988b51165659d842e6104528161044d610e0f565b610e17565b60005b838390508110156104c2576104b17fc10c77be35aff266144ed64c26a1fa104bae2f284ae99ac4a34203454704a18585858481811061049757610496611a22565b5b90506020020160208101906104ac9190611a51565b61066c565b806104bb90611aad565b9050610455565b50505050565b7f4636e38b5d73cef5ec0bdf8ec3e0565138a2bfe53888f9e988b51165659d842e6104fa816104f5610e0f565b610e17565b6105048383610eb4565b15610544576040517f08c379a000000000000000000000000000000000000000000000000000000000815260040161053b90611b52565b60405180910390fd5b600160009054906101000a900473ffffffffffffffffffffffffffffffffffffffff1673ffffffffffffffffffffffffffffffffffffffff16631783efc384846040518363ffffffff1660e01b81526004016105a1929190611b72565b600060405180830381600087803b1580156105bb57600080fd5b505af11580156105cf573d6000803e3d6000fd5b50505050600160026000858152602001908152602001600020600084815260200190815260200160002060006101000a81548160ff021916908315150217905550827fa7971101f3ab1808fedaf53dcda952637961dcc1153334a243c3426fc83c8594836040516106409190611948565b60405180910390a2505050565b6000806000838152602001908152602001600020600101549050919050565b6106758261064d565b61068681610681610e0f565b610e17565b6106908383610ef0565b505050565b61069d610e0f565b73ffffffffffffffffffffffffffffffffffffffff168173ffffffffffffffffffffffffffffffffffffffff161461070a576040517f08c379a000000000000000000000000000000000000000000000000000000000815260040161070190611c0d565b60405180910390fd5b6107148282610fd0565b5050565b7f4636e38b5d73cef5ec0bdf8ec3e0565138a2bfe53888f9e988b51165659d842e61074a81610745610e0f565b610e17565b60005b838390508110156107ba576107a97f4636e38b5d73cef5ec0bdf8ec3e0565138a2bfe53888f9e988b51165659d842e85858481811061078f5761078e611a22565b5b90506020020160208101906107a49190611a51565b610bc3565b806107b390611aad565b905061074d565b50505050565b7fc10c77be35aff266144ed64c26a1fa104bae2f284ae99ac4a34203454704a18581565b7f4636e38b5d73cef5ec0bdf8ec3e0565138a2bfe53888f9e988b51165659d842e61081681610811610e0f565b610e17565b600160009054906101000a900473ffffffffffffffffffffffffffffffffffffffff1673ffffffffffffffffffffffffffffffffffffffff1663568ee82684846040518363ffffffff1660e01b8152600401610873929190611c3c565b600060405180830381600087803b15801561088d57600080fd5b505af11580156108a1573d6000803e3d6000fd5b50505050505050565b7fc10c77be35aff266144ed64c26a1fa104bae2f284ae99ac4a34203454704a1856108dc816108d7610e0f565b610e17565b7fb8c6b548b208fa5670169d9ffdd92678964b6298204949dc37fc1a882f8ae28b823360405161090d929190611c3c565b60405180910390a15050565b7f4636e38b5d73cef5ec0bdf8ec3e0565138a2bfe53888f9e988b51165659d842e81565b600160009054906101000a900473ffffffffffffffffffffffffffffffffffffffff1681565b600080600084815260200190815260200160002060000160008373ffffffffffffffffffffffffffffffffffffffff1673ffffffffffffffffffffffffffffffffffffffff16815260200190815260200160002060009054906101000a900460ff16905092915050565b7f4636e38b5d73cef5ec0bdf8ec3e0565138a2bfe53888f9e988b51165659d842e6109ff816109fa610e0f565b610e17565b60005b83839050811015610a6f57610a5e7f4636e38b5d73cef5ec0bdf8ec3e0565138a2bfe53888f9e988b51165659d842e858584818110610a4457610a43611a22565b5b9050602002016020810190610a599190611a51565b61066c565b80610a6890611aad565b9050610a02565b50505050565b6000801b81565b600080610a8960036110b1565b905060008a11610ace576040517f08c379a0000000000000000000000000000000000000000000000000000000008152600401610ac590611cb1565b60405180910390fd5b600160009054906101000a900473ffffffffffffffffffffffffffffffffffffffff1673ffffffffffffffffffffffffffffffffffffffff16638b69310a8989898989896040518763ffffffff1660e01b8152600401610b3396959493929190611ce2565b600060405180830381600087803b158015610b4d57600080fd5b505af1158015610b61573d6000803e3d6000fd5b50505050610b6f6003610d8f565b7f7343c5945fb9994d979fb307bfe005b639688e232f6a59423880c9d3e6564ab58a610b9b60036110b1565b8b604051610bab93929190611dbb565b60405180910390a18091505098975050505050505050565b610bcc8261064d565b610bdd81610bd8610e0f565b610e17565b610be78383610fd0565b505050565b7f4636e38b5d73cef5ec0bdf8ec3e0565138a2bfe53888f9e988b51165659d842e610c1e81610c19610e0f565b610e17565b60005b83839050811015610c8e57610c7d7fc10c77be35aff266144ed64c26a1fa104bae2f284ae99ac4a34203454704a185858584818110610c6357610c62611a22565b5b9050602002016020810190610c789190611a51565b610bc3565b80610c8790611aad565b9050610c21565b50505050565b600080610ca160036110b1565b9050600160009054906101000a900473ffffffffffffffffffffffffffffffffffffffff1673ffffffffffffffffffffffffffffffffffffffff16638b69310a8989898989896040518763ffffffff1660e01b8152600401610d0896959493929190611ce2565b600060405180830381600087803b158015610d2257600080fd5b505af1158015610d36573d6000803e3d6000fd5b50505050610d446003610d8f565b7f7343c5945fb9994d979fb307bfe005b639688e232f6a59423880c9d3e6564ab56000828b604051610d7893929190611e34565b60405180910390a180915050979650505050505050565b6001816000016000828254019250508190555050565b60007f01ffc9a7000000000000000000000000000000000000000000000000000000007bffffffffffffffffffffffffffffffffffffffffffffffffffffffff1916827bffffffffffffffffffffffffffffffffffffffffffffffffffffffff1916149050919050565b600033905090565b610e218282610963565b610eb057610e468173ffffffffffffffffffffffffffffffffffffffff1660146110bf565b610e548360001c60206110bf565b604051602001610e65929190611f46565b6040516020818303038152906040526040517f08c379a0000000000000000000000000000000000000000000000000000000008152600401610ea79190611f80565b60405180910390fd5b5050565b600060026000848152602001908152602001600020600083815260200190815260200160002060009054906101000a900460ff16905092915050565b610efa8282610963565b610fcc57600160008084815260200190815260200160002060000160008373ffffffffffffffffffffffffffffffffffffffff1673ffffffffffffffffffffffffffffffffffffffff16815260200190815260200160002060006101000a81548160ff021916908315150217905550610f71610e0f565b73ffffffffffffffffffffffffffffffffffffffff168173ffffffffffffffffffffffffffffffffffffffff16837f2f8788117e7eff1d82e926ec794901d17c78024a50270940304540a733656f0d60405160405180910390a45b5050565b610fda8282610963565b156110ad57600080600084815260200190815260200160002060000160008373ffffffffffffffffffffffffffffffffffffffff1673ffffffffffffffffffffffffffffffffffffffff16815260200190815260200160002060006101000a81548160ff021916908315150217905550611052610e0f565b73ffffffffffffffffffffffffffffffffffffffff168173ffffffffffffffffffffffffffffffffffffffff16837ff6391f5c32d9c69d2a47ea670b442974b53935d1edc7fd64eb21e047a839171b60405160405180910390a45b5050565b600081600001549050919050565b6060600060028360026110d29190611fa2565b6110dc9190611ffc565b67ffffffffffffffff8111156110f5576110f461171a565b5b6040519080825280601f01601f1916602001820160405280156111275781602001600182028036833780820191505090505b5090507f30000000000000000000000000000000000000000000000000000000000000008160008151811061115f5761115e611a22565b5b60200101907effffffffffffffffffffffffffffffffffffffffffffffffffffffffffffff1916908160001a9053507f7800000000000000000000000000000000000000000000000000000000000000816001815181106111c3576111c2611a22565b5b60200101907effffffffffffffffffffffffffffffffffffffffffffffffffffffffffffff1916908160001a905350600060018460026112039190611fa2565b61120d9190611ffc565b90505b60018111156112ad577f3031323334353637383961626364656600000000000000000000000000000000600f86166010811061124f5761124e611a22565b5b1a60f81b82828151811061126657611265611a22565b5b60200101907effffffffffffffffffffffffffffffffffffffffffffffffffffffffffffff1916908160001a905350600485901c9450806112a690612052565b9050611210565b50600084146112f1576040517f08c379a00000000000000000000000000000000000000000000000000000000081526004016112e8906120c7565b60405180910390fd5b8091505092915050565b6000604051905090565b600080fd5b600080fd5b60007fffffffff0000000000000000000000000000000000000000000000000000000082169050919050565b6113448161130f565b811461134f57600080fd5b50565b6000813590506113618161133b565b92915050565b60006020828403121561137d5761137c611305565b5b600061138b84828501611352565b91505092915050565b60008115159050919050565b6113a981611394565b82525050565b60006020820190506113c460008301846113a0565b92915050565b600080fd5b600080fd5b600080fd5b60008083601f8401126113ef576113ee6113ca565b5b8235905067ffffffffffffffff81111561140c5761140b6113cf565b5b602083019150836020820283011115611428576114276113d4565b5b9250929050565b6000806020838503121561144657611445611305565b5b600083013567ffffffffffffffff8111156114645761146361130a565b5b611470858286016113d9565b92509250509250929050565b6000819050919050565b61148f8161147c565b811461149a57600080fd5b50565b6000813590506114ac81611486565b92915050565b600080604083850312156114c9576114c8611305565b5b60006114d78582860161149d565b92505060206114e88582860161149d565b9150509250929050565b6000819050919050565b611505816114f2565b811461151057600080fd5b50565b600081359050611522816114fc565b92915050565b60006020828403121561153e5761153d611305565b5b600061154c84828501611513565b91505092915050565b61155e816114f2565b82525050565b60006020820190506115796000830184611555565b92915050565b600073ffffffffffffffffffffffffffffffffffffffff82169050919050565b60006115aa8261157f565b9050919050565b6115ba8161159f565b81146115c557600080fd5b50565b6000813590506115d7816115b1565b92915050565b600080604083850312156115f4576115f3611305565b5b600061160285828601611513565b9250506020611613858286016115c8565b9150509250929050565b6000806040838503121561163457611633611305565b5b60006116428582860161149d565b9250506020611653858286016115c8565b9150509250929050565b60006020828403121561167357611672611305565b5b60006116818482850161149d565b91505092915050565b6000819050919050565b60006116af6116aa6116a58461157f565b61168a565b61157f565b9050919050565b60006116c182611694565b9050919050565b60006116d3826116b6565b9050919050565b6116e3816116c8565b82525050565b60006020820190506116fe60008301846116da565b92915050565b600080fd5b6000601f19601f8301169050919050565b7f4e487b7100000000000000000000000000000000000000000000000000000000600052604160045260246000fd5b61175282611709565b810181811067ffffffffffffffff821117156117715761177061171a565b5b80604052505050565b60006117846112fb565b90506117908282611749565b919050565b600067ffffffffffffffff8211156117b0576117af61171a565b5b6117b982611709565b9050602081019050919050565b82818337600083830152505050565b60006117e86117e384611795565b61177a565b90508281526020810184848401111561180457611803611704565b5b61180f8482856117c6565b509392505050565b600082601f83011261182c5761182b6113ca565b5b813561183c8482602086016117d5565b91505092915050565b600081905082602060080282011115611861576118606113d4565b5b92915050565b6000806000806000806000806101e0898b03121561188857611887611305565b5b60006118968b828c0161149d565b985050602089013567ffffffffffffffff8111156118b7576118b661130a565b5b6118c38b828c01611817565b97505060406118d48b828c0161149d565b96505060606118e58b828c0161149d565b95505060806118f68b828c01611513565b94505060a06119078b828c0161149d565b93505060c06119188b828c0161149d565b92505060e06119298b828c01611845565b9150509295985092959890939650565b6119428161147c565b82525050565b600060208201905061195d6000830184611939565b92915050565b60008060008060008060006101c0888a03121561198357611982611305565b5b600088013567ffffffffffffffff8111156119a1576119a061130a565b5b6119ad8a828b01611817565b97505060206119be8a828b0161149d565b96505060406119cf8a828b0161149d565b95505060606119e08a828b01611513565b94505060806119f18a828b0161149d565b93505060a0611a028a828b0161149d565b92505060c0611a138a828b01611845565b91505092959891949750929550565b7f4e487b7100000000000000000000000000000000000000000000000000000000600052603260045260246000fd5b600060208284031215611a6757611a66611305565b5b6000611a75848285016115c8565b91505092915050565b7f4e487b7100000000000000000000000000000000000000000000000000000000600052601160045260246000fd5b6000611ab88261147c565b91507fffffffffffffffffffffffffffffffffffffffffffffffffffffffffffffffff8203611aea57611ae9611a7e565b5b600182019050919050565b600082825260208201905092915050565b7f4d656d62657220616c726561647920616464656420746f2067726f7570000000600082015250565b6000611b3c601d83611af5565b9150611b4782611b06565b602082019050919050565b60006020820190508181036000830152611b6b81611b2f565b9050919050565b6000604082019050611b876000830185611939565b611b946020830184611939565b9392505050565b7f416363657373436f6e74726f6c3a2063616e206f6e6c792072656e6f756e636560008201527f20726f6c657320666f722073656c660000000000000000000000000000000000602082015250565b6000611bf7602f83611af5565b9150611c0282611b9b565b604082019050919050565b60006020820190508181036000830152611c2681611bea565b9050919050565b611c368161159f565b82525050565b6000604082019050611c516000830185611939565b611c5e6020830184611c2d565b9392505050565b7f496e76616c696420494420666f7220706172656e74206d657373616765000000600082015250565b6000611c9b601d83611af5565b9150611ca682611c65565b602082019050919050565b60006020820190508181036000830152611cca81611c8e565b9050919050565b611cde61010083836117c6565b5050565b60006101a082019050611cf86000830189611939565b611d056020830188611939565b611d126040830187611555565b611d1f6060830186611939565b611d2c6080830185611939565b611d3960a0830184611cd1565b979650505050505050565b600081519050919050565b60005b83811015611d6d578082015181840152602081019050611d52565b83811115611d7c576000848401525b50505050565b6000611d8d82611d44565b611d978185611af5565b9350611da7818560208601611d4f565b611db081611709565b840191505092915050565b6000606082019050611dd06000830186611939565b611ddd6020830185611939565b8181036040830152611def8184611d82565b9050949350505050565b6000819050919050565b6000611e1e611e19611e1484611df9565b61168a565b61147c565b9050919050565b611e2e81611e03565b82525050565b6000606082019050611e496000830186611e25565b611e566020830185611939565b8181036040830152611e688184611d82565b9050949350505050565b600081905092915050565b7f416363657373436f6e74726f6c3a206163636f756e7420000000000000000000600082015250565b6000611eb3601783611e72565b9150611ebe82611e7d565b601782019050919050565b6000611ed482611d44565b611ede8185611e72565b9350611eee818560208601611d4f565b80840191505092915050565b7f206973206d697373696e6720726f6c6520000000000000000000000000000000600082015250565b6000611f30601183611e72565b9150611f3b82611efa565b601182019050919050565b6000611f5182611ea6565b9150611f5d8285611ec9565b9150611f6882611f23565b9150611f748284611ec9565b91508190509392505050565b60006020820190508181036000830152611f9a8184611d82565b905092915050565b6000611fad8261147c565b9150611fb88361147c565b9250817fffffffffffffffffffffffffffffffffffffffffffffffffffffffffffffffff0483118215151615611ff157611ff0611a7e565b5b828202905092915050565b60006120078261147c565b91506120128361147c565b9250827fffffffffffffffffffffffffffffffffffffffffffffffffffffffffffffffff0382111561204757612046611a7e565b5b828201905092915050565b600061205d8261147c565b9150600082036120705761206f611a7e565b5b600182039050919050565b7f537472696e67733a20686578206c656e67746820696e73756666696369656e74600082015250565b60006120b1602083611af5565b91506120bc8261207b565b602082019050919050565b600060208201905081810360008301526120e0816120a4565b905091905056fea26469706673582212204b6791a0452003be110c8f332ec518eda84f8a47bec88aa5fb915260402de0e764736f6c634300080d0033",
  "linkReferences": {},
  "deployedLinkReferences": {}
}