{
  "_format": "hh-sol-artifact-1",
  "contractName": "TazToken",
  "sourceName": "contracts/TazToken.sol",
  "abi": [
    {
      "inputs": [
        {
          "internalType": "contract ISemaphore",
          "name": "semaContractAddr",
          "type": "address"
        }
      ],
      "stateMutability": "nonpayable",
      "type": "constructor"
    },
    {
      "anonymous": false,
      "inputs": [
        {
          "indexed": true,
          "internalType": "address",
          "name": "owner",
          "type": "address"
        },
        {
          "indexed": true,
          "internalType": "address",
          "name": "approved",
          "type": "address"
        },
        {
          "indexed": true,
          "internalType": "uint256",
          "name": "tokenId",
          "type": "uint256"
        }
      ],
      "name": "Approval",
      "type": "event"
    },
    {
      "anonymous": false,
      "inputs": [
        {
          "indexed": true,
          "internalType": "address",
          "name": "owner",
          "type": "address"
        },
        {
          "indexed": true,
          "internalType": "address",
          "name": "operator",
          "type": "address"
        },
        {
          "indexed": false,
          "internalType": "bool",
          "name": "approved",
          "type": "bool"
        }
      ],
      "name": "ApprovalForAll",
      "type": "event"
    },
    {
      "anonymous": false,
      "inputs": [
        {
          "indexed": false,
          "internalType": "uint256",
          "name": "tokenId",
          "type": "uint256"
        },
        {
          "indexed": false,
          "internalType": "string",
          "name": "uri",
          "type": "string"
        }
      ],
      "name": "NewToken",
      "type": "event"
    },
    {
      "anonymous": false,
      "inputs": [
        {
          "indexed": true,
          "internalType": "bytes32",
          "name": "role",
          "type": "bytes32"
        },
        {
          "indexed": true,
          "internalType": "bytes32",
          "name": "previousAdminRole",
          "type": "bytes32"
        },
        {
          "indexed": true,
          "internalType": "bytes32",
          "name": "newAdminRole",
          "type": "bytes32"
        }
      ],
      "name": "RoleAdminChanged",
      "type": "event"
    },
    {
      "anonymous": false,
      "inputs": [
        {
          "indexed": true,
          "internalType": "bytes32",
          "name": "role",
          "type": "bytes32"
        },
        {
          "indexed": true,
          "internalType": "address",
          "name": "account",
          "type": "address"
        },
        {
          "indexed": true,
          "internalType": "address",
          "name": "sender",
          "type": "address"
        }
      ],
      "name": "RoleGranted",
      "type": "event"
    },
    {
      "anonymous": false,
      "inputs": [
        {
          "indexed": true,
          "internalType": "bytes32",
          "name": "role",
          "type": "bytes32"
        },
        {
          "indexed": true,
          "internalType": "address",
          "name": "account",
          "type": "address"
        },
        {
          "indexed": true,
          "internalType": "address",
          "name": "sender",
          "type": "address"
        }
      ],
      "name": "RoleRevoked",
      "type": "event"
    },
    {
      "anonymous": false,
      "inputs": [
        {
          "indexed": true,
          "internalType": "address",
          "name": "from",
          "type": "address"
        },
        {
          "indexed": true,
          "internalType": "address",
          "name": "to",
          "type": "address"
        },
        {
          "indexed": true,
          "internalType": "uint256",
          "name": "tokenId",
          "type": "uint256"
        }
      ],
      "name": "Transfer",
      "type": "event"
    },
    {
      "anonymous": false,
      "inputs": [
        {
          "indexed": false,
          "internalType": "uint256",
          "name": "tokenId",
          "type": "uint256"
        },
        {
          "indexed": false,
          "internalType": "address",
          "name": "reviewer",
          "type": "address"
        }
      ],
      "name": "ViolationAdded",
      "type": "event"
    },
    {
      "anonymous": false,
      "inputs": [
        {
          "indexed": false,
          "internalType": "uint256",
          "name": "tokenId",
          "type": "uint256"
        }
      ],
      "name": "VoteAdded",
      "type": "event"
    },
    {
      "inputs": [],
      "name": "DEFAULT_ADMIN_ROLE",
      "outputs": [
        {
          "internalType": "bytes32",
          "name": "",
          "type": "bytes32"
        }
      ],
      "stateMutability": "view",
      "type": "function"
    },
    {
      "inputs": [],
      "name": "REVIEWER_ROLE",
      "outputs": [
        {
          "internalType": "bytes32",
          "name": "",
          "type": "bytes32"
        }
      ],
      "stateMutability": "view",
      "type": "function"
    },
    {
      "inputs": [],
      "name": "START_STOPPER_ROLE",
      "outputs": [
        {
          "internalType": "bytes32",
          "name": "",
          "type": "bytes32"
        }
      ],
      "stateMutability": "view",
      "type": "function"
    },
    {
      "inputs": [],
      "name": "TAZ_ADMIN_ROLE",
      "outputs": [
        {
          "internalType": "bytes32",
          "name": "",
          "type": "bytes32"
        }
      ],
      "stateMutability": "view",
      "type": "function"
    },
    {
      "inputs": [
        {
          "internalType": "address[]",
          "name": "admins",
          "type": "address[]"
        }
      ],
      "name": "addAdmins",
      "outputs": [],
      "stateMutability": "nonpayable",
      "type": "function"
    },
    {
      "inputs": [
        {
          "internalType": "address[]",
          "name": "reviewers",
          "type": "address[]"
        }
      ],
      "name": "addReviewers",
      "outputs": [],
      "stateMutability": "nonpayable",
      "type": "function"
    },
    {
      "inputs": [
        {
          "internalType": "address[]",
          "name": "startStoppers",
          "type": "address[]"
        }
      ],
      "name": "addStartStoppers",
      "outputs": [],
      "stateMutability": "nonpayable",
      "type": "function"
    },
    {
      "inputs": [
        {
          "internalType": "uint256",
          "name": "tokenId",
          "type": "uint256"
        }
      ],
      "name": "addViolation",
      "outputs": [],
      "stateMutability": "nonpayable",
      "type": "function"
    },
    {
      "inputs": [
        {
          "internalType": "address",
          "name": "to",
          "type": "address"
        },
        {
          "internalType": "uint256",
          "name": "tokenId",
          "type": "uint256"
        }
      ],
      "name": "approve",
      "outputs": [],
      "stateMutability": "nonpayable",
      "type": "function"
    },
    {
      "inputs": [
        {
          "internalType": "address",
          "name": "owner",
          "type": "address"
        }
      ],
      "name": "balanceOf",
      "outputs": [
        {
          "internalType": "uint256",
          "name": "",
          "type": "uint256"
        }
      ],
      "stateMutability": "view",
      "type": "function"
    },
    {
      "inputs": [
        {
          "internalType": "uint256",
          "name": "tokenId",
          "type": "uint256"
        }
      ],
      "name": "getApproved",
      "outputs": [
        {
          "internalType": "address",
          "name": "",
          "type": "address"
        }
      ],
      "stateMutability": "view",
      "type": "function"
    },
    {
      "inputs": [
        {
          "internalType": "bytes32",
          "name": "role",
          "type": "bytes32"
        }
      ],
      "name": "getRoleAdmin",
      "outputs": [
        {
          "internalType": "bytes32",
          "name": "",
          "type": "bytes32"
        }
      ],
      "stateMutability": "view",
      "type": "function"
    },
    {
      "inputs": [
        {
          "internalType": "bytes32",
          "name": "role",
          "type": "bytes32"
        },
        {
          "internalType": "address",
          "name": "account",
          "type": "address"
        }
      ],
      "name": "grantRole",
      "outputs": [],
      "stateMutability": "nonpayable",
      "type": "function"
    },
    {
      "inputs": [
        {
          "internalType": "bytes32",
          "name": "role",
          "type": "bytes32"
        },
        {
          "internalType": "address",
          "name": "account",
          "type": "address"
        }
      ],
      "name": "hasRole",
      "outputs": [
        {
          "internalType": "bool",
          "name": "",
          "type": "bool"
        }
      ],
      "stateMutability": "view",
      "type": "function"
    },
    {
      "inputs": [
        {
          "internalType": "address",
          "name": "owner",
          "type": "address"
        },
        {
          "internalType": "address",
          "name": "operator",
          "type": "address"
        }
      ],
      "name": "isApprovedForAll",
      "outputs": [
        {
          "internalType": "bool",
          "name": "",
          "type": "bool"
        }
      ],
      "stateMutability": "view",
      "type": "function"
    },
    {
      "inputs": [],
      "name": "name",
      "outputs": [
        {
          "internalType": "string",
          "name": "",
          "type": "string"
        }
      ],
      "stateMutability": "view",
      "type": "function"
    },
    {
      "inputs": [
        {
          "internalType": "uint256",
          "name": "tokenId",
          "type": "uint256"
        }
      ],
      "name": "ownerOf",
      "outputs": [
        {
          "internalType": "address",
          "name": "",
          "type": "address"
        }
      ],
      "stateMutability": "view",
      "type": "function"
    },
    {
      "inputs": [
        {
          "internalType": "address[]",
          "name": "admins",
          "type": "address[]"
        }
      ],
      "name": "removeAdmins",
      "outputs": [],
      "stateMutability": "nonpayable",
      "type": "function"
    },
    {
      "inputs": [
        {
          "internalType": "address[]",
          "name": "reviewers",
          "type": "address[]"
        }
      ],
      "name": "removeReviewers",
      "outputs": [],
      "stateMutability": "nonpayable",
      "type": "function"
    },
    {
      "inputs": [
        {
          "internalType": "address[]",
          "name": "startStoppers",
          "type": "address[]"
        }
      ],
      "name": "removeStartStoppers",
      "outputs": [],
      "stateMutability": "nonpayable",
      "type": "function"
    },
    {
      "inputs": [
        {
          "internalType": "bytes32",
          "name": "role",
          "type": "bytes32"
        },
        {
          "internalType": "address",
          "name": "account",
          "type": "address"
        }
      ],
      "name": "renounceRole",
      "outputs": [],
      "stateMutability": "nonpayable",
      "type": "function"
    },
    {
      "inputs": [
        {
          "internalType": "bytes32",
          "name": "role",
          "type": "bytes32"
        },
        {
          "internalType": "address",
          "name": "account",
          "type": "address"
        }
      ],
      "name": "revokeRole",
      "outputs": [],
      "stateMutability": "nonpayable",
      "type": "function"
    },
    {
      "inputs": [
        {
          "internalType": "address",
          "name": "to",
          "type": "address"
        },
        {
          "internalType": "string",
          "name": "uri",
          "type": "string"
        },
        {
          "internalType": "uint256",
          "name": "groupId",
          "type": "uint256"
        },
        {
          "internalType": "uint256",
          "name": "merkleTreeRoot",
          "type": "uint256"
        },
        {
          "internalType": "bytes32",
          "name": "signal",
          "type": "bytes32"
        },
        {
          "internalType": "uint256",
          "name": "nullifierHash",
          "type": "uint256"
        },
        {
          "internalType": "uint256",
          "name": "externalNullifier",
          "type": "uint256"
        },
        {
          "internalType": "uint256[8]",
          "name": "proof",
          "type": "uint256[8]"
        }
      ],
      "name": "safeMint",
      "outputs": [
        {
          "internalType": "uint256",
          "name": "",
          "type": "uint256"
        }
      ],
      "stateMutability": "nonpayable",
      "type": "function"
    },
    {
      "inputs": [
        {
          "internalType": "address",
          "name": "from",
          "type": "address"
        },
        {
          "internalType": "address",
          "name": "to",
          "type": "address"
        },
        {
          "internalType": "uint256",
          "name": "tokenId",
          "type": "uint256"
        }
      ],
      "name": "safeTransferFrom",
      "outputs": [],
      "stateMutability": "nonpayable",
      "type": "function"
    },
    {
      "inputs": [
        {
          "internalType": "address",
          "name": "from",
          "type": "address"
        },
        {
          "internalType": "address",
          "name": "to",
          "type": "address"
        },
        {
          "internalType": "uint256",
          "name": "tokenId",
          "type": "uint256"
        },
        {
          "internalType": "bytes",
          "name": "_data",
          "type": "bytes"
        }
      ],
      "name": "safeTransferFrom",
      "outputs": [],
      "stateMutability": "nonpayable",
      "type": "function"
    },
    {
      "inputs": [],
      "name": "semaContract",
      "outputs": [
        {
          "internalType": "contract ISemaphore",
          "name": "",
          "type": "address"
        }
      ],
      "stateMutability": "view",
      "type": "function"
    },
    {
      "inputs": [
        {
          "internalType": "address",
          "name": "operator",
          "type": "address"
        },
        {
          "internalType": "bool",
          "name": "approved",
          "type": "bool"
        }
      ],
      "name": "setApprovalForAll",
      "outputs": [],
      "stateMutability": "nonpayable",
      "type": "function"
    },
    {
      "inputs": [],
      "name": "startMinting",
      "outputs": [],
      "stateMutability": "nonpayable",
      "type": "function"
    },
    {
      "inputs": [],
      "name": "startVoting",
      "outputs": [],
      "stateMutability": "nonpayable",
      "type": "function"
    },
    {
      "inputs": [],
      "name": "stopMinting",
      "outputs": [],
      "stateMutability": "nonpayable",
      "type": "function"
    },
    {
      "inputs": [],
      "name": "stopVoting",
      "outputs": [],
      "stateMutability": "nonpayable",
      "type": "function"
    },
    {
      "inputs": [
        {
          "internalType": "bytes4",
          "name": "interfaceId",
          "type": "bytes4"
        }
      ],
      "name": "supportsInterface",
      "outputs": [
        {
          "internalType": "bool",
          "name": "",
          "type": "bool"
        }
      ],
      "stateMutability": "view",
      "type": "function"
    },
    {
      "inputs": [],
      "name": "symbol",
      "outputs": [
        {
          "internalType": "string",
          "name": "",
          "type": "string"
        }
      ],
      "stateMutability": "view",
      "type": "function"
    },
    {
      "inputs": [
        {
          "internalType": "uint256",
          "name": "tokenId",
          "type": "uint256"
        }
      ],
      "name": "tokenURI",
      "outputs": [
        {
          "internalType": "string",
          "name": "",
          "type": "string"
        }
      ],
      "stateMutability": "view",
      "type": "function"
    },
    {
      "inputs": [
        {
          "internalType": "address",
          "name": "from",
          "type": "address"
        },
        {
          "internalType": "address",
          "name": "to",
          "type": "address"
        },
        {
          "internalType": "uint256",
          "name": "tokenId",
          "type": "uint256"
        }
      ],
      "name": "transferFrom",
      "outputs": [],
      "stateMutability": "nonpayable",
      "type": "function"
    },
    {
      "inputs": [
        {
          "internalType": "uint256",
          "name": "tokenId",
          "type": "uint256"
        },
        {
          "internalType": "uint256",
          "name": "groupId",
          "type": "uint256"
        },
        {
          "internalType": "uint256",
          "name": "merkleTreeRoot",
          "type": "uint256"
        },
        {
          "internalType": "bytes32",
          "name": "signal",
          "type": "bytes32"
        },
        {
          "internalType": "uint256",
          "name": "nullifierHash",
          "type": "uint256"
        },
        {
          "internalType": "uint256[8]",
          "name": "proof",
          "type": "uint256[8]"
        }
      ],
      "name": "vote",
      "outputs": [],
      "stateMutability": "nonpayable",
      "type": "function"
    }
  ],
  "bytecode": "0x60806040523480156200001157600080fd5b5060405162004c3238038062004c328339818101604052810190620000379190620005a1565b6040518060400160405280600881526020017f54617a546f6b656e0000000000000000000000000000000000000000000000008152506040518060400160405280600381526020017f54415a00000000000000000000000000000000000000000000000000000000008152508160009080519060200190620000bb92919062000473565b508060019080519060200190620000d492919062000473565b50505080600860006101000a81548173ffffffffffffffffffffffffffffffffffffffff021916908373ffffffffffffffffffffffffffffffffffffffff1602179055506200014a7f4636e38b5d73cef5ec0bdf8ec3e0565138a2bfe53888f9e988b51165659d842e806200027460201b60201c565b6200019c7fc10c77be35aff266144ed64c26a1fa104bae2f284ae99ac4a34203454704a1857f4636e38b5d73cef5ec0bdf8ec3e0565138a2bfe53888f9e988b51165659d842e6200027460201b60201c565b620001ee7fb9fb535eeef00914f0e629be8b6c1550a75e7adca17b4a272f7798bb710f25057f4636e38b5d73cef5ec0bdf8ec3e0565138a2bfe53888f9e988b51165659d842e6200027460201b60201c565b620002207f4636e38b5d73cef5ec0bdf8ec3e0565138a2bfe53888f9e988b51165659d842e33620002d860201b60201c565b6001600a60006101000a81548160ff0219169083151502179055506000600a60016101000a81548160ff0219169083151502179055506200026d6009620003ca60201b620016b31760201c565b5062000637565b60006200028783620003e060201b60201c565b90508160076000858152602001908152602001600020600101819055508181847fbd79b86ffe0ab8e8776151514217cd7cacd52c909f66475c3af44e129f0b00ff60405160405180910390a4505050565b620002ea82826200040060201b60201c565b620003c65760016007600084815260200190815260200160002060000160008373ffffffffffffffffffffffffffffffffffffffff1673ffffffffffffffffffffffffffffffffffffffff16815260200190815260200160002060006101000a81548160ff0219169083151502179055506200036b6200046b60201b60201c565b73ffffffffffffffffffffffffffffffffffffffff168173ffffffffffffffffffffffffffffffffffffffff16837f2f8788117e7eff1d82e926ec794901d17c78024a50270940304540a733656f0d60405160405180910390a45b5050565b6001816000016000828254019250508190555050565b600060076000838152602001908152602001600020600101549050919050565b60006007600084815260200190815260200160002060000160008373ffffffffffffffffffffffffffffffffffffffff1673ffffffffffffffffffffffffffffffffffffffff16815260200190815260200160002060009054906101000a900460ff16905092915050565b600033905090565b828054620004819062000602565b90600052602060002090601f016020900481019282620004a55760008555620004f1565b82601f10620004c057805160ff1916838001178555620004f1565b82800160010185558215620004f1579182015b82811115620004f0578251825591602001919060010190620004d3565b5b50905062000500919062000504565b5090565b5b808211156200051f57600081600090555060010162000505565b5090565b600080fd5b600073ffffffffffffffffffffffffffffffffffffffff82169050919050565b6000620005558262000528565b9050919050565b6000620005698262000548565b9050919050565b6200057b816200055c565b81146200058757600080fd5b50565b6000815190506200059b8162000570565b92915050565b600060208284031215620005ba57620005b962000523565b5b6000620005ca848285016200058a565b91505092915050565b7f4e487b7100000000000000000000000000000000000000000000000000000000600052602260045260246000fd5b600060028204905060018216806200061b57607f821691505b602082108103620006315762000630620005d3565b5b50919050565b6145eb80620006476000396000f3fe608060405234801561001057600080fd5b506004361061021c5760003560e01c8063785b55f811610125578063acc3f1ed116100ad578063c87b56dd1161007c578063c87b56dd146105e9578063d547741f14610619578063d6b91e9f14610635578063e985e9c514610651578063fab2f86b146106815761021c565b8063acc3f1ed14610563578063b88d4fde14610581578063c1a400981461059d578063c61e84da146105cd5761021c565b80639a65ea26116100f45780639a65ea26146104e75780639c3ad74a146104f15780639c54df641461050d578063a217fddf14610529578063a22cb465146105475761021c565b8063785b55f81461045d5780638a8deed71461047b57806391d148541461049957806395d89b41146104c95761021c565b806336568abe116101a857806342842e0e1161017757806342842e0e146103a9578063490ed5d3146103c55780636352211e146103e15780636db926661461041157806370a082311461042d5761021c565b806336568abe14610349578063377e11e0146103655780633b129a56146103815780633e3e0b121461039f5761021c565b806317147064116101ef57806317147064146102bb5780631ec6b60a146102d757806323b872dd146102e1578063248a9ca3146102fd5780632f2ff15d1461032d5761021c565b806301ffc9a71461022157806306fdde0314610251578063081812fc1461026f578063095ea7b31461029f575b600080fd5b61023b60048036038101906102369190612c3e565b61068b565b6040516102489190612c86565b60405180910390f35b61025961069d565b6040516102669190612d3a565b60405180910390f35b61028960048036038101906102849190612d92565b61072f565b6040516102969190612e00565b60405180910390f35b6102b960048036038101906102b49190612e47565b6107b4565b005b6102d560048036038101906102d09190612eec565b6108cb565b005b6102df610973565b005b6102fb60048036038101906102f69190612f39565b6109c3565b005b61031760048036038101906103129190612fc2565b610a23565b6040516103249190612ffe565b60405180910390f35b61034760048036038101906103429190613019565b610a43565b005b610363600480360381019061035e9190613019565b610a6c565b005b61037f600480360381019061037a9190612eec565b610aef565b005b610389610b97565b6040516103969190612ffe565b60405180910390f35b6103a7610bbb565b005b6103c360048036038101906103be9190612f39565b610c0b565b005b6103df60048036038101906103da9190612eec565b610c2b565b005b6103fb60048036038101906103f69190612d92565b610cd3565b6040516104089190612e00565b60405180910390f35b61042b60048036038101906104269190612d92565b610d84565b005b61044760048036038101906104429190613059565b610df3565b6040516104549190613095565b60405180910390f35b610465610eaa565b6040516104729190612ffe565b60405180910390f35b610483610ece565b604051610490919061310f565b60405180910390f35b6104b360048036038101906104ae9190613019565b610ef4565b6040516104c09190612c86565b60405180910390f35b6104d1610f5f565b6040516104de9190612d3a565b60405180910390f35b6104ef610ff1565b005b61050b60048036038101906105069190612eec565b611041565b005b61052760048036038101906105229190612eec565b6110e9565b005b610531611191565b60405161053e9190612ffe565b60405180910390f35b610561600480360381019061055c9190613156565b611198565b005b61056b6111ae565b6040516105789190612ffe565b60405180910390f35b61059b600480360381019061059691906132c6565b6111d2565b005b6105b760048036038101906105b2919061340c565b611234565b6040516105c49190613095565b60405180910390f35b6105e760048036038101906105e291906134de565b6113c4565b005b61060360048036038101906105fe9190612d92565b6114ec565b6040516106109190612d3a565b60405180910390f35b610633600480360381019061062e9190613019565b6114fe565b005b61064f600480360381019061064a9190612eec565b611527565b005b61066b6004803603810190610666919061356c565b6115cf565b6040516106789190612c86565b60405180910390f35b610689611663565b005b6000610696826116c9565b9050919050565b6060600080546106ac906135db565b80601f01602080910402602001604051908101604052809291908181526020018280546106d8906135db565b80156107255780601f106106fa57610100808354040283529160200191610725565b820191906000526020600020905b81548152906001019060200180831161070857829003601f168201915b5050505050905090565b600061073a82611743565b610779576040517f08c379a00000000000000000000000000000000000000000000000000000000081526004016107709061367e565b60405180910390fd5b6004600083815260200190815260200160002060009054906101000a900473ffffffffffffffffffffffffffffffffffffffff169050919050565b60006107bf82610cd3565b90508073ffffffffffffffffffffffffffffffffffffffff168373ffffffffffffffffffffffffffffffffffffffff160361082f576040517f08c379a000000000000000000000000000000000000000000000000000000000815260040161082690613710565b60405180910390fd5b8073ffffffffffffffffffffffffffffffffffffffff1661084e6117af565b73ffffffffffffffffffffffffffffffffffffffff16148061087d575061087c816108776117af565b6115cf565b5b6108bc576040517f08c379a00000000000000000000000000000000000000000000000000000000081526004016108b3906137a2565b60405180910390fd5b6108c683836117b7565b505050565b7f4636e38b5d73cef5ec0bdf8ec3e0565138a2bfe53888f9e988b51165659d842e6108fd816108f86117af565b611870565b60005b8383905081101561096d5761095c7fc10c77be35aff266144ed64c26a1fa104bae2f284ae99ac4a34203454704a185858584818110610942576109416137c2565b5b90506020020160208101906109579190613059565b610a43565b8061096690613820565b9050610900565b50505050565b7fb9fb535eeef00914f0e629be8b6c1550a75e7adca17b4a272f7798bb710f25056109a5816109a06117af565b611870565b6001600a60016101000a81548160ff02191690831515021790555050565b6109d46109ce6117af565b8261190d565b610a13576040517f08c379a0000000000000000000000000000000000000000000000000000000008152600401610a0a906138da565b60405180910390fd5b610a1e8383836119eb565b505050565b600060076000838152602001908152602001600020600101549050919050565b610a4c82610a23565b610a5d81610a586117af565b611870565b610a678383611c46565b505050565b610a746117af565b73ffffffffffffffffffffffffffffffffffffffff168173ffffffffffffffffffffffffffffffffffffffff1614610ae1576040517f08c379a0000000000000000000000000000000000000000000000000000000008152600401610ad89061396c565b60405180910390fd5b610aeb8282611d27565b5050565b7f4636e38b5d73cef5ec0bdf8ec3e0565138a2bfe53888f9e988b51165659d842e610b2181610b1c6117af565b611870565b60005b83839050811015610b9157610b807f4636e38b5d73cef5ec0bdf8ec3e0565138a2bfe53888f9e988b51165659d842e858584818110610b6657610b656137c2565b5b9050602002016020810190610b7b9190613059565b6114fe565b80610b8a90613820565b9050610b24565b50505050565b7fc10c77be35aff266144ed64c26a1fa104bae2f284ae99ac4a34203454704a18581565b7fb9fb535eeef00914f0e629be8b6c1550a75e7adca17b4a272f7798bb710f2505610bed81610be86117af565b611870565b6000600a60006101000a81548160ff02191690831515021790555050565b610c26838383604051806020016040528060008152506111d2565b505050565b7f4636e38b5d73cef5ec0bdf8ec3e0565138a2bfe53888f9e988b51165659d842e610c5d81610c586117af565b611870565b60005b83839050811015610ccd57610cbc7fb9fb535eeef00914f0e629be8b6c1550a75e7adca17b4a272f7798bb710f2505858584818110610ca257610ca16137c2565b5b9050602002016020810190610cb79190613059565b6114fe565b80610cc690613820565b9050610c60565b50505050565b6000806002600084815260200190815260200160002060009054906101000a900473ffffffffffffffffffffffffffffffffffffffff169050600073ffffffffffffffffffffffffffffffffffffffff168173ffffffffffffffffffffffffffffffffffffffff1603610d7b576040517f08c379a0000000000000000000000000000000000000000000000000000000008152600401610d72906139fe565b60405180910390fd5b80915050919050565b7fc10c77be35aff266144ed64c26a1fa104bae2f284ae99ac4a34203454704a185610db681610db16117af565b611870565b7fb8c6b548b208fa5670169d9ffdd92678964b6298204949dc37fc1a882f8ae28b8233604051610de7929190613a1e565b60405180910390a15050565b60008073ffffffffffffffffffffffffffffffffffffffff168273ffffffffffffffffffffffffffffffffffffffff1603610e63576040517f08c379a0000000000000000000000000000000000000000000000000000000008152600401610e5a90613ab9565b60405180910390fd5b600360008373ffffffffffffffffffffffffffffffffffffffff1673ffffffffffffffffffffffffffffffffffffffff168152602001908152602001600020549050919050565b7f4636e38b5d73cef5ec0bdf8ec3e0565138a2bfe53888f9e988b51165659d842e81565b600860009054906101000a900473ffffffffffffffffffffffffffffffffffffffff1681565b60006007600084815260200190815260200160002060000160008373ffffffffffffffffffffffffffffffffffffffff1673ffffffffffffffffffffffffffffffffffffffff16815260200190815260200160002060009054906101000a900460ff16905092915050565b606060018054610f6e906135db565b80601f0160208091040260200160405190810160405280929190818152602001828054610f9a906135db565b8015610fe75780601f10610fbc57610100808354040283529160200191610fe7565b820191906000526020600020905b815481529060010190602001808311610fca57829003601f168201915b5050505050905090565b7fb9fb535eeef00914f0e629be8b6c1550a75e7adca17b4a272f7798bb710f25056110238161101e6117af565b611870565b6001600a60006101000a81548160ff02191690831515021790555050565b7f4636e38b5d73cef5ec0bdf8ec3e0565138a2bfe53888f9e988b51165659d842e6110738161106e6117af565b611870565b60005b838390508110156110e3576110d27fb9fb535eeef00914f0e629be8b6c1550a75e7adca17b4a272f7798bb710f25058585848181106110b8576110b76137c2565b5b90506020020160208101906110cd9190613059565b610a43565b806110dc90613820565b9050611076565b50505050565b7f4636e38b5d73cef5ec0bdf8ec3e0565138a2bfe53888f9e988b51165659d842e61111b816111166117af565b611870565b60005b8383905081101561118b5761117a7f4636e38b5d73cef5ec0bdf8ec3e0565138a2bfe53888f9e988b51165659d842e8585848181106111605761115f6137c2565b5b90506020020160208101906111759190613059565b610a43565b8061118490613820565b905061111e565b50505050565b6000801b81565b6111aa6111a36117af565b8383611e09565b5050565b7fb9fb535eeef00914f0e629be8b6c1550a75e7adca17b4a272f7798bb710f250581565b6111e36111dd6117af565b8361190d565b611222576040517f08c379a0000000000000000000000000000000000000000000000000000000008152600401611219906138da565b60405180910390fd5b61122e84848484611f75565b50505050565b60007f4636e38b5d73cef5ec0bdf8ec3e0565138a2bfe53888f9e988b51165659d842e611268816112636117af565b611870565b60006112746009611fd1565b9050600a60009054906101000a900460ff166112c5576040517f08c379a00000000000000000000000000000000000000000000000000000000081526004016112bc90613b25565b60405180910390fd5b600860009054906101000a900473ffffffffffffffffffffffffffffffffffffffff1673ffffffffffffffffffffffffffffffffffffffff16638b69310a8a8a8a8a8a8a6040518763ffffffff1660e01b815260040161132a96959493929190613b56565b600060405180830381600087803b15801561134457600080fd5b505af1158015611358573d6000803e3d6000fd5b5050505061136660096116b3565b6113708b82611fdf565b61137a818b611ffd565b7fca8605e5b2854022d4ef7e920a48b0c49ca69a8453970d922c3dd8b93057fa67818b6040516113ab929190613bb8565b60405180910390a1809250505098975050505050505050565b600a60019054906101000a900460ff16611413576040517f08c379a000000000000000000000000000000000000000000000000000000000815260040161140a90613c34565b60405180910390fd5b600860009054906101000a900473ffffffffffffffffffffffffffffffffffffffff1673ffffffffffffffffffffffffffffffffffffffff16638b69310a868686866201c19d876040518763ffffffff1660e01b815260040161147b96959493929190613b56565b600060405180830381600087803b15801561149557600080fd5b505af11580156114a9573d6000803e3d6000fd5b505050507fca4f4e617a82c74ac41214e7eeb397d2d16ca7807cc366995e9e52dc2b7a444d866040516114dc9190613095565b60405180910390a1505050505050565b60606114f782612071565b9050919050565b61150782610a23565b611518816115136117af565b611870565b6115228383611d27565b505050565b7f4636e38b5d73cef5ec0bdf8ec3e0565138a2bfe53888f9e988b51165659d842e611559816115546117af565b611870565b60005b838390508110156115c9576115b87fc10c77be35aff266144ed64c26a1fa104bae2f284ae99ac4a34203454704a18585858481811061159e5761159d6137c2565b5b90506020020160208101906115b39190613059565b6114fe565b806115c290613820565b905061155c565b50505050565b6000600560008473ffffffffffffffffffffffffffffffffffffffff1673ffffffffffffffffffffffffffffffffffffffff16815260200190815260200160002060008373ffffffffffffffffffffffffffffffffffffffff1673ffffffffffffffffffffffffffffffffffffffff16815260200190815260200160002060009054906101000a900460ff16905092915050565b7fb9fb535eeef00914f0e629be8b6c1550a75e7adca17b4a272f7798bb710f2505611695816116906117af565b611870565b6000600a60016101000a81548160ff02191690831515021790555050565b6001816000016000828254019250508190555050565b60007f7965db0b000000000000000000000000000000000000000000000000000000007bffffffffffffffffffffffffffffffffffffffffffffffffffffffff1916827bffffffffffffffffffffffffffffffffffffffffffffffffffffffff1916148061173c575061173b826121c2565b5b9050919050565b60008073ffffffffffffffffffffffffffffffffffffffff166002600084815260200190815260200160002060009054906101000a900473ffffffffffffffffffffffffffffffffffffffff1673ffffffffffffffffffffffffffffffffffffffff1614159050919050565b600033905090565b816004600083815260200190815260200160002060006101000a81548173ffffffffffffffffffffffffffffffffffffffff021916908373ffffffffffffffffffffffffffffffffffffffff160217905550808273ffffffffffffffffffffffffffffffffffffffff1661182a83610cd3565b73ffffffffffffffffffffffffffffffffffffffff167f8c5be1e5ebec7d5bd14f71427d1e84f3dd0314c0f7b2291e5b200ac8c7c3b92560405160405180910390a45050565b61187a8282610ef4565b6119095761189f8173ffffffffffffffffffffffffffffffffffffffff1660146122a4565b6118ad8360001c60206122a4565b6040516020016118be929190613d28565b6040516020818303038152906040526040517f08c379a00000000000000000000000000000000000000000000000000000000081526004016119009190612d3a565b60405180910390fd5b5050565b600061191882611743565b611957576040517f08c379a000000000000000000000000000000000000000000000000000000000815260040161194e90613dd4565b60405180910390fd5b600061196283610cd3565b90508073ffffffffffffffffffffffffffffffffffffffff168473ffffffffffffffffffffffffffffffffffffffff1614806119d157508373ffffffffffffffffffffffffffffffffffffffff166119b98461072f565b73ffffffffffffffffffffffffffffffffffffffff16145b806119e257506119e181856115cf565b5b91505092915050565b8273ffffffffffffffffffffffffffffffffffffffff16611a0b82610cd3565b73ffffffffffffffffffffffffffffffffffffffff1614611a61576040517f08c379a0000000000000000000000000000000000000000000000000000000008152600401611a5890613e66565b60405180910390fd5b600073ffffffffffffffffffffffffffffffffffffffff168273ffffffffffffffffffffffffffffffffffffffff1603611ad0576040517f08c379a0000000000000000000000000000000000000000000000000000000008152600401611ac790613ef8565b60405180910390fd5b611adb8383836124e0565b611ae66000826117b7565b6001600360008573ffffffffffffffffffffffffffffffffffffffff1673ffffffffffffffffffffffffffffffffffffffff1681526020019081526020016000206000828254611b369190613f18565b925050819055506001600360008473ffffffffffffffffffffffffffffffffffffffff1673ffffffffffffffffffffffffffffffffffffffff1681526020019081526020016000206000828254611b8d9190613f4c565b92505081905550816002600083815260200190815260200160002060006101000a81548173ffffffffffffffffffffffffffffffffffffffff021916908373ffffffffffffffffffffffffffffffffffffffff160217905550808273ffffffffffffffffffffffffffffffffffffffff168473ffffffffffffffffffffffffffffffffffffffff167fddf252ad1be2c89b69c2b068fc378daa952ba7f163c4a11628f55a4df523b3ef60405160405180910390a4505050565b611c508282610ef4565b611d235760016007600084815260200190815260200160002060000160008373ffffffffffffffffffffffffffffffffffffffff1673ffffffffffffffffffffffffffffffffffffffff16815260200190815260200160002060006101000a81548160ff021916908315150217905550611cc86117af565b73ffffffffffffffffffffffffffffffffffffffff168173ffffffffffffffffffffffffffffffffffffffff16837f2f8788117e7eff1d82e926ec794901d17c78024a50270940304540a733656f0d60405160405180910390a45b5050565b611d318282610ef4565b15611e055760006007600084815260200190815260200160002060000160008373ffffffffffffffffffffffffffffffffffffffff1673ffffffffffffffffffffffffffffffffffffffff16815260200190815260200160002060006101000a81548160ff021916908315150217905550611daa6117af565b73ffffffffffffffffffffffffffffffffffffffff168173ffffffffffffffffffffffffffffffffffffffff16837ff6391f5c32d9c69d2a47ea670b442974b53935d1edc7fd64eb21e047a839171b60405160405180910390a45b5050565b8173ffffffffffffffffffffffffffffffffffffffff168373ffffffffffffffffffffffffffffffffffffffff1603611e77576040517f08c379a0000000000000000000000000000000000000000000000000000000008152600401611e6e90613fee565b60405180910390fd5b80600560008573ffffffffffffffffffffffffffffffffffffffff1673ffffffffffffffffffffffffffffffffffffffff16815260200190815260200160002060008473ffffffffffffffffffffffffffffffffffffffff1673ffffffffffffffffffffffffffffffffffffffff16815260200190815260200160002060006101000a81548160ff0219169083151502179055508173ffffffffffffffffffffffffffffffffffffffff168373ffffffffffffffffffffffffffffffffffffffff167f17307eab39ab6107e8899845ad3d59bd9653f200f220920489ca2b5937696c3183604051611f689190612c86565b60405180910390a3505050565b611f808484846119eb565b611f8c848484846124e5565b611fcb576040517f08c379a0000000000000000000000000000000000000000000000000000000008152600401611fc290614080565b60405180910390fd5b50505050565b600081600001549050919050565b611ff982826040518060200160405280600081525061266c565b5050565b61200682611743565b612045576040517f08c379a000000000000000000000000000000000000000000000000000000000815260040161203c90614112565b60405180910390fd5b8060066000848152602001908152602001600020908051906020019061206c929190612b2f565b505050565b606061207c82611743565b6120bb576040517f08c379a00000000000000000000000000000000000000000000000000000000081526004016120b2906141a4565b60405180910390fd5b60006006600084815260200190815260200160002080546120db906135db565b80601f0160208091040260200160405190810160405280929190818152602001828054612107906135db565b80156121545780601f1061212957610100808354040283529160200191612154565b820191906000526020600020905b81548152906001019060200180831161213757829003601f168201915b5050505050905060006121656126c7565b9050600081510361217a5781925050506121bd565b6000825111156121af5780826040516020016121979291906141c4565b604051602081830303815290604052925050506121bd565b6121b8846126de565b925050505b919050565b60007f80ac58cd000000000000000000000000000000000000000000000000000000007bffffffffffffffffffffffffffffffffffffffffffffffffffffffff1916827bffffffffffffffffffffffffffffffffffffffffffffffffffffffff1916148061228d57507f5b5e139f000000000000000000000000000000000000000000000000000000007bffffffffffffffffffffffffffffffffffffffffffffffffffffffff1916827bffffffffffffffffffffffffffffffffffffffffffffffffffffffff1916145b8061229d575061229c82612785565b5b9050919050565b6060600060028360026122b791906141e8565b6122c19190613f4c565b67ffffffffffffffff8111156122da576122d961319b565b5b6040519080825280601f01601f19166020018201604052801561230c5781602001600182028036833780820191505090505b5090507f300000000000000000000000000000000000000000000000000000000000000081600081518110612344576123436137c2565b5b60200101907effffffffffffffffffffffffffffffffffffffffffffffffffffffffffffff1916908160001a9053507f7800000000000000000000000000000000000000000000000000000000000000816001815181106123a8576123a76137c2565b5b60200101907effffffffffffffffffffffffffffffffffffffffffffffffffffffffffffff1916908160001a905350600060018460026123e891906141e8565b6123f29190613f4c565b90505b6001811115612492577f3031323334353637383961626364656600000000000000000000000000000000600f861660108110612434576124336137c2565b5b1a60f81b82828151811061244b5761244a6137c2565b5b60200101907effffffffffffffffffffffffffffffffffffffffffffffffffffffffffffff1916908160001a905350600485901c94508061248b90614242565b90506123f5565b50600084146124d6576040517f08c379a00000000000000000000000000000000000000000000000000000000081526004016124cd906142b7565b60405180910390fd5b8091505092915050565b505050565b60006125068473ffffffffffffffffffffffffffffffffffffffff166127ef565b1561265f578373ffffffffffffffffffffffffffffffffffffffff1663150b7a0261252f6117af565b8786866040518563ffffffff1660e01b8152600401612551949392919061432c565b6020604051808303816000875af192505050801561258d57506040513d601f19601f8201168201806040525081019061258a919061438d565b60015b61260f573d80600081146125bd576040519150601f19603f3d011682016040523d82523d6000602084013e6125c2565b606091505b506000815103612607576040517f08c379a00000000000000000000000000000000000000000000000000000000081526004016125fe90614080565b60405180910390fd5b805181602001fd5b63150b7a0260e01b7bffffffffffffffffffffffffffffffffffffffffffffffffffffffff1916817bffffffffffffffffffffffffffffffffffffffffffffffffffffffff191614915050612664565b600190505b949350505050565b6126768383612802565b61268360008484846124e5565b6126c2576040517f08c379a00000000000000000000000000000000000000000000000000000000081526004016126b990614080565b60405180910390fd5b505050565b606060405180602001604052806000815250905090565b60606126e982611743565b612728576040517f08c379a000000000000000000000000000000000000000000000000000000000815260040161271f9061442c565b60405180910390fd5b60006127326126c7565b90506000815111612752576040518060200160405280600081525061277d565b8061275c846129cf565b60405160200161276d9291906141c4565b6040516020818303038152906040525b915050919050565b60007f01ffc9a7000000000000000000000000000000000000000000000000000000007bffffffffffffffffffffffffffffffffffffffffffffffffffffffff1916827bffffffffffffffffffffffffffffffffffffffffffffffffffffffff1916149050919050565b600080823b905060008111915050919050565b600073ffffffffffffffffffffffffffffffffffffffff168273ffffffffffffffffffffffffffffffffffffffff1603612871576040517f08c379a000000000000000000000000000000000000000000000000000000000815260040161286890614498565b60405180910390fd5b61287a81611743565b156128ba576040517f08c379a00000000000000000000000000000000000000000000000000000000081526004016128b190614504565b60405180910390fd5b6128c6600083836124e0565b6001600360008473ffffffffffffffffffffffffffffffffffffffff1673ffffffffffffffffffffffffffffffffffffffff16815260200190815260200160002060008282546129169190613f4c565b92505081905550816002600083815260200190815260200160002060006101000a81548173ffffffffffffffffffffffffffffffffffffffff021916908373ffffffffffffffffffffffffffffffffffffffff160217905550808273ffffffffffffffffffffffffffffffffffffffff16600073ffffffffffffffffffffffffffffffffffffffff167fddf252ad1be2c89b69c2b068fc378daa952ba7f163c4a11628f55a4df523b3ef60405160405180910390a45050565b606060008203612a16576040518060400160405280600181526020017f30000000000000000000000000000000000000000000000000000000000000008152509050612b2a565b600082905060005b60008214612a48578080612a3190613820565b915050600a82612a419190614553565b9150612a1e565b60008167ffffffffffffffff811115612a6457612a6361319b565b5b6040519080825280601f01601f191660200182016040528015612a965781602001600182028036833780820191505090505b5090505b60008514612b2357600182612aaf9190613f18565b9150600a85612abe9190614584565b6030612aca9190613f4c565b60f81b818381518110612ae057612adf6137c2565b5b60200101907effffffffffffffffffffffffffffffffffffffffffffffffffffffffffffff1916908160001a905350600a85612b1c9190614553565b9450612a9a565b8093505050505b919050565b828054612b3b906135db565b90600052602060002090601f016020900481019282612b5d5760008555612ba4565b82601f10612b7657805160ff1916838001178555612ba4565b82800160010185558215612ba4579182015b82811115612ba3578251825591602001919060010190612b88565b5b509050612bb19190612bb5565b5090565b5b80821115612bce576000816000905550600101612bb6565b5090565b6000604051905090565b600080fd5b600080fd5b60007fffffffff0000000000000000000000000000000000000000000000000000000082169050919050565b612c1b81612be6565b8114612c2657600080fd5b50565b600081359050612c3881612c12565b92915050565b600060208284031215612c5457612c53612bdc565b5b6000612c6284828501612c29565b91505092915050565b60008115159050919050565b612c8081612c6b565b82525050565b6000602082019050612c9b6000830184612c77565b92915050565b600081519050919050565b600082825260208201905092915050565b60005b83811015612cdb578082015181840152602081019050612cc0565b83811115612cea576000848401525b50505050565b6000601f19601f8301169050919050565b6000612d0c82612ca1565b612d168185612cac565b9350612d26818560208601612cbd565b612d2f81612cf0565b840191505092915050565b60006020820190508181036000830152612d548184612d01565b905092915050565b6000819050919050565b612d6f81612d5c565b8114612d7a57600080fd5b50565b600081359050612d8c81612d66565b92915050565b600060208284031215612da857612da7612bdc565b5b6000612db684828501612d7d565b91505092915050565b600073ffffffffffffffffffffffffffffffffffffffff82169050919050565b6000612dea82612dbf565b9050919050565b612dfa81612ddf565b82525050565b6000602082019050612e156000830184612df1565b92915050565b612e2481612ddf565b8114612e2f57600080fd5b50565b600081359050612e4181612e1b565b92915050565b60008060408385031215612e5e57612e5d612bdc565b5b6000612e6c85828601612e32565b9250506020612e7d85828601612d7d565b9150509250929050565b600080fd5b600080fd5b600080fd5b60008083601f840112612eac57612eab612e87565b5b8235905067ffffffffffffffff811115612ec957612ec8612e8c565b5b602083019150836020820283011115612ee557612ee4612e91565b5b9250929050565b60008060208385031215612f0357612f02612bdc565b5b600083013567ffffffffffffffff811115612f2157612f20612be1565b5b612f2d85828601612e96565b92509250509250929050565b600080600060608486031215612f5257612f51612bdc565b5b6000612f6086828701612e32565b9350506020612f7186828701612e32565b9250506040612f8286828701612d7d565b9150509250925092565b6000819050919050565b612f9f81612f8c565b8114612faa57600080fd5b50565b600081359050612fbc81612f96565b92915050565b600060208284031215612fd857612fd7612bdc565b5b6000612fe684828501612fad565b91505092915050565b612ff881612f8c565b82525050565b60006020820190506130136000830184612fef565b92915050565b600080604083850312156130305761302f612bdc565b5b600061303e85828601612fad565b925050602061304f85828601612e32565b9150509250929050565b60006020828403121561306f5761306e612bdc565b5b600061307d84828501612e32565b91505092915050565b61308f81612d5c565b82525050565b60006020820190506130aa6000830184613086565b92915050565b6000819050919050565b60006130d56130d06130cb84612dbf565b6130b0565b612dbf565b9050919050565b60006130e7826130ba565b9050919050565b60006130f9826130dc565b9050919050565b613109816130ee565b82525050565b60006020820190506131246000830184613100565b92915050565b61313381612c6b565b811461313e57600080fd5b50565b6000813590506131508161312a565b92915050565b6000806040838503121561316d5761316c612bdc565b5b600061317b85828601612e32565b925050602061318c85828601613141565b9150509250929050565b600080fd5b7f4e487b7100000000000000000000000000000000000000000000000000000000600052604160045260246000fd5b6131d382612cf0565b810181811067ffffffffffffffff821117156131f2576131f161319b565b5b80604052505050565b6000613205612bd2565b905061321182826131ca565b919050565b600067ffffffffffffffff8211156132315761323061319b565b5b61323a82612cf0565b9050602081019050919050565b82818337600083830152505050565b600061326961326484613216565b6131fb565b90508281526020810184848401111561328557613284613196565b5b613290848285613247565b509392505050565b600082601f8301126132ad576132ac612e87565b5b81356132bd848260208601613256565b91505092915050565b600080600080608085870312156132e0576132df612bdc565b5b60006132ee87828801612e32565b94505060206132ff87828801612e32565b935050604061331087828801612d7d565b925050606085013567ffffffffffffffff81111561333157613330612be1565b5b61333d87828801613298565b91505092959194509250565b600067ffffffffffffffff8211156133645761336361319b565b5b61336d82612cf0565b9050602081019050919050565b600061338d61338884613349565b6131fb565b9050828152602081018484840111156133a9576133a8613196565b5b6133b4848285613247565b509392505050565b600082601f8301126133d1576133d0612e87565b5b81356133e184826020860161337a565b91505092915050565b60008190508260206008028201111561340657613405612e91565b5b92915050565b6000806000806000806000806101e0898b03121561342d5761342c612bdc565b5b600061343b8b828c01612e32565b985050602089013567ffffffffffffffff81111561345c5761345b612be1565b5b6134688b828c016133bc565b97505060406134798b828c01612d7d565b965050606061348a8b828c01612d7d565b955050608061349b8b828c01612fad565b94505060a06134ac8b828c01612d7d565b93505060c06134bd8b828c01612d7d565b92505060e06134ce8b828c016133ea565b9150509295985092959890939650565b6000806000806000806101a087890312156134fc576134fb612bdc565b5b600061350a89828a01612d7d565b965050602061351b89828a01612d7d565b955050604061352c89828a01612d7d565b945050606061353d89828a01612fad565b935050608061354e89828a01612d7d565b92505060a061355f89828a016133ea565b9150509295509295509295565b6000806040838503121561358357613582612bdc565b5b600061359185828601612e32565b92505060206135a285828601612e32565b9150509250929050565b7f4e487b7100000000000000000000000000000000000000000000000000000000600052602260045260246000fd5b600060028204905060018216806135f357607f821691505b602082108103613606576136056135ac565b5b50919050565b7f4552433732313a20617070726f76656420717565727920666f72206e6f6e657860008201527f697374656e7420746f6b656e0000000000000000000000000000000000000000602082015250565b6000613668602c83612cac565b91506136738261360c565b604082019050919050565b600060208201905081810360008301526136978161365b565b9050919050565b7f4552433732313a20617070726f76616c20746f2063757272656e74206f776e6560008201527f7200000000000000000000000000000000000000000000000000000000000000602082015250565b60006136fa602183612cac565b91506137058261369e565b604082019050919050565b60006020820190508181036000830152613729816136ed565b9050919050565b7f4552433732313a20617070726f76652063616c6c6572206973206e6f74206f7760008201527f6e6572206e6f7220617070726f76656420666f7220616c6c0000000000000000602082015250565b600061378c603883612cac565b915061379782613730565b604082019050919050565b600060208201905081810360008301526137bb8161377f565b9050919050565b7f4e487b7100000000000000000000000000000000000000000000000000000000600052603260045260246000fd5b7f4e487b7100000000000000000000000000000000000000000000000000000000600052601160045260246000fd5b600061382b82612d5c565b91507fffffffffffffffffffffffffffffffffffffffffffffffffffffffffffffffff820361385d5761385c6137f1565b5b600182019050919050565b7f4552433732313a207472616e736665722063616c6c6572206973206e6f74206f60008201527f776e6572206e6f7220617070726f766564000000000000000000000000000000602082015250565b60006138c4603183612cac565b91506138cf82613868565b604082019050919050565b600060208201905081810360008301526138f3816138b7565b9050919050565b7f416363657373436f6e74726f6c3a2063616e206f6e6c792072656e6f756e636560008201527f20726f6c657320666f722073656c660000000000000000000000000000000000602082015250565b6000613956602f83612cac565b9150613961826138fa565b604082019050919050565b6000602082019050818103600083015261398581613949565b9050919050565b7f4552433732313a206f776e657220717565727920666f72206e6f6e657869737460008201527f656e7420746f6b656e0000000000000000000000000000000000000000000000602082015250565b60006139e8602983612cac565b91506139f38261398c565b604082019050919050565b60006020820190508181036000830152613a17816139db565b9050919050565b6000604082019050613a336000830185613086565b613a406020830184612df1565b9392505050565b7f4552433732313a2062616c616e636520717565727920666f7220746865207a6560008201527f726f206164647265737300000000000000000000000000000000000000000000602082015250565b6000613aa3602a83612cac565b9150613aae82613a47565b604082019050919050565b60006020820190508181036000830152613ad281613a96565b9050919050565b7f4d696e74696e67206e6f74206163746976650000000000000000000000000000600082015250565b6000613b0f601283612cac565b9150613b1a82613ad9565b602082019050919050565b60006020820190508181036000830152613b3e81613b02565b9050919050565b613b526101008383613247565b5050565b60006101a082019050613b6c6000830189613086565b613b796020830188613086565b613b866040830187612fef565b613b936060830186613086565b613ba06080830185613086565b613bad60a0830184613b45565b979650505050505050565b6000604082019050613bcd6000830185613086565b8181036020830152613bdf8184612d01565b90509392505050565b7f566f74696e67206e6f7420616374697665000000000000000000000000000000600082015250565b6000613c1e601183612cac565b9150613c2982613be8565b602082019050919050565b60006020820190508181036000830152613c4d81613c11565b9050919050565b600081905092915050565b7f416363657373436f6e74726f6c3a206163636f756e7420000000000000000000600082015250565b6000613c95601783613c54565b9150613ca082613c5f565b601782019050919050565b6000613cb682612ca1565b613cc08185613c54565b9350613cd0818560208601612cbd565b80840191505092915050565b7f206973206d697373696e6720726f6c6520000000000000000000000000000000600082015250565b6000613d12601183613c54565b9150613d1d82613cdc565b601182019050919050565b6000613d3382613c88565b9150613d3f8285613cab565b9150613d4a82613d05565b9150613d568284613cab565b91508190509392505050565b7f4552433732313a206f70657261746f7220717565727920666f72206e6f6e657860008201527f697374656e7420746f6b656e0000000000000000000000000000000000000000602082015250565b6000613dbe602c83612cac565b9150613dc982613d62565b604082019050919050565b60006020820190508181036000830152613ded81613db1565b9050919050565b7f4552433732313a207472616e73666572206f6620746f6b656e2074686174206960008201527f73206e6f74206f776e0000000000000000000000000000000000000000000000602082015250565b6000613e50602983612cac565b9150613e5b82613df4565b604082019050919050565b60006020820190508181036000830152613e7f81613e43565b9050919050565b7f4552433732313a207472616e7366657220746f20746865207a65726f2061646460008201527f7265737300000000000000000000000000000000000000000000000000000000602082015250565b6000613ee2602483612cac565b9150613eed82613e86565b604082019050919050565b60006020820190508181036000830152613f1181613ed5565b9050919050565b6000613f2382612d5c565b9150613f2e83612d5c565b925082821015613f4157613f406137f1565b5b828203905092915050565b6000613f5782612d5c565b9150613f6283612d5c565b9250827fffffffffffffffffffffffffffffffffffffffffffffffffffffffffffffffff03821115613f9757613f966137f1565b5b828201905092915050565b7f4552433732313a20617070726f766520746f2063616c6c657200000000000000600082015250565b6000613fd8601983612cac565b9150613fe382613fa2565b602082019050919050565b6000602082019050818103600083015261400781613fcb565b9050919050565b7f4552433732313a207472616e7366657220746f206e6f6e20455243373231526560008201527f63656976657220696d706c656d656e7465720000000000000000000000000000602082015250565b600061406a603283612cac565b91506140758261400e565b604082019050919050565b600060208201905081810360008301526140998161405d565b9050919050565b7f45524337323155524953746f726167653a2055524920736574206f66206e6f6e60008201527f6578697374656e7420746f6b656e000000000000000000000000000000000000602082015250565b60006140fc602e83612cac565b9150614107826140a0565b604082019050919050565b6000602082019050818103600083015261412b816140ef565b9050919050565b7f45524337323155524953746f726167653a2055524920717565727920666f722060008201527f6e6f6e6578697374656e7420746f6b656e000000000000000000000000000000602082015250565b600061418e603183612cac565b915061419982614132565b604082019050919050565b600060208201905081810360008301526141bd81614181565b9050919050565b60006141d08285613cab565b91506141dc8284613cab565b91508190509392505050565b60006141f382612d5c565b91506141fe83612d5c565b9250817fffffffffffffffffffffffffffffffffffffffffffffffffffffffffffffffff0483118215151615614237576142366137f1565b5b828202905092915050565b600061424d82612d5c565b9150600082036142605761425f6137f1565b5b600182039050919050565b7f537472696e67733a20686578206c656e67746820696e73756666696369656e74600082015250565b60006142a1602083612cac565b91506142ac8261426b565b602082019050919050565b600060208201905081810360008301526142d081614294565b9050919050565b600081519050919050565b600082825260208201905092915050565b60006142fe826142d7565b61430881856142e2565b9350614318818560208601612cbd565b61432181612cf0565b840191505092915050565b60006080820190506143416000830187612df1565b61434e6020830186612df1565b61435b6040830185613086565b818103606083015261436d81846142f3565b905095945050505050565b60008151905061438781612c12565b92915050565b6000602082840312156143a3576143a2612bdc565b5b60006143b184828501614378565b91505092915050565b7f4552433732314d657461646174613a2055524920717565727920666f72206e6f60008201527f6e6578697374656e7420746f6b656e0000000000000000000000000000000000602082015250565b6000614416602f83612cac565b9150614421826143ba565b604082019050919050565b6000602082019050818103600083015261444581614409565b9050919050565b7f4552433732313a206d696e7420746f20746865207a65726f2061646472657373600082015250565b6000614482602083612cac565b915061448d8261444c565b602082019050919050565b600060208201905081810360008301526144b181614475565b9050919050565b7f4552433732313a20746f6b656e20616c7265616479206d696e74656400000000600082015250565b60006144ee601c83612cac565b91506144f9826144b8565b602082019050919050565b6000602082019050818103600083015261451d816144e1565b9050919050565b7f4e487b7100000000000000000000000000000000000000000000000000000000600052601260045260246000fd5b600061455e82612d5c565b915061456983612d5c565b92508261457957614578614524565b5b828204905092915050565b600061458f82612d5c565b915061459a83612d5c565b9250826145aa576145a9614524565b5b82820690509291505056fea264697066735822122042641e7433fdddc3a66a396211f70574c721e8d2666b7a32521bf7598c7bbeb064736f6c634300080d0033",
  "linkReferences": {},
  "deployedLinkReferences": {}
}